:100000000C9446000C945D000C945D000C945D0013
:100010000C945D000C945D000C945D000C945D00EC
:100020000C945D000C945D000C945D000C945D00DC
:100030000C945D000C945D000C945D000C945D00CC
:100040000C945D000C945D000C945D000C945D00BC
:100050000C945D000C945D000C945D000C945D00AC
:100060000C945D000C945D000C945D000C945D009C
:100070000C945D000C945D000C945D000C945D008C
:100080000C945D000C945D000C945D0011241FBE67
:10009000CFEFD0E1DEBFCDBF13E0A0E0B1E0E4EEF2
:1000A000F9E000E00BBF02C007900D92A838B1073D
:1000B000D9F70E94D9040C94F0040C9400009FEF2F
:1000C0009ABB94BB91BBA1E6BB279C939CEF089580
:1000D000A3E6BB277C9174FFFDCFA2E68C939BBB6C
:1000E00065BB416042BB979844274C934BBB42BBD6
:1000F00045BB0895A2E6BB278C939BBB9927882715
:10010000A3E67C9174FFE6CF42BB65BB979A9798B4
:100110009F3F11F09395F5CF9927803811F0839583
:10012000F0CF44274C934BBB42BB45BB089586B3ED
:10013000089597FF089591958195910908950C94DC
:100140005F00E42FF0E0FE2FEE27FF0FFF0FFF0F01
:1001500090E2399FD0011124EA2BFB2B462F682F08
:10016000CF01822B0C946800E42FF0E0FE2FEE27E5
:10017000FF0FFF0FFF0F90E2399FD0011124EA2BF0
:10018000FB2B462F682FCF01822B0C94680090E048
:10019000982F8827990F990F990F40E2749F90012B
:1001A0001124822B932B862B0C947A002F923F9252
:1001B0004F925F926F927F928F929F92AF92BF9277
:1001C000CF92DF92EF92FF920F931F93CF93DF9323
:1001D00000D000D000D0CDB7DEB79E838D835B0109
:1001E0003A013A8329834E2D2F2DB301681B790BD9
:1001F0004B0177FD88C089819A818A199B097C010E
:1002000097FD7CC077FD71C022242394312C97FD8B
:1002100071C044244394512C6401CE18DF08802F10
:1002200090E0982F8827990F990F990F50E2259FFA
:1002300090011124822B932B9C01242B3C832B8334
:10024000002711270E191F098D819E81861597059C
:1002500071F18F3F910509F080F490E8A916B1047F
:1002600060F44A2D6D818B819C810E9468004A2D2B
:100270006D818B819C810E946800C601880F991F47
:100280000817190744F4CE18DF082D813E81220D8E
:10029000331D3E832D8388159905B4F6C80CD91CEF
:1002A000A40CB51C8D819E818615970591F6298138
:1002B0003A81A216B30669F626960FB6F894DEBF09
:1002C0000FBECDBFDF91CF911F910F91FF90EF90A7
:1002D000DF90CF90BF90AF909F908F907F906F9066
:1002E0005F904F903F902F90089522242A94322CB3
:1002F00097FF8FCF44244A94542C8ECFEE24FF24B2
:10030000E81AF90A7FCF88249924861A970A73CFAE
:100310002F923F924F925F926F927F928F929F9215
:10032000AF92BF92CF92DF92EF92FF920F931F9303
:10033000CF93DF9300D000D000D0CDB7DEB76C01F3
:100340001B015E834D833C832B83CA018C199D095D
:100350004C0197FD46C197FD26C144244394512C7E
:10036000602E712C762C6624770C770C770C20E2AB
:10037000F29EC0011124682A792A6E285401710165
:1003800086018D819E818017910739F10F3F1105FC
:1003900009F070F490E8E916F10450F44E2D602F46
:1003A000C3010E9468004E2D602FC3010E946800A7
:1003B000C501880F991F1816190614F4040D151D90
:1003C00088159905F4F6A80CB91C2FEFE21AF20A69
:1003D0008D819E8180179107C9F62E143F04B1F6D6
:1003E0008B819C81821993099A83898397FDF2C03E
:1003F00097FDE5C044244394512C89809A809194C0
:1004000081949108540171018601C016D10629F129
:100410000F3F110509F070F490E8E916F10450F46B
:100420004E2D602FC3010E9468004E2D602FC30126
:100430000E946800C501880F991F8816990634F438
:1004400029813A81A21AB30A0F5F1F4F97FFDDCFB0
:10045000E40CF51CC016D106D9F68B819C818E1553
:100460009F05B1F69C01C101821B930B9A8389837E
:1004700097FDA9C097FD9FC044244394512C8980C7
:100480009A809194819491085401EB80FC800D81B5
:100490001E818D819E818017910739F10F3F1105D3
:1004A00009F070F490E8E916F10450F44E2D602F35
:1004B000C3010E9468004E2D602FC3010E94680096
:1004C000C501880F991F8816990634F429813A814D
:1004D000A21AB30A0F5F1F4F97FFDBCFE40CF51C86
:1004E0008D819E8180179107C9F62E143F04B1F6C5
:1004F0009C01C601821B930B5C0197FD77C097FDA1
:1005000056C088248394912C75010B811C818D81A8
:100510009E81C816D90649F18F3F910509F068F40C
:100520000038110550F4402F6D81C3010E9468000E
:10053000402F6D81C3010E946800C701880F991F79
:100540001816190634F42D813E81280D391D3E837D
:100550002D838A159B05DCF6EA0CFB1C0F5F1F4FF1
:100560008D819E81C816D906B9F62B813C81201752
:10057000310791F626960FB6F894DEBF0FBECDBFB9
:10058000DF91CF911F910F91FF90EF90DF90CF906F
:10059000BF90AF909F908F907F906F905F904F90A3
:1005A0003F902F90089544244A94542CD9CE882407
:1005B0008A94982CA9CF44244A94542C60CF442484
:1005C0004A94542C1ACF22273327281B390B3A83FD
:1005D000298350CF22273327281B390B3A832983BD
:1005E00007CF88249924881A990AB5CEAA24BB2457
:1005F000A81AB90A84CF2F923F924F925F926F92BE
:100600007F928F929F92AF92BF92CF92DF92EF92A2
:10061000FF920F931F93CF93DF93CDB7DEB72F9742
:100620000FB6F894DEBF0FBECDBFFC0190819923B9
:1006300009F4C2C03801822E9F012F5F3F4F3B83D8
:100640002A836983442E512CF2013196FD83EC8379
:1006500092012E5F3F4F3F832E833296F987E887C2
:100660002E5F3F4F3B872A873296FD87EC8712012A
:10067000F6E02F0E311C25E09202C0011124FC018E
:10068000E050FF4F6F011F861E86F981EF2EF12C7F
:10069000520127E0A20EB11C1DC091FC2DC092FC9E
:1006A00037C093FC41C094FC4BC095FC55C096FCF0
:1006B0005FC0000F012F001F110B012B09F068C054
:1006C0002E853F852F5F3F4F3F872E872530310591
:1006D00009F468C0F60191906F01092D10E090FEB9
:1006E000DCCF482D9301B2018E859F858E0D9F1D15
:1006F0000E94A10091FED3CF482D93016C817D8192
:100700008E859F858E0D9F1D0E94A10092FEC9CFF0
:10071000482D93016E817F818E859F858E0D9F1D53
:100720000E94A10093FEBFCF482D93016885798573
:100730008E859F858E0D9F1D0E94A10094FEB5CFD2
:10074000482D93016A857B858E859F858E0D9F1D23
:100750000E94A10095FEABCF482D93016C857D854D
:100760008E859F858E0D9F1D0E94A10096FEA1CFB4
:10077000482D9301B1018E859F858E0D9F1D0E948E
:10078000A100000F012F001F110B012B09F498CFBE
:10079000482D9301B5018E859F858E0D9F1D0E946A
:1007A000A1008ECFEA81FB819191FB83EA83F981DD
:1007B000FA5FF98391115FCF2F960FB6F894DEBFE1
:1007C0000FBECDBFDF91CF911F910F91FF90EF90A2
:1007D000DF90CF90BF90AF909F908F907F906F9061
:1007E0005F904F903F902F9008952F923F924F929D
:1007F0005F926F927F928F929F92AF92BF92CF92B1
:10080000DF92EF92FF920F931F93CF93DF93CDB7B9
:10081000DEB72C970FB6F894DEBF0FBECDBF380100
:10082000822E25E08202C0011124FC01E050FF4F1E
:100830006F011C861B86A42EB12CE62EF12C2501FF
:10084000FFEF4F1A5F0A150122E0220E311CC5018D
:1008500003969A838983F5013496FC83EB83950193
:100860002B5F3F4F3E832D83039698878F8333966C
:10087000FA87E9871DC091FC2DC092FC36C093FC1D
:100880003FC094FC49C095FC53C096FC5DC0000F6E
:10089000012F001F110B012B09F067C02B853C8530
:1008A0002F5F3F4F3C872B872530310509F468C007
:1008B000F60191906F01092D10E090FEDCCF482DDC
:1008C0009301B5018B859C858E0D9F1D0E94A10013
:1008D00091FED3CF482D9301B2018B859C858E0D5F
:1008E0009F1D0E94A10092FECACF482D9301B10125
:1008F0008B859C858E0D9F1D0E94A10093FEC1CF0C
:10090000482D930169817A818B859C858E0D9F1D71
:100910000E94A10094FEB7CF482D93016B817C818A
:100920008B859C858E0D9F1D0E94A10095FEADCFED
:10093000482D93016D817E818B859C858E0D9F1D39
:100940000E94A10096FEA3CF482D93016F81788568
:100950008B859C858E0D9F1D0E94A100000F012F8D
:10096000001F110B012B09F499CF482D93016985C4
:100970007A858B859C858E0D9F1D0E94A1008ECF50
:100980002C960FB6F894DEBF0FBECDBFDF91CF918E
:100990001F910F91FF90EF90DF90CF90BF90AF909D
:1009A0009F908F907F906F905F904F903F902F908F
:1009B00008950F931F930E949F0060E07FE180E005
:1009C0000E94C7000FE11FE32FE140E060E08BE7EA
:1009D00093E00E94FB0280E090E01F910F91089548
:0409E000F894FFCFB9
:1009E400F00A0A0A10F00A0A0A10F00A0A0A10F0B9
:1009F4000A0A0A10F00A0A0A10F00A0A0A10F00A8F
:100A04000A0A10F00A0A0A10F00A0A0A10F00A0A7E
:100A14000A10F00A0A0A10F00A0A0A10F00A0A0A6E
:100A240010F00A0A0A10F00A0A0A10F00A0A0A1058
:100A3400F00A0A0A10F00A0A0A10F00A0A0A10F068
:100A44000A0A0A10F00A0A0A10F00A0A0A10F00A3E
:100A54000A0A10F00A0A0A10F00A0A0A10F00A0A2E
:100A64000A10F00A0A0A10F00A0A0A10F00A0A0A1E
:100A740010F00A0A0A10F00A0A0A10F00A0A0A1008
:100A8400000000000000F6F6000000C000C00028CE
:100A9400FE28FE281C2A2A2A18C6C81026C65CA2CC
:100AA400A25C120000C000000038448200008244AE
:100AB400380000A040A00010107C10100E0C0000A4
:100AC400001010101010060600000006081020C0C8
:100AD4007C8A92A27C0042FE020042868A92624490
:100AE4008292926C305090FE10E2A2A2A29C3C52E0
:100AF40092920C80809EA0C06C9292926C609292B2
:100B04009478006C6C0000006E6C000080809EA0E5
:100B1400C028282828286C9292926C40808A906081
:100B24007C82BA8A787E8888887EFE9292926C7CD7
:100B340082828244FE8282827CFE92929282FE9023
:100B44009090807C8292925CFE101010FE8282FE55
:100B540082820C020202FCFE10284482FE0202027F
:100B640002FE402040FEFE402010FE7C8282827CF9
:100B7400FE909090607C828A847AFE90989462645D
:100B84009292924C8080FE8080FC020202FCF80467
:100B94000204F8FC020C02FCC6281028C6E4121257
:100BA40012FC868A92A2C2FE82828200C0201008B1
:100BB4000600828282FE2040804020FE828282FEE5
:100BC400FE828282FE042A2A2A1EFE1422221C1C71
:100BD400222222141C222214FE1C2A2A2A18207ED5
:100BE400A08040102A2A2A3CFE2020201E0022BE7B
:100BF4000200040202BC00FE080814220082FE0265
:100C0400003E203E201E3E1020201E1C2222221CBC
:100C14003E24242418182424243E3E10202010129C
:100C24002A2A2A04207C2202043C0202043E3804BC
:100C34000204383C020C023C221408142220120C38
:100C4400102022262A322200106C82000000FE00AE
:100C54000000826C1000304020106048656C6C6F9E
:080C640020576F726C6421003F
:00000001FF
