:100000000C9446000C9465000C9465000C946500FB
:100010000C9465000C9465000C9465000C946500CC
:100020000C941D030C9465000C9465000C94650001
:100030000C9465000C9465000C9465000C946500AC
:100040000C9465000C9465000C9465000C9465009C
:100050000C9465000C9465000C9465000C9465008C
:100060000C9465000C9465000C9465000C9465007C
:100070000C9465000C9465000C9465000C9465006C
:100080000C9465000C9465000C94650011241FBE4F
:10009000CFEFD0E1DEBFCDBF15E0A0E0B1E0E4EEF0
:1000A000FFE100E00BBF02C007900D92A434B1073E
:1000B000D9F725E0A4E4B5E001C01D92A935B20747
:1000C000E1F70E94520E0C94F00F0C9400009FEF89
:1000D0009ABB94BB91BBBB27A4E690E09C93A1E69E
:1000E0009FEF9C930895A3E6BB277C9174FFFDCFFF
:1000F0007FEFA1E67C93A2E68C937ABB9BBB65BBAA
:1001000042BB979A0000979844274C934BBB4ABB3D
:10011000A1E64C9342BB45BB0895A2E6BB278C9356
:100120009BBB99278827A3E67C9174FFDECF42BB57
:1001300065BB979A97989F3F11F09395F5CF9927B4
:10014000803811F08395F0CF44274C934BBB42BBD2
:1001500045BB4ABBA1E64C93089590E097BB86B39C
:1001600008959FEF97BB88BB0895809329009093D3
:10017000900088E180932A0086E08093950008959E
:1001800090912B0095FFFCCF80932C0008958091D7
:100190002B0085FFFCCF80912C000895B92FA82F4C
:1001A00090912B0095FFFCCF80912C008A3021F09C
:1001B0008D930E94C000F4CF8AE00E94C00001C06D
:1001C000089580912B0085FF08958CB5FACFAEE39A
:1001D000BCE91197F1F7000008958FE7AEE3BCE9A1
:1001E0001197F1F78A95D1F700000895E199FECFB4
:1001F0009FBB8EBBE09A8DB30895E199FECF9FBB64
:100200008EBB6DBBE29AE19A08959FEF92B983B9D4
:10021000BB27A4E69FE09C93A5E69FEF9C930895DF
:1002200000000000000000000000000000000000CE
:1002300000000000000000000000000000000000BE
:1002400000000000000000000000000000000000AE
:10025000000000000000000000000000000000009E
:10062000CF93DF93C9EFD3E089E40E94C0008991A2
:100630008111FBCFDF91CF9108951F920F920FB6DA
:100640000F9211240BB60F922F933F934F935F930A
:100650006F937F938F939F93AF93BF93CF93DF93CA
:10066000EF93FF93C9EFD3E089E40E94C000899122
:100670008111FBCFFF91EF91DF91CF91BF91AF91AE
:100680009F918F917F916F915F914F913F912F91AA
:100690000F900BBE0F900FBE0F901F90189597FFF5
:1006A00008959195819591090895861797070CF4FF
:1006B000CB010895681779070CF4CB0108950E94C7
:1006C000670017981F9A89B7806889BF8AB7806CBE
:1006D0008ABF789408950F931F93CF93DF93062FCB
:1006E000182F110FC42FD0E0DC2FCC27DD0FDD0F2A
:1006F000DD0F40E2349FC0011124C82BD92BC22B3F
:10070000462F612FCE010E947300402F612FCE0132
:100710000E9473001F5F402F612FCE010E94730063
:10072000402F612FCE01DF91CF911F910F910C943B
:1007300073000F931F93CF93DF93062F182F110F82
:10074000C42FD0E0DC2FCC27DD0FDD0FDD0F40E222
:10075000349FC0011124C82BD92BC22B462F612FE7
:10076000CE010E947300402F612FCE010E947300C2
:100770001F5F402F612FCE010E947300402F612F19
:10078000CE01DF91CF911F910F910C94730090E0F7
:10079000982F8827990F990F990F40E2749F900125
:1007A0001124822B932B862B0C948D002F923F9239
:1007B0004F925F926F927F928F929F92AF92BF9271
:1007C000CF92DF92EF92FF920F931F93CF93DF931D
:1007D00000D000D000D0CDB7DEB79E838D835B0103
:1007E0003A013A8329834E2D2F2DB301681B790BD3
:1007F0004B0177FD88C089819A818A199B097C0108
:1008000097FD7CC077FD71C022242394312C97FD85
:1008100071C044244394512C6401CE18DF08802F0A
:1008200090E0982F8827990F990F990F50E2259FF4
:1008300090011124822B932B9C01242B3C832B832E
:10084000002711270E191F098D819E818615970596
:1008500071F18F3F910509F080F490E8A916B10479
:1008600060F44A2D6D818B819C810E9473004A2D1A
:100870006D818B819C810E947300C601880F991F36
:100880000817190744F4CE18DF082D813E81220D88
:10089000331D3E832D8388159905B4F6C80CD91CE9
:1008A000A40CB51C8D819E818615970591F6298132
:1008B0003A81A216B30669F626960FB6F894DEBF03
:1008C0000FBECDBFDF91CF911F910F91FF90EF90A1
:1008D000DF90CF90BF90AF909F908F907F906F9060
:1008E0005F904F903F902F90089522242A94322CAD
:1008F00097FF8FCF44244A94542C8ECFEE24FF24AC
:10090000E81AF90A7FCF88249924861A970A73CFA8
:100910002F923F924F925F926F927F928F929F920F
:10092000AF92BF92CF92DF92EF92FF920F931F93FD
:10093000CF93DF9300D000D000D0CDB7DEB76C01ED
:100940001B015E834D833C832B83CA018C199D0957
:100950004C0197FD46C197FD26C144244394512C78
:10096000602E712C762C6624770C770C770C20E2A5
:10097000F29EC0011124682A792A6E28540171015F
:1009800086018D819E818017910739F10F3F1105F6
:1009900009F070F490E8E916F10450F44E2D602F40
:1009A000C3010E9473004E2D602FC3010E9473008B
:1009B000C501880F991F1816190614F4040D151D8A
:1009C00088159905F4F6A80CB91C2FEFE21AF20A63
:1009D0008D819E8180179107C9F62E143F04B1F6D0
:1009E0008B819C81821993099A83898397FDF2C038
:1009F00097FDE5C044244394512C89809A809194BA
:100A000081949108540171018601C016D10629F123
:100A10000F3F110509F070F490E8E916F10450F465
:100A20004E2D602FC3010E9473004E2D602FC30115
:100A30000E947300C501880F991F8816990634F427
:100A400029813A81A21AB30A0F5F1F4F97FFDDCFAA
:100A5000E40CF51CC016D106D9F68B819C818E154D
:100A60009F05B1F69C01C101821B930B9A83898378
:100A700097FDA9C097FD9FC044244394512C8980C1
:100A80009A809194819491085401EB80FC800D81AF
:100A90001E818D819E818017910739F10F3F1105CD
:100AA00009F070F490E8E916F10450F44E2D602F2F
:100AB000C3010E9473004E2D602FC3010E9473007A
:100AC000C501880F991F8816990634F429813A8147
:100AD000A21AB30A0F5F1F4F97FFDBCFE40CF51C80
:100AE0008D819E8180179107C9F62E143F04B1F6BF
:100AF0009C01C601821B930B5C0197FD77C097FD9B
:100B000056C088248394912C75010B811C818D81A2
:100B10009E81C816D90649F18F3F910509F068F406
:100B20000038110550F4402F6D81C3010E947300FD
:100B3000402F6D81C3010E947300C701880F991F68
:100B40001816190634F42D813E81280D391D3E8377
:100B50002D838A159B05DCF6EA0CFB1C0F5F1F4FEB
:100B60008D819E81C816D906B9F62B813C8120174C
:100B7000310791F626960FB6F894DEBF0FBECDBFB3
:100B8000DF91CF911F910F91FF90EF90DF90CF9069
:100B9000BF90AF909F908F907F906F905F904F909D
:100BA0003F902F90089544244A94542CD9CE882401
:100BB0008A94982CA9CF44244A94542C60CF44247E
:100BC0004A94542C1ACF22273327281B390B3A83F7
:100BD000298350CF22273327281B390B3A832983B7
:100BE00007CF88249924881A990AB5CEAA24BB2451
:100BF000A81AB90A84CF0C94AD000C94B100CF931D
:100C0000DF939C01990F440B550B60E472E48FE075
:100C100090E00E94940F8FEF820F0E94B500CFEFFB
:100C2000D3E089E40E94C00089918111FBCFDF915C
:100C3000CF9108950C94C0000C94C700CF93DF931C
:100C400080E091E00E94540CEC010E94CE00CE01A5
:100C5000DF91CF9108950C94ED000C94E700CF93B1
:100C6000DF93EC018881882331F021960E94C00037
:100C700089918111FBCFDF91CF910895CF93DF93BD
:100C8000EC018881882331F021960E94C00089916F
:100C90008111FBCF8AE0DF91CF910C94C0000F93BC
:100CA0001F93CF93DF9397FD14C0009709F090C076
:100CB00080E38093440510924505C5E4D5E00E9489
:100CC000C00089918111FBCFDF91CF911F910F91CE
:100CD00008952DE2209344059195819591096AE04C
:100CE00070E00E94800F805D80934505FB01309786
:100CF00009F47BC0C2E0D0E09E012C5B3A4F0AE0D1
:100D000010E0CF01B8010E94800F805DD9018C9363
:100D10009E012F5F3F4F6115710571F12C5B3A4FBA
:100D2000CB01B8010E94800F805DD9018C93CF0167
:100D300064E670E00E94800FCB019E012E5F3F4F62
:100D40000097D1F02C5B3A4FB8010E94800F805D74
:100D5000D9018C93CF0168EE73E00E94800F9E0151
:100D60002D5F3F4F6115710539F0F901EC5BFA4FCA
:100D7000605D60832F5F3F4FF901EC5BFA4F10829B
:100D8000C9019595879540914405F901ED5BFA4FAE
:100D9000508150934405408381309105A1F04091EA
:100DA0004505F901EE5BFA4F5081509345054083AC
:100DB000029749F080914605F901EF5BFA4F908167
:100DC00090934605808380914405811176CF7CCF36
:100DD0006AE070E00E94800F805D80934405FB0113
:100DE000309751F0C1E0D0E087CF10924605809354
:100DF000440520934505E7CF10924505E6CF0C94B6
:100E000005010F931F93CF93DF9397FD0FC00097BA
:100E100009F0D0C080E3809344051092450584E436
:100E200095E0DF91CF911F910F9108952DE22093CE
:100E300044059195819591096AE070E00E94800FC8
:100E4000805D80934505FB01309709F4C0C0C2E086
:100E5000D0E09E012C5B3A4F0AE010E0CF01B801D0
:100E60000E94800F805DD9018C939E012F5F3F4FC0
:100E70006115710571F12C5B3A4FCB01B8010E94ED
:100E8000800F805DD9018C93CF0164E670E00E94F1
:100E9000800FCB019E012E5F3F4F0097D1F02C5B5E
:100EA0003A4FB8010E94800F805DD9018C93CF0129
:100EB00068EE73E00E94800F9E012D5F3F4F611529
:100EC000710539F0F901EC5BFA4F605D60832F5FCB
:100ED0003F4FF901EC5BFA4F1082C9019595879558
:100EE00040914405F901ED5BFA4F50815093440560
:100EF00040838130910509F492CF40914505F90175
:100F0000EE5BFA4F50815093450540838230910546
:100F100009F485CF40914605F901EF5BFA4F508106
:100F20005093460540838330910509F478CF409172
:100F30004705F901E05CFA4F508150934705408323
:100F40008430910509F46BCF40914805F901E15CCB
:100F5000FA4F50815093480540838530910509F43C
:100F60005ECF40914905F901E25CFA4F5081509300
:100F7000490540838630910509F451CF40914A05D7
:100F8000F901E35CFA4F508150934A05408307977B
:100F900009F445CF80914B05F901E45CFA4F90814B
:100FA00090934B05808384E495E0DF91CF911F916E
:100FB0000F9108956AE070E00E94800F805D809339
:100FC0004405FB01309751F0C1E0D0E042CF1092D0
:100FD0004605809344052093450521CF1092450591
:100FE0001ECF0C94F6000C94FD00DC01FB019C91DB
:100FF0009923E1F080818823A1F0891310C0119614
:1010000005C0222371F0FA01921309C0AF014F5FAE
:101010005F4F9D9121819111F4CF81E0921380E087
:10102000089520E081E09213FACFFACF2081F5CF26
:101030002F923F924F925F926F927F928F929F92E8
:10104000AF92BF92CF92DF92EF92FF920F931F93D6
:10105000CF93DF93CDB7DEB72F970FB6F894DEBFEF
:101060000FBECDBFFC019081992309F4C2C03801A5
:10107000822E9F012F5F3F4F3B832A836983442E3B
:10108000512CF2013796FD83EC8392012A5F3F4F8A
:101090003F832E833297F987E887225031093B87B7
:1010A0002A873297FD87EC871201F2E02F0E311C60
:1010B00025E09202C0011124FC01EE5DFE4F6F019C
:1010C0001F861E86F981EF2EF12C52012FEFA21AF6
:1010D000B20A1DC091FC2EC092FC38C093FC42C0E5
:1010E00094FC4CC095FC56C096FC5FC0000F012FCD
:1010F000001F110B012B09F068C02E853F852F5F63
:101100003F4F3F872E872530310509F468C0F6012F
:1011100091906F01092D10E090FEDCCF482D9301D6
:101120006E857F856E0D7F1D8C819D810E946B0376
:1011300091FED2CF482D93016E857F856E0D7F1D68
:101140008E819F810E946B0392FEC8CF482D930130
:101150006E857F856E0D7F1D888599850E946B0346
:1011600093FEBECF482D93016E857F856E0D7F1D4A
:101170008A859B850E946B0394FEB4CF482D930112
:101180006E857F856E0D7F1D8C859D850E946B030E
:1011900095FEAACF482D93016E857F856E0D7F1D2C
:1011A000C1010E946B0396FEA1CF482D93016E856D
:1011B0007F856E0D7F1DC5010E946B03000F012FFF
:1011C000001F110B012B09F498CF482D93016E8558
:1011D0007F856E0D7F1DC2010E946B038ECFEA8159
:1011E000FB819191FB83EA83F981FA5FF983911185
:1011F0005FCF2F960FB6F894DEBF0FBECDBFDF9145
:10120000CF911F910F91FF90EF90DF90CF90BF9003
:10121000AF909F908F907F906F905F904F903F9096
:101220002F9008952F923F924F925F926F927F92EC
:101230008F929F92AF92BF92CF92DF92EF92FF92E6
:101240000F931F93CF93DF93CDB7DEB72C970FB6D5
:10125000F894DEBF0FBECDBF3801822E25E082029A
:10126000C0011124FC01EE5DFE4F6F011C861B8640
:10127000A42EB12CE62EF12C2501FFEF4F1A5F0AA8
:10128000150122E0220E311CC50103969A83898341
:10129000F5013496FC83EB8395012B5F3F4F3E8332
:1012A0002D83039698878F833396FA87E9871DC02D
:1012B00091FC2DC092FC36C093FC3FC094FC49C009
:1012C00095FC53C096FC5DC0000F012F001F110B51
:1012D000012B09F067C02B853C852F5F3F4F3C8772
:1012E0002B872530310509F468C0F60191906F0114
:1012F000092D10E090FEDCCF482D9301B5018B85C0
:101300009C858E0D9F1D0E946B0391FED3CF482DAF
:101310009301B2018B859C858E0D9F1D0E946B03EE
:1013200092FECACF482D9301B1018B859C858E0D0D
:101330009F1D0E946B0393FEC1CF482D93016981CD
:101340007A818B859C858E0D9F1D0E946B0394FE78
:10135000B7CF482D93016B817C818B859C858E0D49
:101360009F1D0E946B0395FEADCF482D93016D81AB
:101370007E818B859C858E0D9F1D0E946B0396FE42
:10138000A3CF482D93016F8178858B859C858E0D29
:101390009F1D0E946B03000F012F001F110B012BDB
:1013A00009F499CF482D930169857A858B859C85B1
:1013B0008E0D9F1D0E946B038ECF2C960FB6F89456
:1013C000DEBF0FBECDBFDF91CF911F910F91FF9078
:1013D000EF90DF90CF90BF90AF909F908F907F90D5
:1013E0006F905F904F903F902F9008952F923F9273
:1013F0004F925F926F927F928F929F92AF92BF9225
:10140000CF92DF92EF92FF920F931F93CF93DF93D0
:10141000CDB7DEB72C970FB6F894DEBF0FBECDBFA9
:101420003801822E25E08202C0011124FC01EE5D0C
:10143000FE4F6F011C861B86E62EF12CA42EB12CCC
:101440002501F7E04F0E511C150126E0220E311C3C
:10145000C50105969A838983F5013496FC83EB8355
:1014600095012D5F3F4F3E832D83039798878F8390
:101470003397FA87E9871DC091FC2DC092FC36C0D6
:1014800093FC40C094FC4AC095FC54C096FC5EC0DE
:10149000000F012F001F110B012B09F068C02B85D5
:1014A0003C852F5F3F4F3C872B872530310509F462
:1014B00068C0F60191906F01092D10E090FEDCCF1D
:1014C000482D93016B857C856E0D7F1DC2010E94A6
:1014D0006B0391FED3CF482D93016B857C856E0DF8
:1014E0007F1DC1010E946B0392FECACF482D93015C
:1014F0006B857C856E0D7F1D89819A810E946B03AF
:1015000093FEC0CF482D93016B857C856E0D7F1DAA
:101510008B819C810E946B0394FEB6CF482D930172
:101520006B857C856E0D7F1D8D819E810E946B0376
:1015300095FEACCF482D93016B857C856E0D7F1D8C
:101540008F8198850E946B0396FEA2CF482D930150
:101550006B857C856E0D7F1D89859A850E946B0346
:10156000000F012F001F110B012B09F498CF482DFC
:1015700093016B857C856E0D7F1DC5010E946B03F9
:101580008ECF2C960FB6F894DEBF0FBECDBFDF9185
:10159000CF911F910F91FF90EF90DF90CF90BF9070
:1015A000AF909F908F907F906F905F904F903F9003
:1015B0002F900895AF92BF92CF92DF92EF92FF9259
:1015C0000F93CF93DF93EC015B016A0179018FE008
:1015D00094E00E942F06FE01EE0FFF1FE050FF4F28
:1015E000808191810E942F068BE194E00E942F065A
:1015F000C5010E9401070E942F0685E294E00E9427
:101600002F06C6010E942F06E114F10439F08FE283
:1016100094E00E942F06C7010E942F068AE00E94D4
:101620001A060111FFCFDF91CF910F91FF90EF903C
:10163000DF90CF90BF90AF9008956115710519F4B8
:1016400083E090E00895FC0120812223C9F30097F4
:10165000B9F3FA01918380837583648313821282C4
:1016600080915205882319F084E090E0089550930A
:1016700054054093530581E08093520580E090E04B
:101680000895AC0190915205292F30E021153105C4
:1016900039F060915305709154054617570719F0BA
:1016A00082E090E008952130310541F02091550508
:1016B00030915605309354052093530591509093E3
:1016C000520580E090E00895CF92DF92EF92FF9272
:1016D0000F931F93CF93DF938A01509152055523A7
:1016E00039F0E0915305F09154058E179F0759F09A
:1016F00082E090E0DF91CF911F910F91FF90EF90EA
:10170000DF90CF900895060F171FFC01448155818B
:101710004017510718F483E090E0ECCF42815381E9
:101720004F3FFFEF5F07B9F3EB0160177107A0F4BC
:101730006C017901E60EF71E03C0F6014281538168
:10174000CE01840F951F0E94F107F70181937F015D
:101750002196C017D10788F380E090E0CBCFCF92DD
:10176000DF92EF92FF920F931F93CF93DF938A0143
:1017700050915205552339F0E0915305F0915405ED
:101780008E179F0759F082E090E0DF91CF911F9173
:101790000F91FF90EF90DF90CF900895060F171FE5
:1017A000FC01448155814017510718F483E090E013
:1017B000ECCF428153814F3FFFEF5F07B9F3EB015D
:1017C00060177107A0F46C017901E60EF71E03C0E3
:1017D000F60142815381F70161917F01CE01840FAF
:1017E000951F0E94F3072196C017D10788F380E068
:1017F00090E0CBCF0F931F93CF93DF93FB0120811A
:10180000211107C083E090E0DF91CF911F910F91EC
:10181000089561157105B1F320915205222339F025
:1018200020915305309154058217930739F082E0D7
:1018300090E0DF91CF911F910F910895EB018C0102
:10184000FC01808191810E94F5078823D9F2F8017B
:10185000D183C08380E090E0D7CF81E090E008950D
:101860000F9381110AC09B0101E043EB54E06AE74A
:1018700070E087E090E00E94DA0A0F9108950F93DC
:10188000009781F0FC01EE0FFF1FEE5EFE4F2081FE
:10189000318101E043EB54E060E870E088E090E0E3
:1018A0000E94DA0A0F910895CF93DF938230910559
:1018B00008F46EC0E0915505F09156053097B1F1EE
:1018C00040E050E0A0E0B0E001C0F90120813181AA
:1018D0002817390768F08217930709F44FC041159C
:1018E000510519F02417350718F4A901BD01EF01BE
:1018F00022813381DF012115310539F74115510569
:10190000A9F0481B590B4430510508F044C08A81A6
:101910009B816115710509F460C0FB01938382838B
:10192000FE013296CF01DF91CF910895E0915705E6
:10193000F0915805309709F447C020911C0130916F
:101940001D0121153105B9F1E217F30788F52E1BAA
:101950003F0B2817390760F1AC014E5F5F4F24172A
:10196000350730F14E0F5F1F5093580540935705D0
:1019700081939193CF01DF91CF91089582819381DB
:10198000109789F113969C938E9312973296CACF33
:1019900082E090E08FCFFE01E40FF51F81939193D9
:1019A0004250510959834883CF01DF91CF91089567
:1019B000E0E0F0E0DFCF2DB73EB74091200150913D
:1019C0002101241B350BC0CFE0911E01F0911F01B6
:1019D000F0935805E0935705B0CF90935605809348
:1019E0005505FE019ECF909356058093550532967E
:1019F00099CF0F931F93CF93DF93009709F44AC0B9
:101A00008C0102501109E8011B821A82A091550530
:101A1000B0915605109709F467C0A017B10708F0F8
:101A200081C01296ED91FC911397309709F495C0FF
:101A3000AD0101C0F901E017F10788F5228133817A
:101A4000AF0121153105B1F713830283EF0129910D
:101A50003991CE01820F931F0817190709F454C05A
:101A6000E0E0F0E002C0FD01DC0112968D919C9156
:101A700013970097C1F78D919C9111979D012E5F4F
:101A80003F4F820F931F209157053091580528171B
:101A90003907E1F0DF91CF911F910F910895E8018F
:101AA000FB83EA8328813981820F931FE817F907A6
:101AB00009F443C0FA01452B39F6109356050093FB
:101AC0005505DF91CF911F910F910895309709F43B
:101AD00046C013821282B0935805A0935705DF9138
:101AE000CF911F910F91089528813981820F931F03
:101AF000209157053091580528173907F1F61093B2
:101B0000580500935705C6CFE80188819981280FB1
:101B1000391F2E5F3F4F318320838A819B819383BE
:101B200082839ECFBB83AA8328813981820F931F32
:101B3000A817B90711F640E050E0FC0160817181FF
:101B40006E5F7F4F260F371FE8013983288382811C
:101B500093819B838A83FA01AECFFD0175CF1092EA
:101B6000560510925505B7CFCF92DF92EF92FF92B4
:101B70000F93CF937C01C62F6A01892BB1F0C1145A
:101B8000D10461F06C2F70E0A601C701CF910F91D5
:101B9000FF90EF90DF90CF900C94E90FCF910F91D1
:101BA000FF90EF90DF90CF90089500E02BE035E0BC
:101BB00047E155E068E970E084E090E00E94DA0ACD
:101BC000DECF0F93009789F061157105D1F04115B3
:101BD000510549F0DB01FC01480F591F8D9181939C
:101BE000E417F507D9F70F91089500E02AE235E0F0
:101BF00047E155E061EA70E084E090E00E94DA0A93
:101C0000F2CF00E027E335E047E155E065EA70E018
:101C100084E090E00E94DA0AE6CFEF92FF920F9301
:101C20001F93CF93DF938C017B0186E090E00E94AD
:101C3000540CEC018DE993E00E942F06CE010E9426
:101C40004F0683EC93E00E943E06F982E8821B82F5
:101C50001A821D821C82D80114968D919C91159731
:101C60000097C1F0D8011296ED91FC911397D383A0
:101C7000C283FD83EC831396DC93CE931297019677
:101C8000F80195838483DF91CF911F910F91FF908D
:101C9000EF9008951196DC93CE931396DC93CE9338
:101CA0001297EDCFCF93DF93CDB7DEB72C970FB65A
:101CB000F894DEBF0FBECDBF0E945F0380E895E2BF
:101CC0000E94FF0518861F821C861B868FEF9FEFE0
:101CD0009A878987AE01495F5F4F6CE070E080EBC7
:101CE00093E00E941D0B8CE090E00E94540C8C014C
:101CF0009C014CE050E060E070E0CE0107960E944D
:101D0000640BC8010E943E068CE090E00E94540CD7
:101D10007C014CE050E065EB73E00E94E10DC701EF
:101D20000E942F0681EC93E00E942F068FE090E046
:101D30000E94540C8C014FE050E064EC73E00E9470
:101D4000E10DC8010E942F0681EC93E00E942F064E
:101D5000C7010E94F90CC8010E94F90C81EC93E0C4
:101D60000E942F0683ED93E00E942F061A821982AB
:101D70001C821B821E821D8261E070E0CE010196F2
:101D80000E940D0E62E070E0CE0101960E940D0EE1
:101D900099818A812D813E81121613060CF0ADC007
:101DA000E92FF82F23E030E0318320832D813E811D
:101DB000121613060CF09EC0E92FF82F8081918136
:101DC0000E9401070E942F06E981FA818D819E8180
:101DD00002970CF48CC00280F381E02D8081918108
:101DE0000E9401070E942F0682EC93E00E942F06BA
:101DF0008D819E810E9401070E942F0682EC93E054
:101E00000E942F068D819E81009709F058C00E9484
:101E100001070E942F068D819E810097C1F50E94C7
:101E200001070E942F0682EC93E00E942F068D810D
:101E30009E810E944F06E12CF12C00E010E020E092
:101E400030E04FE1B801C7010E946B030F5F1F4FE5
:101E500000381105A1F78FEFE81AF80AE11481E0C4
:101E6000F80659F70FE11FE32FE14AE06AE081EE3F
:101E700093E00E9418082FE144E16AE087EE93E0C6
:101E80000E9418088CEE93E00E942F06FFCFEB8192
:101E9000FC8100811181A481B581BC83AB83109743
:101EA00021F013961C921E921297CF010E94F90CFA
:101EB0008D819E8101979E838D83C801B0CFEB8178
:101EC000FC8100811181A481B581BC83AB83109713
:101ED00021F013961C921E921297CF010E94F90CCA
:101EE0008D819E8101979E838D83C80190CFE0E014
:101EF000F0E074CFE0E0F0E061CFE0E0F0E052CF5E
:101F000097FB072E16F4009407D077FD09D00E94A6
:101F1000B30F07FC05D03EF4909581959F4F08952F
:101F2000709561957F4F0895052E97FB1EF40094E0
:101F30000E94AB0F57FD07D00E94C70F07FC03D0CC
:101F40004EF40C94AB0F50954095309521953F4F32
:101F50004F4F5F4F089590958095709561957F4F95
:101F60008F4F9F4F0895AA1BBB1B51E107C0AA1FAB
:101F7000BB1FA617B70710F0A61BB70B881F991F2A
:101F80005A95A9F780959095BC01CD010895A1E2DD
:101F90001A2EAA1BBB1BFD010DC0AA1FBB1FEE1FE3
:101FA000FF1FA217B307E407F50720F0A21BB30B2E
:101FB000E40BF50B661F771F881F991F1A9469F7AA
:101FC00060957095809590959B01AC01BD01CF0106
:101FD0000895DC0101C06D9341505040E0F7089531
:041FE000F894FFCFA3
:101FE40040044F045E046A04830492049B04A40422
:101FF400AE04CA04D304E104F004FD04000059054E
:102004002000F00A0A0A10F00A0A0A10F00A0A0A62
:1020140010F00A0A0A10F00A0A0A10F00A0A0A1052
:10202400F00A0A0A10F00A0A0A10F00A0A0A10F062
:102034000A0A0A10F00A0A0A10F00A0A0A10F00A38
:102044000A0A10F00A0A0A10F00A0A0A10F00A0A28
:102054000A10F00A0A0A10F00A0A0A10F00A0A0A18
:1020640010F00A0A0A10F00A0A0A10F00A0A0A1002
:10207400F00A0A0A10F00A0A0A10F00A0A0A10F012
:102084000A0A0A10F00A0A0A10F00A0A0A10F00AE8
:102094000A0A10F00A0A0A10F00A0A0A10F00A0AD8
:1020A4000A10000000000000F6F6000000C000C0A6
:1020B4000028FE28FE281C2A2A2A18C6C81026C66C
:1020C4005CA2A25C120000C0000000384482000040
:1020D4008244380000A040A00010107C10100E0CA8
:1020E4000000001010101010060600000006081072
:1020F40020C07C8A92A27C0042FE020042868A9220
:1021040062448292926C305090FE10E2A2A2A29C91
:102114003C5292920C80809EA0C06C9292926C6011
:1021240092929478006C6C0000006E6C00008080C9
:102134009EA0C028282828286C9292926C40808AFD
:1021440090607C82BA8A787E8888887EFE92929299
:102154006C7C82828244FE8282827CFE9292928293
:10216400FE909090807C8292925CFE101010FE8211
:1021740082FE82820C020202FCFE10284482FE02CD
:10218400020202FE402040FEFE402010FE7C8282BD
:10219400827CFE909090607C828A847AFE909894EF
:1021A40062649292924C8080FE8080FC020202FC67
:1021B400F8040204F8FC020C02FCC6281028C6E449
:1021C400121212FC868A92A2C2FE82828200C0206F
:1021D40010080600828282FE2040804020FE828217
:1021E40082FEFE828282FE042A2A2A1EFE142222F3
:1021F4001C1C222222141C222214FE1C2A2A2A1805
:10220400207EA08040102A2A2A3CFE2020201E0086
:1022140022BE0200040202BC00FE0808142200824E
:10222400FE02003E203E201E3E1020201E1C2222C4
:10223400221C3E24242418182424243E3E1020204A
:1022440010122A2A2A04207C2202043C0202023CA4
:1022540038040204383C020C023C221408142220E4
:10226400120C102022262A322200106C8200000058
:10227400FE000000826C10003040201060616C6C25
:102284006F636174696E67206D656D6F72790A00A2
:1022940074657374006C6F6C6F6C6F6C6F6C6F6CC7
:1022A400000A0A0054657374206465206D616C6CC7
:1022B4006F630054657374696E67206C6973740A84
:1022C4000051756F693F00466575720054657374FB
:1022D400696E67204F530A00494E54370A00496E0D
:1022E400697469616C697A696E672E2E2E0A0045DD
:1022F4007863657074696F6E3A2000206174206C95
:10230400696E65200020696E2066696C6520002076
:1023140077697468206D6573736167653A200A0094
:10232400446976696465206279207A65726F004930
:102334006E76616C6964206F70636F6465005374BA
:1023440061636B206661756C740047656E657261CC
:102354006C2070726F74656374696F6E206661754A
:102364006C7400417267756D656E74206572726F6E
:1023740072005365637572697479004F766572668D
:102384006C6F7700417373657274696F6E00466990
:102394006C6500426173654C69622F46696C6553D4
:1023A400797374656D2E637070004E6F2065727260
:1023B4006F7200556E6B6E6F776E206572726F72FE
:1023C4000046696C65206E6F7420666F756E6400DC
:1023D400496E76616C69642066696C65004F75743A
:1023E400206F66206D656D6F72790070747220695C
:1023F40073206E756C6C00426173654C69622F6D5D
:10240400656D6F72792E63707000646573742069F2
:1024140073206E756C6C00737263206973206E7523
:042424006C6C0000DC
:00000001FF
