:100000000C9468000C9492000C9492000C94920052
:100010000C9492000C9492000C9492000C94920018
:100020000C9492000C9492000C9492000C94920008
:100030000C9492000C9492000C9492000C949200F8
:100040000C9492000C9492000C9492000C949200E8
:100050000C9492000C9492000C9492000C949200D8
:100060000C9492000C9492000C9492000C949200C8
:100070000C9492000C9492000C9492000C949200B8
:100080000C9492000C9492000C94920005A84CCD14
:10009000B2D44EB93836A9020C50B9918688083CC2
:1000A000A6AAAA2ABE000000803F0664EC1B3C04FE
:1000B000BC163E3BE5B93CC93C37C29E5A3D66047E
:1000C00098083EEA69AAAA3E000000803F00B124D9
:1000D00011241FBECFEFD0E1DEBFCDBF11E0A0E005
:1000E000B1E0E8ECF3E500E00BBF02C007900D9231
:1000F000A436B107D9F722E0A4E6B1E001C01D9211
:10010000AA32B207E1F710E0C8E6D0E004C02197B8
:10011000FE010E944226C736D107C9F70E94CC25AE
:100120000C94E2290C9400000895CF92DF92EF9294
:10013000FF920F931F93CF93DF93CDB7DEB72C972A
:100140000FB6F894DEBF0FBECDBFE982FA820B83F3
:100150001C832D833E834F83588769877A878B87DB
:100160009C872F89388D498D5A8D69817A818B8141
:100170009C810E94B8286B017C012B8D3C8D4D8D9C
:100180005E8D6D817E818F8198850E94B8289B014C
:10019000AC01C701B6010E944C266B017C012F8D7A
:1001A00038A149A15AA169857A858B859C850E94D1
:1001B000B8289B01AC01C701B6010E944C262C96C1
:1001C0000FB6F894DEBF0FBECDBFDF91CF911F9168
:1001D0000F91FF90EF90DF90CF900895CF92DF9234
:1001E000EF92FF920F931F93CF93DF936B017C01EC
:1001F0008901D42FC52F0E94B82687FF03C086012E
:10020000DE2DCF2DB8018D2F9C2FDF91CF911F9127
:100210000F91FF90EF90DF90CF9008952F923F9233
:100220004F925F926F927F928F929F92AF92BF9206
:10023000CF92DF92EF92FF920F931F93CF93DF93B2
:10024000CDB7DEB76E970FB6F894DEBF0FBECDBF49
:100250009A8B898BC982DA82EB82FC8249875A8722
:100260006B877C87F5011FAD21960FAD21972296F4
:100270003FAC229723962FAC239780A191A1A2A1F6
:10028000B3A18B8B9C8BAD8BBE8B44A055A066A07D
:1002900077A069817A818B819C81C984DA84EB841F
:1002A000FC8480809180A280B38089288A288B2852
:1002B00009F42BC180889188A288B38884899589A4
:1002C000A689B7898B8F9C8FAD8FBE8F808D918DC6
:1002D000A28DB38D8F8B988FA98FBA8FF0901E014E
:1002E000E0901F01D0902001C0902101212F302FDC
:1002F000432D522D6F2D7E2D8D2D9C2D0E94B328C8
:10030000181614F48701160120E030E0A9012796A1
:100310006CAD7DAD8EAD9FAD27970E94B82687FD51
:1003200035C1A301920127966CAD7DAD8EAD9FAD19
:1003300027970E94B8286B017C01A5019401612FC9
:10034000702F832D922D0E94B8282B893C894D89CE
:100350005E890E94B828A70196010E944C26209130
:10036000F8013091F9014091FA015091FB010E948E
:10037000B8284B015C012BA93CA94DA95EA9C3017A
:10038000B2010E94B8289B01AC01C501B4010E94D2
:100390004C266D877E878F87988B20E030E040E881
:1003A0005FE30E94B82687FD08C080E090E0A0E8E7
:1003B000BFE38D879E87AF87B88B2B8D3C8D4D8D8E
:1003C0005E8D612F702F832D922D0E94B8282B896E
:1003D0003C894D895E890E94B828A70196010E9438
:1003E0004C262091FC013091FD014091FE0150917D
:1003F000FF010E94B8284B015C012FA938AD49AD1F
:100400005AADC301B2010E94B8289B01AC01C501DD
:10041000B4010E944C264B015C0120E030E040E832
:100420005FE30E94B82687FD06C0812C912C90E8DE
:10043000A92E9FE3B92E2F89388D498D5A8D612FB2
:10044000702F832D922D0E94B8282B893C894D89CD
:100450005E890E94B828A70196010E944C2620912F
:1004600000023091010240910202509103020E9469
:10047000B8286B017C012BAD3CAD4DAD5EADC30129
:10048000B2010E94B8289B01AC01C701B6010E94CD
:100490004C266B017C0120E030E040E85FE30E94E5
:1004A000B82687FD06C0C12CD12C80E8E82E8FE34A
:1004B000F82E8D859E85AF85B889E989FA89808374
:1004C0009183A283B38384829582A682B782C086F9
:1004D000D186E286F386CF016E960FB6F894DEBF22
:1004E0000FBECDBFDF91CF911F910F91FF90EF9085
:1004F000DF90CF90BF90AF909F908F907F906F9044
:100500005F904F903F902F90089520E030E040E8BA
:100510005EE30E94B8280E94A7274B015C0120E0FF
:1005200030E040E85EE3C701B6010E94B8280E94AF
:10053000A7276B017C01C501B4010E9434274B0140
:100540005C01C701B6010E943427DC01CB0188257C
:100550009925AA25BB25BC01CD0161707727882785
:1005600099270E946C274B015C019B01AC0160E064
:1005700070E080E89FE30E944B266B8F7C8F8D8F0D
:100580009E8F1F8A188E198E1A8EA8CE27961CAEA3
:100590001DAE1EAE1FAE2797C4CECF92DF92EF9254
:1005A000FF920F931F93CF93DF93CDB7DEB72C97B6
:1005B0000FB6F894DEBF0FBECDBF2CE0FE017796DC
:1005C000DC0101900D922A95E1F72C960FB6F89474
:1005D000DEBF0FBECDBFDF91CF911F910F91FF9076
:1005E000EF90DF90CF9008952F923F924F925F92BD
:1005F0006F927F928F929F92AF92BF92CF92DF9233
:10060000EF92FF920F931F93CF93DF93CDB7DEB797
:10061000A3970FB6F894DEBF0FBECDBFEF82F8866A
:1006200009871A872B873C874D875E876F87788B72
:10063000898B9A8B2F85388949895A892F8B388FD6
:10064000498F5A8F4B845C846D847E848F8198851A
:10065000A985BA858B8F9C8FAD8FBE8F00910801C5
:1006600010910901F80180819181A281B3818130CB
:100670009105A105B10509F468C182309105A10574
:10068000B10509F40AC1892B8A2B8B2B09F497C079
:10069000C12CD12C760120E030E0A901C701B601C0
:1006A0000E94B82687FD90C020900A0130900B016F
:1006B000F10180819181A281B38181309105A105F1
:1006C000B10509F459C282309105A105B10509F4BB
:1006D000F8C1892B8A2B8B2B09F4E5C1812C912C35
:1006E000540120E030E040E85FEBC701B6010E9412
:1006F000B826882359F0A5019401C701B6010E94CC
:10070000B32818161CF018014601570100910C017E
:1007100010910D01F80180819181A281B381813016
:100720009105A105B10509F465C182309105A105C6
:10073000B10509F45BC0892B8A2B8B2B09F448C0C7
:10074000C12CD12C760120E030E040E85FEBC50100
:10075000B4010E94B826882359F0A5019401C7016D
:10076000B6010E94B82687FD03C0810175016401AE
:10077000C982DA82EB82FC821E830D832C2D3A81A2
:100780004B815C81602F7E8180E090E0A3960FB664
:10079000F894DEBF0FBECDBFDF91CF911F910F91B7
:1007A000FF90EF90DF90CF90BF90AF909F908F9091
:1007B0007F906F905F904F903F902F9008957301BE
:1007C0006201E894F7F867CFC12CD12C76016CCF89
:1007D00073016201E894F7F820E030E0A901C70155
:1007E000B6010E94B82687FFAECFAACF2F89388DD9
:1007F000498D5A8DD8011C966D917D918D919C915A
:100800001F970E944B266B017C01A3019201F80106
:1008100060857185828593850E944B262B013C0162
:100820002B8D3C8D4D8D5E8DD80114966D917D91F3
:100830008D919C9117970E944B269B01AC010E94C1
:10084000B8286F8B788F898F9A8FA3019201C3018B
:10085000B2010E94B8289B01AC016F89788D898D07
:100860009A8D0E944C262B013C01A7019601C701DD
:10087000B6010E94B8289B01AC01C301B2010E94DD
:100880004C260E943329F801248D358D468D578DD5
:100890000E944B266B017C019FCF64857585868500
:1008A00097850E944B266B017C01A3019201F80100
:1008B00060857185828593850E944B266B8B7C8B2E
:1008C0008D8B9E8B2B8D3C8D4D8D5E8DD80114961E
:1008D0006D917D918D919C9117970E944B264B01B4
:1008E0005C012B893C894D895E89CA01B9010E944E
:1008F000B8286B8B7C8B8D8B9E8BA5019401C501D9
:10090000B4010E94B8289B01AC016B897C898D8958
:100910009E890E944C264B015C01A7019601C701EC
:10092000B6010E94B8289B01AC01C501B4010E9428
:100930004C260E943329F801248D358D468D578D24
:100940000E944B266B017C01A6CE24813581468115
:1009500057816B8D7C8D8D8D9E8D0E944B264B011A
:100960005C01E894B7F8F80120853185428553850C
:10097000C301B2010E944B266B017C01E894F7F899
:10098000D8011C962D913D914D915C911F976F89D7
:10099000788D898D9A8D0E944B269B01AC015F77E3
:1009A0002B8B3C8B4D8B5E8BA7019601C501B4014F
:1009B0000E94B32818160CF44DC12B893C894D892F
:1009C0005E89C701B6010E94B32818160CF470C1E5
:1009D000BB89AC893D88FE88F801248D358D468D14
:1009E000578D6B2F7A2F832D9F2D0E944B266B01E5
:1009F0007C0151CED80114962D913D914D915C9181
:100A000017976B8D7C8D8D8D9E8D0E944B266B0173
:100A10007C01E894F7F8F8012085318542855385FB
:100A2000C301B2010E944B262B013C01E89477F8E8
:100A3000D8011C962D913D914D915C911F976F8926
:100A4000788D898D9A8D0E944B269B01AC015F7732
:100A50002F8B388F498F5A8FA3019201C701B6019E
:100A60000E94B3282F89388D498D5A8D18160CF4A1
:100A700001C1C301B2010E94B32818160CF41CC1B5
:100A8000BF89A88D998D9B8BFA8C892FF801248DB5
:100A9000358D468D578D6B2F7A2F9F2D0E944B26BB
:100AA0006B017C0199CE53014201E894B7F820E034
:100AB00030E0A901C501B4010E94B82687FF11CE1C
:100AC0000DCE2F89388D498D5A8DD1011C966D918F
:100AD0007D918D919C911F970E944B266B8B7C8BF7
:100AE0008D8B9E8BA3019201F101608571858285BA
:100AF00093850E944B264B015C012B8D3C8D4D8DC7
:100B00005E8DD10114966D917D918D919C91179779
:100B10000E944B269B01AC010E94B8286F8F78A3DE
:100B200089A39AA3A5019401C501B4010E94B82824
:100B30009B01AC016F8D78A189A19AA10E944C26DE
:100B40004B015C012B893C894D895E89CA01B90141
:100B50000E94B8289B01AC01C501B4010E944C263B
:100B60000E943329F101248D358D468D578D0E94C9
:100B70004B264B015C019BCFD10114962D913D91E9
:100B80004D915C9117976B8D7C8D8D8D9E8D0E9404
:100B90004B264B015C01E894B7F8F10120853185C3
:100BA00042855385C301B2010E944B269B01AC01D3
:100BB0005F772F8F38A349A35AA3D1011C962D919B
:100BC0003D914D915C911F976F89788D898D9A8D9C
:100BD0000E944B269B01AC015F772B8B3C8B4D8B8E
:100BE0005E8B2F8D38A149A15AA1C501B4010E9485
:100BF000B328181604F12B893C894D895E896F8DC5
:100C000078A189A19AA10E94B32818160CF44AC0B1
:100C1000BB89AC89FD89FBA3BE888F2FF101248D90
:100C2000358D468D578D6B2F7A2F9B2D0E944B262D
:100C30004B015C013CCF2B893C894D895E89C50104
:100C4000B4010E94B328181604F5B82DA92DABA243
:100C50008A2DE4CF2B893C894D895E89C501B40179
:100C60000E94B32818160CF0B3CEB82DA92D3A2C3B
:100C7000FB2CB2CEC701B6010E94B328181664F44B
:100C8000BC2DAD2DEB8A8E2D01CFBB89AC899D8902
:100C90009BA3BE88892FC2CFBF89A88D898D8B8BDE
:100CA000FA8CF4CEBF8DA8A189A18BA3BAA0B6CF30
:100CB000BC2DAD2D3E2C90CEB42DA52D6B8AF72CDE
:100CC000862DE4CE2F923F924F925F926F927F9249
:100CD0008F929F92AF92BF92CF92DF92EF92FF924C
:100CE0000F931F93CF93DF93CDB7DEB7CF56D109C4
:100CF0000FB6F894DEBF0FBECDBFAE969FAF8EAFDE
:100D0000AE97CDA2DEA2EFA2F8A609A71AA72BA73D
:100D10003CA74DA75EA76FA778ABC057DF4F2881D0
:100D200039814A815B81C059D040AC962CAF3DAF30
:100D30004EAF5FAFAC9757FD93C78DA19EA1AFA1FA
:100D4000B8A589AF9AAFABAFBCAF29A53AA54BA563
:100D50005CA529AB3AAB4BAB5CAB8DA59EA5AFA513
:100D6000B8A98DAB9EABAFABB8AFCC57DF4F2881E6
:100D700039814A815B81C458D040A4962CAF3DAFE5
:100D80004EAF5FAFA497C857DF4F88819981AA8182
:100D9000BB81C858D040A0968CAF9DAFAEAFBFAF5F
:100DA000A097C457DF4F288139814A815B81CC5895
:100DB000D0406C962CAF3DAF4EAF5FAF6C9780913B
:100DC000160190911701A0911801B0911901A896F0
:100DD0008CAF9DAFAEAFBFAFA8979DEB22969FAFF4
:100DE0002297A7E32A96AFAF2A97B6E82E96BFAF11
:100DF0002E97E5E36296EFAF62972091080130915C
:100E0000090127963FAF2EAF279720900A01309017
:100E10000B0100910C0110910D01F90152C167966F
:100E20002FAE679768963FAE6897F10180819181F8
:100E3000A281B38181309105A105B10509F4AFC24A
:100E400082309105A105B10509F440C2892B8A2B96
:100E50008B2B09F42BC2C12CD12C760120E030E081
:100E600040E85FEBC301B2010E94B8268823B1F0CD
:100E7000A3019201C701B6010E94B82687FD0EC0EA
:100E80002696FFAD26976796FFAF679727962FADFB
:100E9000279768962FAF6897730162011EAF0DAF59
:100EA000F80180819181A281B38181309105A105F2
:100EB000B10509F498C182309105A105B10509F485
:100EC00035C1892B8A2B8B2B09F420C1412C512C45
:100ED000320120E030E040E85FEBC701B6010E943C
:100EE000B826882391F0A7019601C301B2010E94A0
:100EF000B82687FD0AC06796BFAD6797BDAF6896F5
:100F0000EFAD6897EEAF26013701A301920122965B
:100F10006FAD22972A967FAD2A972E968FAD2E978A
:100F200062969FAD62970E94B32887FD0CC0A89679
:100F30002CAD3DAD4EAD5FADA897C301B2010E948F
:100F4000B82687FD25C42091E4013091E501409148
:100F5000E6015091E7016DA97EA98FA998AD0E9485
:100F60004B264B015C012091E0013091E101409161
:100F7000E2015091E30169A97AA98BA99CA90E9479
:100F80004B266B017C012091DC013091DD01409109
:100F9000DE015091DF0169AD7AAD8BAD9CAD0E9451
:100FA0004B269B01AC010E94B82825966CAF7DAF03
:100FB0008EAF9FAF2597A7019601C701B6010E948A
:100FC000B8289B01AC0125966CAD7DAD8EAD9FAD73
:100FD00025970E944C266B017C01A5019401C50157
:100FE000B4010E94B8289B01AC01C701B6010E9460
:100FF0004C269B01AC0160911A0170911B018091FC
:101000001C0190911D010E94B82687FD6FC324EA40
:1010100030E74DE75FE3C301B2010E94B8286B01DE
:101020007C01A4962CAD3DAD4EAD5FADA4970E9462
:10103000B8289B01AC0169AD7AAD8BAD9CAD0E9427
:101040004C2669AF7AAF8BAF9CAFA0962CAD3DAD6F
:101050004EAD5FADA097C701B6010E94B8289B01B5
:10106000AC0169A97AA98BA99CA90E944C2669ABFD
:101070007AAB8BAB9CAB6C962CAD3DAD4EAD5FAD02
:101080006C97C701B6010E94B8289B01AC016DA9FD
:101090007EA98FA998AD0E944C266DAB7EAB8FAB1D
:1010A00098AF22964FAE22972A965FAE2A972E9639
:1010B0006FAE2E9762967FAE62972796EEADFFAD2C
:1010C000279780819181A281B38181309105A1050B
:1010D000B10509F422C282309105A105B10509F4D8
:1010E000BDC1892B8A2B8B2B09F473C2412C512C47
:1010F000320120E030E0A901C301B2010E94B8260C
:1011000087FF8DCE412C512C320189CE49A85AA897
:101110006BA87CA8E89477F820E030E0A901C3012F
:10112000B2010E94B82687FFD4CED0CE2DA93EA909
:101130004FA958ADF80164857585868597850E940D
:101140004B262B013C0129A93AA94BA95CA9D8013E
:1011500018966D917D918D919C911B970E944B26C5
:101160004B015C0129AD3AAD4BAD5CADF80164813A
:101170007581868197810E944B269B01AC010E945C
:10118000B82866966CAF7DAF8EAF9FAF6697A5010E
:101190009401C501B4010E94B8289B01AC01669678
:1011A0006CAD7DAD8EAD9FAD66970E944C264B0118
:1011B0005C01A3019201C301B2010E94B8289B0106
:1011C000AC01C501B4010E944C260E943329D8010C
:1011D0005C962D913D914D915C915F970E944B26BD
:1011E0002B013C0199CFD80114962D913D914D9141
:1011F0005C91179769AD7AAD8BAD9CAD0E944B2683
:101200004B015C01E894B7F8F801208531854285EF
:10121000538569A97AA98BA99CA90E944B262B0109
:101220003C01E89477F8D8011C962D913D914D91A1
:101230005C911F976DA97EA98FA998AD0E944B263E
:101240009B01AC015F7766962CAF3DAF4EAF5FAFB1
:101250006697A3019201C501B4010E94B328669666
:101260002CAD3DAD4EAD5FAD669718160CF0C8C104
:10127000C501B4010E94B32818160CF001C2AF9644
:101280008FAEAF97E0969FAEE097FA2DEB2DB401AD
:10129000D8015C962D913D914D915C915F978F2F78
:1012A0009E2F0E944B262B013C0136CFC9A8DAA8FD
:1012B000EBA8FCA8E894F7F820E030E0A901C7010A
:1012C000B6010E94B82687FFC9CDC5CD2DA93EA97C
:1012D0004FA958ADF10164857585868597850E9473
:1012E0004B266B017C0129A93AA94BA95CA9D10124
:1012F00018966D917D918D919C911B970E944B2624
:1013000021966CAF7DAF8EAF9FAF219729AD3AADDF
:101310004BAD5CADF10164817581868197810E943E
:101320004B264B015C0121962CAD3DAD4EAD5FAD22
:101330002197CA01B9010E94B82821966CAF7DAFF0
:101340008EAF9FAF2197A5019401C501B4010E9402
:10135000B8289B01AC0121966CAD7DAD8EAD9FADE3
:1013600021970E944C264B015C01A7019601C70101
:10137000B6010E94B8289B01AC01C501B4010E94CE
:101380004C260E943329D1015C962D913D914D91BF
:101390005C915F970E944B266B017C018DCFF10120
:1013A000248135814681578169AD7AAD8BAD9CAD85
:1013B0000E944B264B015C01E894B7F8D1011896C6
:1013C0002D913D914D915C911B9769A97AA98BA9AB
:1013D0009CA90E944B266B017C01E894F7F8F1016F
:1013E00024853585468557856DA97EA98FA998AD39
:1013F0000E944B269B01AC015F7721962CAF3DAF3D
:101400004EAF5FAF2197A5019401C701B6010E94BD
:10141000B82687FF18C1A501940121966CAD7DAD5A
:101420008EAD9FAD21970E94B82687FF3DC1639680
:101430008FAE6397AF969FAEAF97FA2DEB2DB401A9
:10144000D1015C962D913D914D915C915F978F2FCD
:101450009E2F0E944B266B017C012ECF2DA93EA909
:101460004FA958AD64857585868597850E944B2662
:101470006B017C0129A93AA94BA95CA92796EEAD7D
:10148000FFAD279760857185828593850E944B26E5
:101490002B013C0129AD3AAD4BAD5CAD2796AEAD0D
:1014A000BFAD279714966D917D918D919C91179763
:1014B0000E944B264B015C01A3019201C301B201C2
:1014C0000E94B8282B013C01A5019401C501B4017B
:1014D0000E94B8289B01AC01C301B2010E944C26B6
:1014E0004B015C01A7019601C701B6010E94B82813
:1014F0009B01AC01C501B4010E944C260E94332916
:101500002796EEADFFAD2797248D358D468D578DEF
:101510000E944B262B013C01ECCD24813581468174
:10152000578169AD7AAD8BAD9CAD0E944B264B01C6
:101530005C01E894B7F82796EEADFFAD27972085BC
:1015400031854285538569A97AA98BA99CA90E94F6
:101550004B266B017C01E894F7F82796AEADBFAD42
:1015600027971C962D913D914D915C911F976DA9E8
:101570007EA98FA998AD0E944B262B013C01E894CF
:1015800077F8A5019401C701B6010E94B82687FF2C
:1015900027C0A5019401C301B2010E94B82687FFAC
:1015A00027C08DAE63969FAE6397FA2DEB2DB401E5
:1015B0002796AEADBFAD27975C962D913D914D918D
:1015C0005C915F978F2F9E2F0E944B262B013C0131
:1015D00090CD49A85AA86BA87CA8E89477F889CD43
:1015E000A7019601C301B2010E94B82687FD23C05E
:1015F0004DAE63965FAE6397F62DE72DB201D8CF5F
:10160000C301B2010E94B32818160CF465C063969A
:10161000AFAD6397AF96AFAFAF976496BFAD64972A
:10162000E096BFAFE0976596FFAD65976696EFAD24
:101630006697BD012DCECDAE6396DFAE6397FE2DCE
:10164000EF2DB601B5CFA701960121966CAD7DAD0A
:101650008EAD9FAD21970E94B82687FD33C0BDADEA
:101660006396BFAF6397EEADAF96EFAFAF97FFADA9
:101670002196EFAD21976B2FAF967FADAF97E0CE60
:1016800063968FAD6397AF968FAFAF9764969FAD1C
:101690006497E0969FAFE0976596FFAD6597669675
:1016A000EFAD6697BC01F4CD8DAD63968FAF6397B8
:1016B0009EADAF969FAFAF97FFAD2196EFAD21974F
:1016C000BC01BECE6396CFAE6397AF96DFAEAF9749
:1016D000FE2DEF2DB601B4CEAF964FAEAF97E0968C
:1016E0005FAEE097F62DE72DB201D2CD8CE0E4E0BD
:1016F000F2E0DE01599601900D928A95E1F7A896E5
:101700002CAD3DAD4EAD5FADA897C301B2010E94B7
:10171000B82687FD3DC08091040190910501A091FC
:101720000601B0910701AC962CAD3DAD4EAD5FAD5D
:10173000AC97281739074A075B0709F49AC28CE06F
:10174000FE017996AE96AEADBFADAE9701900D920B
:101750008A95E1F7AE968EAD9FADAE97C159DF4F3A
:101760000FB6F894DEBF0FBECDBFDF91CF911F91B2
:101770000F91FF90EF90DF90CF90BF90AF909F9030
:101780008F907F906F905F904F903F902F90089533
:10179000EDADFEAD80819181A281B3818130910553
:1017A000A105B10509F4FAC182309105A105B10581
:1017B00009F4A0C2892B8A2B8B2B09F46FC28CE011
:1017C000E0E1F2E0DE011D9601900D928A95E1F7CD
:1017D00029AD3AAD4BAD5CAD2DA33EA34FA358A7A9
:1017E00089A99AA9ABA9BCA989A79AA7ABA7BCA7A5
:1017F0002DA93EA94FA958AD2DA73EA74FA758AB7D
:10180000AC968CAD9DADAEADBFADAC970197A109C7
:10181000B109BF93AF939F938F934DB75EB74C5071
:1018200051090FB6F8945EBF0FBE4DBFADB7BEB73E
:1018300011968CE0FE013D9601900D928A95E1F79C
:10184000CDA0DEA0EFA0F8A409A51AA52BA53CA564
:101850004DA55EA56FA578A9CE0101960E946206EE
:101860002DA93EA94FA958AD6091F0017091F101E9
:101870008091F2019091F3010E944B264B015C0193
:1018800029A93AA94BA95CA96091EC017091ED01DD
:101890008091EE019091EF010E944B262B013C01BB
:1018A00029AD3AAD4BAD5CAD6091E8017091E901B5
:1018B0008091EA019091EB010E944B2629966CAF32
:1018C0007DAF8EAF9FAF29979B01AC010E94B828D6
:1018D0006B017C01A3019201C301B2010E94B828EF
:1018E00025966CAF7DAF8EAF9FAF2597A501940174
:1018F000C501B4010E94B8282D966CAF7DAF8EAFA4
:101900009FAF2D9725962CAD3DAD4EAD5FAD259784
:10191000C701B6010E944C262D962CAD3DAD4EADB3
:101920005FAD2D970E944C260E9433296B017C01EC
:101930009B01AC0129966CAD7DAD8EAD9FAD299715
:101940000E94C22629966CAF7DAF8EAF9FAF2997BC
:10195000A7019601C301B2010E94C22625966CAF71
:101960007DAF8EAF9FAF2597A7019601C501B4014A
:101970000E94C2262D966CAF7DAF8EAF9FAF2D9784
:10198000A4962CAD3DAD4EAD5FADA497CA01B90193
:101990000E94B8286B017C01A0962CAD3DAD4EADE8
:1019A0005FADA097CA01B9010E94B8284B015C0144
:1019B0006C962CAD3DAD4EAD5FAD6C97CA01B901D3
:1019C0000E94B8282B013C01A5019401C701B60172
:1019D0000E944C26A30192010E944C260E943329AA
:1019E0004B015C019B01AC01A4966CAD7DAD8EAD4D
:1019F0009FADA4970E94C22629962CAD3DAD4EAD59
:101A00005FAD29970E94B8286B017C01A501940164
:101A1000A0966CAD7DAD8EAD9FADA0970E94C22605
:101A200025962CAD3DAD4EAD5FAD25970E94B828F3
:101A30009B01AC01C701B6010E944C266B017C01E1
:101A4000A50194016C966CAD7DAD8EAD9FAD6C978C
:101A50000E94C2262D962CAD3DAD4EAD5FAD2D97AB
:101A60000E94B8289B01AC01C701B6010E944C2618
:101A70001B018C010FB6F894DEBF0FBECDBFEDADDC
:101A8000FEAD80819181A281B38181309105A10554
:101A9000B10509F49DC282309105A105B10509F493
:101AA00022C2892B8A2B8B2B09F418C1409010027B
:101AB00050901102609012027090130280901402F4
:101AC00090901502A0901602B0901702C0901802D4
:101AD000D0901902E0901A02F0901B021F930F930E
:101AE0003F922F9229962CAD3DAD4EAD5FAD29971B
:101AF000C301B2010E94B8282B013C01A501940149
:101B000025966CAD7DAD8EAD9FAD25970E94B82812
:101B10009B01AC01C301B2010E944C264B015C0148
:101B2000A70196012D966CAD7DAD8EAD9FAD2D9725
:101B30000E94B8289B01AC01C501B4010E944C264B
:101B40009F938F937F936F93EDB7FEB73C970FB63C
:101B5000F894FEBF0FBEEDBFADB7BEB711968CE0D7
:101B6000FE01319601900D928A95E1F7ADACBEACC5
:101B7000CDA0DEA0EFA0F8A409A51AA52BA53CA531
:101B80004DA55EA56FA578A9CE0149960E940E01CC
:101B90000FB6F894DEBF0FBECDBFBDCD2481358119
:101BA0004681578169AD7AAD8BAD9CAD0E944B26C5
:101BB0004B015C01E894B7F8EDADFEAD20853185B1
:101BC0004285538569A97AA98BA99CA90E944B26B5
:101BD0002B013C01E89477F8ADADBEAD1C962D917C
:101BE0003D914D915C911F976DA97EA98FA998ADEC
:101BF0000E944B266B017C01E894F7F8A301920147
:101C0000C501B4010E94B328A701960118160CF073
:101C100067C2C501B4010E94B32818160CF067C250
:101C2000A4968CAD9DADAEADBFADA497B0588D87D9
:101C30009E87AF87B88BA0962CAD3DAD4EAD5FAD06
:101C4000A097298B3A8B4B8B5C8B6C968CAD9DADA2
:101C5000AEADBFAD6C978D8B9E8BAF8BB88FB8CD73
:101C6000DC018CE0E0E1F2E001900D928A95E1F771
:101C700071CD8CE0FE017996DE01119601900D92F6
:101C80008A95E1F78CE0FE013196AE96AEADBFAD20
:101C9000AE9701900D928A95E1F75CCDA4962CAD9C
:101CA0003DAD4EAD5FADA4972D873E874F87588BD6
:101CB000A0968CAD9DADAEADBFADA097B058898B51
:101CC0009A8BAB8BBC8B6C968CAD9DADAEADBFAD26
:101CD0006C978D8B9E8BAF8BB88F7ACDC12CD12C0E
:101CE0007601812C912C90E8A92E9FE3B92E260134
:101CF0003701F4CE24853585468557856DA97EA9A3
:101D00008FA998AD0E944B2629966CAF7DAF8EAF00
:101D10009FAF2997EDADFEAD208531854285538576
:101D200069A97AA98BA99CA90E944B262B013C0189
:101D3000ADADBEAD14962D913D914D915C9117972F
:101D400069AD7AAD8BAD9CAD0E944B264B015C0119
:101D50009B01AC010E94B8286B017C01A301920198
:101D6000C301B2010E94B82825966CAF7DAF8EAF3B
:101D70009FAF259729962CAD3DAD4EAD5FAD299710
:101D8000CA01B9010E94B8282D966CAF7DAF8EAF05
:101D90009FAF2D9725962CAD3DAD4EAD5FAD2597F0
:101DA000C701B6010E944C262D962CAD3DAD4EAD1F
:101DB0005FAD2D970E944C260E9433296B017C0158
:101DC0009B01AC01C501B4010E94C2264B015C011C
:101DD000A7019601C301B2010E94C2262B013C015A
:101DE000A701960129966CAD7DAD8EAD9FAD29976B
:101DF0000E94C22629966CAF7DAF8EAF9FAF299708
:101E0000A4962CAD3DAD4EAD5FADA497C501B40118
:101E10000E94B8286B017C01A0962CAD3DAD4EAD63
:101E20005FADA097C301B2010E94B8289B01AC012D
:101E3000C701B6010E944C266B017C016C962CAD4B
:101E40003DAD4EAD5FAD6C9729966CAD7DAD8EAD61
:101E50009FAD29970E94B8289B01AC01C701B6012C
:101E60000E944C2620E030E040E050EC0E94B82870
:101E70006B017C01A50194010E94B828A4962CADA9
:101E80003DAD4EAD5FADA4970E944C266D877E8719
:101E90008F87988BA3019201C701B6010E94B828D1
:101EA000A0962CAD3DAD4EAD5FADA0970E944C26E7
:101EB000698B7A8B8B8B9C8B29962CAD3DAD4EAD6F
:101EC0005FAD2997C701B6010E94B8286C962CAD6A
:101ED0003DAD4EAD5FAD6C970E944C266D8B7E8BF9
:101EE0008F8B988F75CC24853585468557856DA950
:101EF0007EA98FA998AD0E944B266DAB7EAB8FABB0
:101F000098AFEDADFEAD208531854285538569A939
:101F10007AA98BA99CA90E944B264B015C01ADAD0F
:101F2000BEAD14962D913D914D915C91179769AD81
:101F30007AAD8BAD9CAD0E944B262B013C019B01E1
:101F4000AC010E94B82869AB7AAB8BAB9CABA50106
:101F50009401C501B4010E94B82869AF7AAF8BAF74
:101F60009CAF2DA93EA94FA958ADCA01B9010E9445
:101F7000B8286B017C0129AD3AAD4BAD5CAD69A9C8
:101F80007AA98BA99CA90E944C26A70196010E94C0
:101F90004C260E9433296B017C019B01AC01C301DB
:101FA000B2010E94C2262B013C01A7019601C50186
:101FB000B4010E94C2264B015C01A70196016DA9E4
:101FC0007EA98FA998AD0E94C2266B017C0186CDA7
:101FD00024853585468557856DA97EA98FA998AD3D
:101FE0000E944B266DAB7EAB8FAB98AFEDADFEADD7
:101FF000208531854285538569A97AA98BA99CA939
:102000000E944B2661966CAF7DAF8EAF9FAF6197FC
:10201000ADADBEAD14962D913D914D915C9117974C
:1020200069AD7AAD8BAD9CAD0E944B264B015C0136
:102030002B013C01E89477F861962CAD3DAD4EAD97
:102040005FAD61975F7729AB3AAB4BAB5CABCDA88B
:10205000DEA8EFA8F8ACE894F7F8C301B2010E943B
:10206000B328A70196011816DCF4C301B2010E943F
:10207000B3281816F4F420E030E0A901C501B4013A
:102080000E94B82687FD53C0412C512C40E8642E95
:102090004FE3742EC12CD12C7601460157011ECD81
:1020A00069A97AA98BA99CA90E94B32818160CF4D7
:1020B0004CC020E030E0A9016DA97EA98FA998ADA0
:1020C0000E94B82687FD3AC0C12CD12C20E8E22E10
:1020D0002FE3F22E812C912C540124013501FECCEA
:1020E000C301B2010E94B32818160CF4D7CDA496F0
:1020F0008CAD9DADAEADBFADA4978D879E87AF87EC
:10210000B88BA0962CAD3DAD4EAD5FADA097298BA1
:102110003A8B4B8B5C8B6C968CAD9DADAEADBFADF1
:102120006C97B0588D8B9E8BAF8BB88F51CB412C59
:10213000512C60E8662E6FEB762EACCFC12CD12CE3
:1021400080E8E82E8FEBF82EC5CF20E030E0A90123
:1021500061966CAD7DAD8EAD9FAD61970E94B82646
:1021600087FD0CC0812C912C30E8A32E3FE3B32EC9
:10217000C12CD12C760126013701B0CC812C912CB9
:1021800050E8A52E5FEBB52EF3CF2F923F924F92E2
:102190005F926F927F928F929F92AF92BF92CF92F7
:1021A000DF92EF92FF920F931F93CF93DF93CDB700
:1021B000DEB72D970FB6F894DEBF0FBECDBF6A8392
:1021C0007B838C839D8349015A0120E030E048EFF6
:1021D00051E46AA17BA18CA19DA10E94B8280E9414
:1021E00034276E837F838887998720E030E04CE72F
:1021F00052E46EA17FA188A599A50E94B8280E94EB
:1022000034276B017C0120E030E048EF51E46AA5FF
:102210007BA58CA59DA50E94B8280E9434276A87BB
:102220007B878C879D878091000190910101A0910F
:102230000201B09103010A811B812C813D81080FAD
:10224000191F2A1F3B1F4A805B806C807D804016CF
:102250005106620673060CF096C0B301A2014F3F0F
:1022600051056105710511F00CF08DC012012301BB
:102270004A855B856C857D85EBE0440F551F661FA5
:10228000771FEA95D1F7CC0CDD1CEE1CFF1CCC0CA3
:10229000DD1CEE1CFF1CCC0CDD1CEE1CFF1CCC0C52
:1022A000DD1CEE1CFF1CCC0CDD1CEE1CFF1C4C29A5
:1022B0005D296E817F81642B752B672E66946694F1
:1022C0006694AB0156954795529542954F704527B8
:1022D0005F704527E42FEF737E2E462F4F714983A1
:1022E000B501A401480F591F6A1F7B1F841695066C
:1022F000A606B706BCF580E888169104A104B104CF
:102300008CF581017501640106C0E0E8CE16D104A8
:10231000E104F104F9F02981372D462DB601C801F9
:102320000E9424202FEFC21AD20AE20AF20A8091F8
:10233000000190910101A0910201B0910301B5014A
:10234000A401480F591F6A1F7B1FC416D506E60655
:10235000F706DCF20A811B812C813D81080F191FD1
:102360002A1F3B1F8FEF281A380A480A580A2016DE
:102370003106420653063CF4211481E0380641043C
:10238000510409F0B3CF2D960FB6F894DEBF0FBEFF
:10239000CDBFDF91CF911F910F91FF90EF90DF9014
:1023A000CF90BF90AF909F908F907F906F905F90F5
:1023B0004F903F902F9008952F923F924F925F92AF
:1023C0006F927F928F929F92AF92BF92CF92DF9245
:1023D000EF92FF920F931F93CF93DF93CDB7DEB7AA
:1023E000E8970FB6F894DEBF0FBECDBF69A77AA7F6
:1023F0008BA79CA72DA73EA74FA758ABC090F40171
:10240000D090F501E090F601F090F70120912201C3
:10241000309123014091240150912501C701B6015B
:102420000E94B8284B015C0120E030E040E85BE30B
:1024300069A57AA58BA59CA50E94B82820E030E06C
:1024400040E05FE30E944B269B01AC01C501B40153
:102450000E94B8282B013C0120E030E040E05CE322
:102460006DA57EA58FA598A90E94B82820E030E030
:1024700040E05FE30E944B26A701960150580E945E
:10248000B82869AB7AAB8BAB9CAB80900E01909077
:102490000F01A0901001B0901101C501B4010E947C
:1024A000BD266D8F7E8F8F8F98A3C501B4010E94CA
:1024B000252969A37AA38BA39CA3809012019090F5
:1024C0001301A0901401B0901501C501B4010E9440
:1024D000BD266B017C01C501B4010E9425296DA3B5
:1024E0007EA38FA398A729A13AA14BA15CA169A9BA
:1024F0007AA98BA99CA90E94B8286DAB7EAB8FAB43
:1025000098AF6D8D7E8D8F8D98A19058A701960103
:102510000E94B8284B015C01C301B20190582DA163
:102520003EA14FA158A50E94B828698F7A8F8B8F42
:102530009C8F2DA93EA94FA958ADC701B6010E9495
:10254000B8289B01AC01698D7A8D8B8D9C8D0E9482
:102550004C26A50194010E944C26698F7A8F8B8F9F
:102560009C8F2D8D3E8D4F8D58A169A97AA98BA97D
:102570009CA90E94B82829A13AA14BA15CA10E9464
:102580004C266D8F7E8F8F8F98A3A7019601C30174
:10259000B2010E94B8286B017C012DA93EA94FA968
:1025A00058AD6DA17EA18FA198A50E94B8289B016E
:1025B000AC01C701B6010E944C26A50194010E94FE
:1025C0004C266B017C019B01AC010E94B8282B01B9
:1025D0003C012D8D3E8D4F8D58A1CA01B9010E943D
:1025E000B82869A37AA38BA39CA3298D3A8D4B8D20
:1025F0005C8DCA01B9010E94B8284B015C0129A178
:102600003AA14BA15CA1C301B2010E944C26A501D5
:1026100094010E944C260E9433294B015C019B01CE
:10262000AC01C701B6010E94C2266D877E878F87E5
:10263000988BA50194016D8D7E8D8F8D98A10E9440
:10264000C226698B7A8B8B8B9C8BA5019401698D3B
:102650007A8D8B8D9C8D0E94C2266D8B7E8B8F8B8D
:10266000988F809107018F93809106018F938091BD
:1026700005018F93809104018F930DB71EB70C5005
:1026800011090FB6F8941EBF0FBE0DBFADB7BEB790
:1026900011968CE0FE013D9601900D928A95E1F72E
:1026A000C090DC01D090DD01E090DE01F090DF0110
:1026B0000091E0011091E1012091E2013091E301EC
:1026C0004091E4015091E5016091E6017091E701CC
:1026D000CE0101960E9462066DA57EA58FA598A9E0
:1026E0000E9434272B013C0169A57AA58BA59CA5E6
:1026F0000E9434276D8F7E8F8F8F98A320E030E06B
:1027000048EF51E469817A818B819C810E94B828CD
:102710000E9434274B015C0120E030E04CE752E49A
:102720006D817E818F8198850E94B8280E94342710
:102730006B017C0120E030E048EF51E469857A8547
:102740008B859C850E94B8280E943427AB01BC0170
:102750008091000190910101A0910201B0910301CB
:102760008DA39EA3AFA3B8A70D8D1E8D2F8D38A16D
:10277000080F191F2A1F3B1F09A31AA32BA33CA351
:102780000FB6F894DEBF0FBECDBF8D8D9E8DAF8D81
:10279000B8A109A11AA12BA13CA180179107A207FA
:1027A000B3070CF095C08F3F9105A105B10511F05D
:1027B0000CF08EC0D901C8012BE0440F551F661FD5
:1027C000771F2A95D1F7CC0CDD1CEE1CFF1CCC0C1E
:1027D000DD1CEE1CFF1CCC0CDD1CEE1CFF1CCC0C0D
:1027E000DD1CEE1CFF1CCC0CDD1CEE1CFF1C4C2960
:1027F0005D29BA0168297929272E269426942694E2
:10280000AB0156954795529542954F7045275F709D
:102810004527242F2F73322E062F0F71098F8D8C91
:102820009E8CAF8CB8A04DA15EA16FA178A5440D80
:10283000551D661D771D4416550666067706BCF5C0
:1028400010E841165104610471048CF58401730190
:10285000620106C020E8C216D104E104F104F9F0D7
:10286000298D332D422DB601C8010E9424202FEF5F
:10287000C21AD20AE20AF20A809100019091010183
:10288000A0910201B0910301B301A201480F591FA9
:102890006A1F7B1FC416D506E606F706DCF20D8D0F
:1028A0001E8D2F8D38A1800F911FA21FB31F1FEF08
:1028B000811A910AA10AB10A88169906AA06BB06CE
:1028C0003CF4811411E09106A104B10409F0B3CFE6
:1028D000E8960FB6F894DEBF0FBECDBFDF91CF9163
:1028E0001F910F91FF90EF90DF90CF90BF90AF902E
:1028F0009F908F907F906F905F904F903F902F9020
:1029000008952F923F924F925F926F927F928F9293
:102910009F92AF92BF92CF92DF92EF92FF920F936E
:102920001F93CF93DF93CDB7DEB7C85FD1090FB642
:10293000F894DEBF0FBECDBFCF50DF4F68837983E1
:102940008A839B83C15FD040CB50DF4F288339837C
:102950004A835B83C55FD040C151DF4F1983088331
:10296000CF5ED04019821A821B821C821D821E8279
:102970001F82188619861A861B861C861D861E864F
:102980001F86188A198A1A8A1B8A1C8A1D8A1E8A1F
:102990001F8A188E198E1A8E1B8E1C8E1D8E1E8EEF
:1029A0001F8E18A219A21AA21BA21CA21DA21EA24F
:1029B0001FA218A619A61AA61BA61CA61DA61EA60F
:1029C0001FA618AA19AA1AAA1BAA1CAA1DAA1EAADF
:1029D0001FAA18AE19AE1AAE1BAE1CAE21961CAEC5
:1029E0001DAE1EAE1FAE219725961CAE1DAE1EAEAF
:1029F0001FAE259729961CAE1DAE1EAE1FAE2997A1
:102A00002D961CAE1DAE1EAE1FAE2D9761961CAE50
:102A10001DAE1EAE1FAE619765961CAE1DAE1EAEFE
:102A20001FAE659769961CAE1DAE1EAE1FAE6997B0
:102A30006D961CAE1DAE1EAE1FAE6D97A1961CAE60
:102A40001DAE1EAE1FAEA197A5961CAE1DAE1EAE4E
:102A50001FAEA597A9961CAE1DAE1EAE1FAEA997C0
:102A6000AD961CAE1DAE1EAE1FAEAD97E1961CAE70
:102A70001DAE1EAE1FAEE197E5961CAE1DAE1EAE9E
:102A80001FAEE597E9961CAE1DAE1EAE1FAEE997D0
:102A9000ED961CAE1DAE1EAE1FAEED97C358DF4FB8
:102AA000188219821A821B82CD57D040CF57DF4F30
:102AB000188219821A821B82C158D040CB57DF4F2F
:102AC000188219821A821B82C558D040C757DF4F1F
:102AD000188219821A821B82C958D040C357DF4F0F
:102AE000188219821A821B82CD58D040CF56DF4FF0
:102AF000188219821A821B82C159D040CB56DF4FEF
:102B0000188219821A821B82C559D040C756DF4FDE
:102B1000188219821A821B82C959D040C356DF4FCE
:102B2000188219821A821B82CD59D040CF55DF4FAF
:102B3000188219821A821B82C15AD040CB55DF4FAE
:102B4000188219821A821B82C55AD040C755DF4F9E
:102B5000188219821A821B82C95AD040C355DF4F8E
:102B6000188219821A821B82CD5AD040CF54DF4F6F
:102B7000188219821A821B82C15BD040CB54DF4F6E
:102B8000188219821A821B82C55BD040C754DF4F5E
:102B9000188219821A821B82C95BD040C354DF4F4E
:102BA000188219821A821B82CD5BD040009F60017F
:102BB000019FD00CD00C1124C751DF4FD982C8829D
:102BC000C95ED040CD2809F477C7B801110F880B32
:102BD000990B0E946C279B01AC0160E070E080E8DB
:102BE0009FE30E94C226C551DF4F688379838A83A1
:102BF0009B83CB5ED0408E010F5F1F4FC353DF4FCF
:102C000019830883CD5CD040212C312CC353DF4F76
:102C1000E881F981CD5CD04010821182128213824A
:102C200014821582168217821086118612861386E8
:102C3000C090F401D090F501E090F601F090F7011A
:102C4000C101C151DF4F68817981CF5ED0400E94C0
:102C5000D9258B01BC01990F880B990B0E946C2719
:102C6000C551DF4F288139814A815B81CB5ED040DD
:102C70000E94B828CF50DF4F288139814A815B817B
:102C8000C15FD0400E944C2620E030E040E85BE38A
:102C90000E94B82820E030E040E05FE30E944B262D
:102CA0004B015C01209122013091230140912401CC
:102CB00050912501C701B6010E94B8289B01AC01C3
:102CC000C501B4010E94B828C752DF4F68837983D9
:102CD0008A839B83C95DD040B801110F880B990B83
:102CE0000E946C27C551DF4F288139814A815B8161
:102CF000CB5ED0400E94B828CB50DF4F288139816D
:102D00004A815B81C55FD0400E944C2620E030E0C4
:102D100040E05CE30E94B82820E030E040E05FE360
:102D20000E944B26A701960150580E94B828C35212
:102D3000DF4F688379838A839B83CD5DD040C090C9
:102D40000E01D0900F01E0901001F0901101C70129
:102D5000B6010E94BD26CF52DF4F688379838A83F4
:102D60009B83C15DD040C701B6010E942529CB528B
:102D7000DF4F688379838A839B83C55DD040C09091
:102D80001201D0901301E0901401F0901501C701D9
:102D9000B6010E94BD264B015C01C701B6010E942D
:102DA00025296B017C01CB52DF4F288139814A8173
:102DB0005B81C55DD040C352DF4F688179818A81D4
:102DC0009B81CD5DD0400E94B828CF51DF4F6883F2
:102DD00079838A839B83C15ED040CF52DF4F688165
:102DE00079818A819B81C15DD0409058A501940171
:102DF0000E94B828CB51DF4F688379838A839B83F5
:102E0000C55ED040C752DF4F688179818A819B813E
:102E1000C95DD0409058A70196010E94B8282B01A7
:102E20003C01CF51DF4F288139814A815B81C15EEE
:102E3000D040C501B4010E94B8289B01AC01C30178
:102E4000B2010E944C26CB51DF4F288139814A8143
:102E50005B81C55ED0400E944C262B013C01CF52C5
:102E6000DF4F288139814A815B81C15DD040C352E7
:102E7000DF4F688179818A819B81CD5DD0400E943E
:102E8000B828CB52DF4F288139814A815B81C55DEB
:102E9000D0400E944C26CF52DF4F688379838A83CB
:102EA0009B83C15DD040A5019401C752DF4F68816B
:102EB00079818A819B81C95DD0400E94B8284B01ED
:102EC0005C01CF51DF4F288139814A815B81C15E2E
:102ED000D040C701B6010E94B8289B01AC01C501D2
:102EE000B4010E944C26CB51DF4F288139814A81A1
:102EF0005B81C55ED0400E944C264B015C019B016A
:102F0000AC010E94B828CB52DF4F688379838A8353
:102F10009B83C55DD040CF52DF4F288139814A81E4
:102F20005B81C15DD040CA01B9010E94B828C75277
:102F3000DF4F688379838A839B83C95DD040A30177
:102F40009201C301B2010E94B8286B017C01C752F3
:102F5000DF4F288139814A815B81C95DD040CB52E6
:102F6000DF4F688179818A819B81C55DD0400E9455
:102F70004C26A70196010E944C260E9433296B0122
:102F80007C019B01AC01C501B4010E94C226CF5354
:102F9000DF4F688379838A839B83C15CD040A7011C
:102FA0009601CF52DF4F688179818A819B81C15D13
:102FB000D0400E94C226CB53DF4F688379838A8337
:102FC0009B83C55CD040A7019601C301B2010E945A
:102FD000C226C753DF4F688379838A839B83C95C8A
:102FE000D040C101880F991F820D931D880F991F32
:102FF000880F991F209107012F93209106012F938D
:10300000209105012F93209104012F930DB71EB736
:103010000C5011090FB6F8941EBF0FBE0DBFADB70F
:10302000BEB711962CE0FE01EF53FF4F01900D92B9
:103030002A95E1F7C090DC01D090DD01E090DE013F
:10304000F090DF010091E0011091E1012091E20197
:103050003091E3014091E4015091E5016091E60176
:103060007091E701E1E0F0E0EC0FFD1F8E0F9F1F74
:103070000E946206FFEF2F1A3F0AC353DF4F0881F9
:103080001981CD5CD040045F1F4FC353DF4F1983BC
:103090000883CD5CD0400FB6F894DEBF0FBECDBF25
:1030A000C751DF4F48815981C95ED040241635068B
:1030B00009F0ACCD20E030E0A90169857A858B85E7
:1030C0009C850E944C266B017C0120E030E0A90128
:1030D0006D817E818F8198850E944C26C353DF4F7E
:1030E000688379838A839B83CD5CD04020E030E085
:1030F000A90169817A818B819C810E944C262B01D8
:103100003C01C751DF4F88819981C95ED04001974A
:1031100009F452C32D893E894F89588DC701B601E4
:103120000E944C266B017C0129893A894B895C8974
:10313000C353DF4F688179818A819B81CD5CD04008
:103140000E944C26C353DF4F688379838A839B8315
:10315000CD5CD0402D853E854F855889C301B20195
:103160000E944C262B013C01C751DF4FE881F981B9
:10317000C95ED040E230F10509F41EC38F0129A1D8
:103180003AA14BA15CA1C701B6010E944C266B017C
:103190007C012D8D3E8D4F8D58A1C353DF4F68812B
:1031A00079818A819B81CD5CD0400E944C26C3539B
:1031B000DF4F688379838A839B83CD5CD040298DE0
:1031C0003A8D4B8D5C8DC301B2010E944C262B01C0
:1031D0003C010330110509F4EFC22DA53EA54FA512
:1031E00058A9C701B6010E944C266B017C0129A594
:1031F0003AA54BA55CA5C353DF4F688179818A81CD
:103200009B81CD5CD0400E944C26C353DF4F688326
:1032100079838A839B83CD5CD0402DA13EA14FA1B1
:1032200058A5C301B2010E944C262B013C01043079
:10323000110509F4C1C229AD3AAD4BAD5CADC70172
:10324000B6010E944C266B017C012DA93EA94FA915
:1032500058ADC353DF4F688179818A819B81CD5CF2
:10326000D0400E944C26C353DF4F688379838A8302
:103270009B83CD5CD04029A93AA94BA95CA9C30185
:10328000B2010E944C262B013C010530110509F4C6
:1032900093C229962CAD3DAD4EAD5FAD2997C701C8
:1032A000B6010E944C266B017C0125962CAD3DADEC
:1032B0004EAD5FAD2597C353DF4F688179818A8119
:1032C0009B81CD5CD0400E944C26C353DF4F688366
:1032D00079838A839B83CD5CD04021962CAD3DAD14
:1032E0004EAD5FAD2197C301B2010E944C262B0168
:1032F0003C010630110509F45FC265962CAD3DAD69
:103300004EAD5FAD6597C701B6010E944C266B01BB
:103310007C0161962CAD3DAD4EAD5FAD6197C35361
:10332000DF4F688179818A819B81CD5CD0400E948A
:103330004C26C353DF4F688379838A839B83CD5C9C
:10334000D0402D962CAD3DAD4EAD5FAD2D97C30158
:10335000B2010E944C262B013C010730110509F4F3
:103360002BC2A1962CAD3DAD4EAD5FADA197C7016F
:10337000B6010E944C266B017C016D962CAD3DADD3
:103380004EAD5FAD6D97C353DF4F688179818A8100
:103390009B81CD5CD0400E944C26C353DF4F688395
:1033A00079838A839B83CD5CD04069962CAD3DADFB
:1033B0004EAD5FAD6997C301B2010E944C262B014F
:1033C0003C010830110509F4F7C1AD962CAD3DADB7
:1033D0004EAD5FADAD97C701B6010E944C266B01A3
:1033E0007C01A9962CAD3DAD4EAD5FADA997C35301
:1033F000DF4F688179818A819B81CD5CD0400E94BA
:103400004C26C353DF4F688379838A839B83CD5CCB
:10341000D040A5962CAD3DAD4EAD5FADA597C30197
:10342000B2010E944C262B013C010930110509F420
:10343000C3C1E9962CAD3DAD4EAD5FADE997C70177
:10344000B6010E944C266B017C01E5962CAD3DAD8A
:103450004EAD5FADE597C353DF4F688179818A81B7
:103460009B81CD5CD0400E944C26C353DF4F6883C4
:1034700079838A839B83CD5CD040E1962CAD3DADB2
:103480004EAD5FADE197C301B2010E944C262B0106
:103490003C010A30110509F48FC1CF57DF4F288155
:1034A00039814A815B81C158D040C701B6010E9471
:1034B0004C266B017C01C358DF4F288139814A813A
:1034C0005B81CD57D040C353DF4F688179818A81BA
:1034D0009B81CD5CD0400E944C26C353DF4F688354
:1034E00079838A839B83CD5CD040ED962CAD3DAD36
:1034F0004EAD5FADED97C301B2010E944C262B018A
:103500003C010B30110509F457C1C357DF4F288127
:1035100039814A815B81CD58D040C701B6010E94F4
:103520004C266B017C01C757DF4F288139814A81C6
:103530005B81C958D040C353DF4F688179818A814C
:103540009B81CD5CD0400E944C26C353DF4F6883E3
:1035500079838A839B83CD5CD040CB57DF4F288112
:1035600039814A815B81C558D040C301B2010E94B4
:103570004C262B013C010C30110509F41DC1C75626
:10358000DF4F288139814A815B81C959D040C70109
:10359000B6010E944C266B017C01CB56DF4F28817F
:1035A00039814A815B81C559D040C353DF4F68815F
:1035B00079818A819B81CD5CD0400E944C26C35387
:1035C000DF4F688379838A839B83CD5CD040CF565D
:1035D000DF4F288139814A815B81C159D040C301C5
:1035E000B2010E944C262B013C010D30110509F45B
:1035F000E3C0CB55DF4F288139814A815B81C55AB1
:10360000D040C701B6010E944C266B017C01CF550A
:10361000DF4F288139814A815B81C15AD040C35331
:10362000DF4F688179818A819B81CD5CD0400E9487
:103630004C26C353DF4F688379838A839B83CD5C99
:10364000D040C356DF4F288139814A815B81CD59F3
:10365000D040C301B2010E944C262B013C010E3028
:10366000110509F4A9C0CF54DF4F288139814A815F
:103670005B81C15BD040C701B6010E944C266B0143
:103680007C01C355DF4F288139814A815B81CD5A46
:10369000D040C353DF4F688179818A819B81CD5CA3
:1036A000D0400E944C26C353DF4F688379838A83BE
:1036B0009B83CD5CD040C755DF4F288139814A813B
:1036C0005B81C95AD040C301B2010E944C262B0134
:1036D0003C010F30110509F46FC0C354DF4F28813E
:1036E00039814A815B81CD5BD040C701B6010E9420
:1036F0004C266B017C01C754DF4F288139814A81F8
:103700005B81C95BD040C353DF4F688179818A8177
:103710009B81CD5CD0400E944C26C353DF4F688311
:1037200079838A839B83CD5CD040CB54DF4F288143
:1037300039814A815B81C55BD040C301B2010E94DF
:103740004C262B013C0100311105B1F1C753DF4F6D
:10375000288139814A815B81C95CD040C701B601AB
:103760000E944C266B017C01CB53DF4F28813981AD
:103770004A815B81C55CD040C353DF4F688179814A
:103780008A819B81CD5CD0400E944C26C353DF4F81
:10379000688379838A839B83CD5CD040CF53DF4F8E
:1037A000288139814A815B81C15CD040C301B2016B
:1037B0000E944C262B013C01C751DF4F28813981E3
:1037C000C95ED040B901330F880B990B0E946C275A
:1037D000CB52DF4F688379838A839B83C55DD0405A
:1037E000CB50DF4F688179818A819B81C55FD04052
:1037F0000E9434274B015C01CF50DF4F68817981F3
:103800008A819B81C15FD0400E943427CF52DF4F15
:10381000688379838A839B83C15DD040CB52DF4F1D
:10382000288139814A815B81C55DD040C301B201E5
:103830000E94C22620E030E048EF51E40E94B82800
:103840000E943427C752DF4F688379838A839B8322
:10385000C95DD040CB52DF4F288139814A815B81DD
:10386000C55DD040C353DF4F688179818A819B81D8
:10387000CD5CD0400E94C22620E030E04CE752E40C
:103880000E94B8280E943427C353DF4F688379838E
:103890008A839B83CD5CD040CB52DF4F2881398116
:1038A0004A815B81C55DD040C701B6010E94C22636
:1038B00020E030E048EF51E40E94B8280E9434270D
:1038C000AB01BC01409000015090010160900201E9
:1038D00070900301CF52DF4F88819981AA81BB810B
:1038E000C15DD040840D951DA61DB71DCF52DF4F81
:1038F000C880D980EA80FB80C15DD040C816D90657
:10390000EA06FB060CF0BEC0970186010F3F1105C9
:103910002105310511F00CF0B5C02BE0440F551F07
:10392000661F771F2A95D1F7C353DF4F088119818E
:103930002A813B81CD5CD040000F111F221F331F15
:10394000000F111F221F331F000F111F221F331FD3
:10395000000F111F221F331F000F111F221F331FC3
:10396000402B512BC752DF4FE881F981C95DD04010
:103970004E2B5F2BD52ED694D694D6949A0136959D
:103980002795329522952F7023273F702327122FDA
:103990001F73042F0F71CF52DF4F288139814A8165
:1039A0005B81C15DD040C353DF4F288339834A8395
:1039B0005B83CD5CD040B501A401440D551D661D4F
:1039C000771DC353DF4F288039804A805B80CD5CF0
:1039D000D040C353DF4FD882CD5CD04084169506CB
:1039E000A606B706F4F530E883169104A104B104E5
:1039F000C4F531017501640106C0E0E8CE16D104BA
:103A0000E104F10411F19801C353DF4F4881CD5C0B
:103A1000D040B601C3010E9424202FEFC21AD20A5F
:103A2000E20AF20A8091000190910101A091020145
:103A3000B0910301B501A401480F591F6A1F7B1FF4
:103A4000C416D506E606F706C4F2CF52DF4FC8808B
:103A5000D980EA80FB80C15DD0408C0D9D1DAE1DDC
:103A6000BF1D2FEF221A320A420A520A28163906BF
:103A70004A065B063CF4211421E03206410451045D
:103A800009F0ACCFC850DF4F0FB6F894DEBF0FBEC1
:103A9000CDBFDF91CF911F910F91FF90EF90DF90FD
:103AA000CF90BF90AF909F908F907F906F905F90DE
:103AB0004F903F902F900895412C512C3201C353C9
:103AC000DF4F488259826A827B82CD5CD04073018D
:103AD000620172CE4F925F926F927F928F929F920D
:103AE000AF92BF92CF92DF92EF92FF92412C512C76
:103AF0003201C301B2010E946C274B015C01C12C51
:103B0000D12C7601C701B6010E946C27A501940152
:103B10000E94DC118091000190910101A0910201AD
:103B2000B0910301C80ED91EEA1EFB1E2FEFC2166C
:103B3000D104E104F10431F32CF3480E591E6A1E3E
:103B40007B1E80E8481651046104710494F2FF90D2
:103B5000EF90DF90CF90BF90AF909F908F907F902D
:103B60006F905F904F9008959FEF9ABB94BB91BB6D
:103B7000BB27A4E690E09C93A1E69FEF9C93089559
:103B8000A3E6BB277C9174FF19C07FEFA1E67C936D
:103B9000A2E68C937ABB9BBB65BB42BB979A979876
:103BA00044274C934BBB4ABBA1E64C9342BB45BB5D
:103BB00080E0A3E67C9174FF81E0089581E00895A0
:103BC000A3E6BB277C9174FFFDCF7FEFA1E67C933A
:103BD000A2E68C937ABB9BBB65BB42BB979A979836
:103BE00044274C934BBB4ABBA1E64C9342BB45BB1D
:103BF0000895A2E6BB278C939BBB99278827A3E651
:103C00007C9174FFDFCF42BB65BB979A97989F3F2B
:103C100011F09395F5CF9927803811F08395F0CF67
:103C200044274C934BBB42BB45BB4ABBA1E64C93DC
:103C3000089590E097BB86B308959FEF97BB88BB2C
:103C40000895809329009093900088E180932A0042
:103C500086E080939500089590912B0095FFFCCF0E
:103C600080932C00089580912B0085FFFCCF8091DC
:103C70002C000895B92FA82F90912B0095FFFCCF11
:103C800080912C008A3021F08D930E942C1EF4CF5D
:103C90008AE00E942C1E01C0089580912B0085FFB0
:103CA00008958CB5FACFAEE3BCE91197F1F70000A7
:103CB00008958FE7AEE3BCE91197F1F78A95D1F744
:103CC00000000895F894E199FDCF9FBB8EBBE09A68
:103CD0008DB378940895F894E199FDCF9FBB8EBB86
:103CE0006DBBE29AE19A789408959FEF92B983B9F7
:103CF000BB27A4E69FE09C93A5E69FEF9C930895C5
:103D000097FF0895919581959109089586179707D2
:103D10000CF4CB010895681779070CF4CB010895D2
:103D20000E94B41D17981F9A89B7806889BF8AB707
:103D300080688ABF08958F929F92BF92CF92DF9240
:103D4000EF92FF920F931F93CF93DF938C017B0130
:103D5000B22EC32FD42FB9E3CB2EB1E0DB2E80E5FA
:103D60000E942C1ED6018D916D018111F9CF17FD96
:103D700056C00115110509F063C180E380931C0250
:103D800010921D025DE1C52E52E0D52E0E942C1E20
:103D9000F60181916F018111F9CF6FE4C62E61E0C8
:103DA000D62E80E20E942C1ED6018D916D018111CC
:103DB000F9CFF7FCC0C0E114F10409F03DC180E384
:103DC00080931C0210921D029DE1C92E92E0D92E13
:103DD0000E942C1EF60181916F018111F9CF8AE0BA
:103DE0000E942C1E8D2F90E0982F8827990F990FF5
:103DF000990FB0E2CB9F90011124822B932B4E2D73
:103E0000602F8B29DF91CF911F910F91FF90EF9041
:103E1000DF90CF90BF909F908F900C94E01D8DE22B
:103E200080931C02CC24DD24C01AD10AE1E0F0E02A
:103E30009F01245E3D4FAAE08A2E912CC601B40159
:103E40000E94D925805DD9018C939F012F5F3F4F40
:103E50006115710509F441C0245E3D4FCB01B401E9
:103E60000E94D925805DD9018C93C60164E670E07B
:103E70000E94D925CB019F012E5F3F4F009769F12A
:103E8000245E3D4FB4010E94D925805DD9018C93F9
:103E9000C60168EE73E00E94D925CB019F012D5F1A
:103EA0003F4F0097D1F0245E3D4FB4010E94D925C9
:103EB000805DD9018C93C60160E177E20E94D9252B
:103EC0009F012C5F3F4F6115710539F0D901A45E48
:103ED000BD4F605D6C932F5F3F4FC90195958795EE
:103EE000F901E45EFD4F1082009701F140911C0240
:103EF000F901E55EFD4F508150931C0240838130F3
:103F00009105A1F040911D02F901E65EFD4F50813F
:103F100050931D024083029749F080911E02F901DF
:103F2000E75EFD4F908190931E02808380911C027A
:103F3000811128CF32CF8DE280931C02CC24DD2466
:103F4000CE18DF0821E030E0F901E45EFD4F4AE0E1
:103F5000842E912CC601B4010E94D925805D8083F6
:103F6000F901319661157105D1F1E45EFD4FCB0188
:103F7000B4010E94D925805D8083C60164E670E0AB
:103F80000E94D925CB01F9013296009741F1E45EF8
:103F9000FD4FB4010E94D925805D8083C60168EE83
:103FA00073E00E94D925CB01F90133960097B9F04F
:103FB000E45EFD4FB4010E94D925805D8083C60177
:103FC00060E177E20E94D925F90134966115710507
:103FD00031F0E45EFD4F605D6083F9013596CF01FD
:103FE00095958795DF01A45EBD4F1C920097F9F06F
:103FF00020911C02DF01A55EBD4F3C9130931C0255
:104000002C938130910599F020911D02DF01A65E6D
:10401000BD4F3C9130931D022C93029741F080914B
:104020001E02E75EFD4F908190931E028083809177
:104030001C028111C9CED3CE670120E030E084CFCD
:104040006801E0E0F0E0F4CE0C949B1E0F931F9308
:10405000CF93DF93062F182F110FC42FD0E0DC2F42
:10406000CC27DD0FDD0FDD0F40E2349FC0011124AE
:10407000C82BD92BC22B462F612FCE010E94E01DE9
:10408000402F612FCE010E94E01D1F5F402F612F46
:10409000CE010E94E01D402F612FCE01DF91CF9114
:1040A0001F910F910C94E01D90E0982F8827990F95
:1040B000990F990F40E2749F90011124822B932B4A
:1040C000862B0C94F91D2F923F924F925F926F9224
:1040D0007F928F929F92AF92BF92CF92DF92EF9298
:1040E000FF920F931F93CF93DF9300D000D000D0A7
:1040F000CDB7DEB79E838D835B013A013A83298376
:104100004E2D2F2DB301681B790B4B0177FD88C015
:1041100089819A818A199B097C0197FD7CC077FD72
:1041200071C022242394312C97FD71C04424439400
:10413000512C6401CE18DF08802F90E0982F88273B
:10414000990F990F990F50E2259F90011124822B0E
:10415000932B9C01242B3C832B83002711270E19C2
:104160001F098D819E818615970571F18F3F9105FD
:1041700009F080F490E8A916B10460F44A2D6D812D
:104180008B819C810E94E01D4A2D6D818B819C81D9
:104190000E94E01DC601880F991F0817190744F4F3
:1041A000CE18DF082D813E81220D331D3E832D83E5
:1041B00088159905B4F6C80CD91CA40CB51C8D81C2
:1041C0009E818615970591F629813A81A216B3063C
:1041D00069F626960FB6F894DEBF0FBECDBFDF910D
:1041E000CF911F910F91FF90EF90DF90CF90BF90F4
:1041F000AF909F908F907F906F905F904F903F9087
:104200002F90089522242A94322C97FF8FCF442494
:104210004A94542C8ECFEE24FF24E81AF90A7FCF5B
:1042200088249924861A970A73CF2F923F924F922F
:104230005F926F927F928F929F92AF92BF92CF9236
:10424000DF92EF92FF920F931F93CF93DF9300D0F3
:1042500000D000D0CDB7DEB76C011B015E834D836B
:104260003C832B83CA018C199D094C0197FD46C1E3
:1042700097FD26C144244394512C602E712C762C3A
:104280006624770C770C770C20E2F29EC001112493
:10429000682A792A6E285401710186018D819E81D8
:1042A0008017910739F10F3F110509F070F490E87C
:1042B000E916F10450F44E2D602FC3010E94E01D59
:1042C0004E2D602FC3010E94E01DC501880F991F6C
:1042D0001816190614F4040D151D88159905F4F621
:1042E000A80CB91C2FEFE21AF20A8D819E8180176B
:1042F0009107C9F62E143F04B1F68B819C81821977
:1043000093099A83898397FDF2C097FDE5C0442401
:104310004394512C89809A809194819491085401FE
:1043200071018601C016D10629F10F3F110509F070
:1043300070F490E8E916F10450F44E2D602FC3019B
:104340000E94E01D4E2D602FC3010E94E01DC5019B
:10435000880F991F8816990634F429813A81A21A88
:10436000B30A0F5F1F4F97FFDDCFE40CF51CC0169B
:10437000D106D9F68B819C818E159F05B1F69C01E3
:10438000C101821B930B9A83898397FDA9C097FD76
:104390009FC044244394512C89809A8091948194A5
:1043A00091085401EB80FC800D811E818D819E81DE
:1043B0008017910739F10F3F110509F070F490E86B
:1043C000E916F10450F44E2D602FC3010E94E01D48
:1043D0004E2D602FC3010E94E01DC501880F991F5B
:1043E0008816990634F429813A81A21AB30A0F5F1C
:1043F0001F4F97FFDBCFE40CF51C8D819E8180174A
:104400009107C9F62E143F04B1F69C01C601821B28
:10441000930B5C0197FD77C097FD56C08824839469
:10442000912C75010B811C818D819E81C816D90646
:1044300049F18F3F910509F068F40038110550F4F7
:10444000402F6D81C3010E94E01D402F6D81C3018B
:104450000E94E01DC701880F991F1816190634F431
:104460002D813E81280D391D3E832D838A159B05A4
:10447000DCF6EA0CFB1C0F5F1F4F8D819E81C81676
:10448000D906B9F62B813C812017310791F6269683
:104490000FB6F894DEBF0FBECDBFDF91CF911F9155
:1044A0000F91FF90EF90DF90CF90BF90AF909F90D3
:1044B0008F907F906F905F904F903F902F900895D6
:1044C00044244A94542CD9CE88248A94982CA9CF79
:1044D00044244A94542C60CF44244A94542C1ACF38
:1044E00022273327281B390B3A83298350CF2227D1
:1044F0003327281B390B3A83298307CF8824992433
:10450000881A990AB5CEAA24BB24A81AB90A84CF5E
:104510000C94191E0C941D1ECF93DF939C01990FD0
:10452000440B550B60ED72E183E190E00E94ED25B4
:104530008FEF820F0E94211EC4E5D1E089E40E9422
:104540002C1E89918111FBCFDF91CF9108950C949E
:104550002C1E0C94331ECF93DF93CDB7DEB7DA95C4
:104560000FB6F894DEBF0FBECDBFCE0101960E94FC
:104570003A1E80E090E0D3950FB6F894DEBF0FBEF0
:10458000CDBFDF91CF9108950C94591E0C94531E0A
:10459000CF93DF93EC018881882331F021960E942C
:1045A0002C1E89918111FBCFDF91CF910895CF937C
:1045B000DF93EC018881882331F021960E942C1E24
:1045C00089918111FBCF8AE0DF91CF910C942C1E51
:1045D0000F931F93CF93DF9397FD14C0009709F0BB
:1045E00090C080E380931C0210921D02CDE1D2E0C6
:1045F0000E942C1E89918111FBCFDF91CF911F91D9
:104600000F9108952DE220931C02919581959109B7
:104610006AE070E00E94D925805D80931D02FB0155
:10462000309709F47BC0C2E0D0E09E01245E3D4F8C
:104630000AE010E0CF01B8010E94D925805DD901C0
:104640008C939E012F5F3F4F6115710571F1245EC0
:104650003D4FCB01B8010E94D925805DD9018C93D3
:10466000CF0164E670E00E94D925CB019E012E5F48
:104670003F4F0097D1F0245E3D4FB8010E94D925ED
:10468000805DD9018C93CF0168EE73E00E94D9253B
:104690009E012D5F3F4F6115710539F0F901E45E10
:1046A000FD4F605D60832F5F3F4FF901E45EFD4F7A
:1046B0001082C9019595879540911C02F901E55E2C
:1046C000FD4F508150931C02408381309105A1F031
:1046D00040911D02F901E65EFD4F508150931D028D
:1046E0004083029749F080911E02F901E75EFD4F79
:1046F000908190931E02808380911C02811176CF5D
:104700007CCF6AE070E00E94D925805D80931C0216
:10471000FB01309751F0C1E0D0E087CF10921E022C
:1047200080931C0220931D02E7CF10921D02E6CF5A
:104730000C94751E0F931F93CF93DF9397FD0FC0BB
:10474000009709F0D0C080E380931C0210921D02F4
:104750008CE192E0DF91CF911F910F9108952DE2AE
:1047600020931C029195819591096AE070E00E9466
:10477000D925805D80931D02FB01309709F4C0C0EC
:10478000C2E0D0E09E01245E3D4F0AE010E0CF0180
:10479000B8010E94D925805DD9018C939E012F5FBD
:1047A0003F4F6115710571F1245E3D4FCB01B8019A
:1047B0000E94D925805DD9018C93CF0164E670E019
:1047C0000E94D925CB019E012E5F3F4F0097D1F06B
:1047D000245E3D4FB8010E94D925805DD9018C939C
:1047E000CF0168EE73E00E94D9259E012D5F3F4FF7
:1047F0006115710539F0F901E45EFD4F605D60837C
:104800002F5F3F4FF901E45EFD4F1082C90195957E
:10481000879540911C02F901E55EFD4F5081509350
:104820001C0240838130910509F492CF40911D0212
:10483000F901E65EFD4F508150931D0240838230A6
:10484000910509F485CF40911E02F901E75EFD4F05
:10485000508150931E0240838330910509F478CF34
:1048600040911F02F901E85EFD4F508150931F02F5
:1048700040838430910509F46BCF40912002F90107
:10488000E95EFD4F508150932002408385309105B1
:1048900009F45ECF40912102F901EA5EFD4F50819B
:1048A0005093210240838630910509F451CF409105
:1048B0002202F901EB5EFD4F5081509322024083AA
:1048C000079709F445CF80912302F901EC5EFD4F73
:1048D00090819093230280838CE192E0DF91CF91CD
:1048E0001F910F9108956AE070E00E94D925805DC4
:1048F00080931C02FB01309751F0C1E0D0E042CF21
:1049000010921E0280931C0220931D0221CF109250
:104910001D021ECF0C94621E0C946B1EDC01FB0169
:104920009C919923E1F080818823A1F0891310C024
:10493000119605C0222371F0FA01921309C0AF014C
:104940004F5F5F4F9D9121819111F4CF81E09213D0
:1049500080E0089520E081E09213FACFFACF208121
:10496000F5CFCF92DF92EF92FF92E0E1F2E010827A
:104970001182128213821482158216821782108687
:10498000118612861386E4E0F2E08DEC9CECACE438
:10499000BEE380839183A283B38384839583A683BC
:1049A000B7838DEC9CECACE4BFE380879187A28752
:1049B000B387E8EFF1E0C12CD12C80E8E82E8FE33B
:1049C000F82EC082D182E282F382C482D582E6824E
:1049D000F782C086D186E286F38620E030E040E0B0
:1049E0005FE36091260170912701809128019091E9
:1049F00029010E94B8280E9473296093F4017093E2
:104A0000F5018093F6019093F701E8EEF1E080E084
:104A100090E0A0EEB0E480839183A283B38380E032
:104A200090E0A0EAB0E484839583A683B78340E056
:104A300050E060E271E44087518762877387ECED54
:104A4000F1E040E050E068EC71E440835183628320
:104A5000738384839583A683B78340E050E060E747
:104A600071E44087518762877387E4EBF1E0148239
:104A7000158216821782148615861686178614A24A
:104A800015A216A217A2C0A2D1A2E2A2F3A241E0EF
:104A900050E060E070E0408351836283738340E0C4
:104AA00050E060E870E4448F558F668F778F808781
:104AB0009187A287B387C08AD18AE28AF38AC48A9F
:104AC000D58AE68AF78AC08ED18EE28EF38EECE824
:104AD000F1E0108E118E128E138EC4A2D5A2E6A222
:104AE000F7A2C0A2D1A2E2A2F3A242E050E060E0AD
:104AF00070E04083518362837383848F958FA68F88
:104B0000B78F40E050E060E071E4448355836683F2
:104B1000778380879187A287B38780E090E0A0EEBB
:104B2000B0EC84879587A687B787C08AD18AE28A46
:104B3000F38A86E696E6A6E6BFE3848B958BA68B82
:104B4000B78BE4E6F1E01482158216821782108694
:104B50001186128613861486158616861786108A85
:104B6000118A128A138A148A158A168A178A108E55
:104B7000118E128E138EC4A2D5A2E6A2F7A2C0A2F5
:104B8000D1A2E2A2F3A21082118212821382FF90BC
:104B9000EF90DF90CF9008950E94901E80E895E2FC
:104BA0000E948C228AE291E00E94C8220E946A1D23
:104BB000FFCF97FB072E16F4009407D077FD09D09E
:104BC0000E940C2607FC05D03EF4909581959F4FDE
:104BD0000895709561957F4F0895052E97FB1EF4FB
:104BE00000940E94042657FD07D00E94202607FC4F
:104BF00003D04EF40C9404265095409530952195A1
:104C00003F4F4F4F5F4F08959095809570956195F8
:104C10007F4F8F4F9F4F0895AA1BBB1B51E107C0C9
:104C2000AA1FBB1FA617B70710F0A61BB70B881F3C
:104C3000991F5A95A9F780959095BC01CD010895CB
:104C4000A1E21A2EAA1BBB1BFD010DC0AA1FBB1F90
:104C5000EE1FFF1FA217B307E407F50720F0A21B02
:104C6000B30BE40BF50B661F771F881F991F1A946F
:104C700069F760957095809590959B01AC01BD0199
:104C8000CF010895EE0FFF1F0024001C0BBE0790FC
:104C9000F691E02D09945058BB27AA270E9463265D
:104CA0000C944D280E94142838F00E941B2820F0F4
:104CB00039F49F3F19F426F40C9411280EF4E09572
:104CC000E7FB0C94E227E92F0E94722858F3BA17E9
:104CD000620773078407950720F079F4A6F50C9412
:104CE000AC280EF4E0950B2EBA2FA02D0B01B901C4
:104CF00090010C01CA01A0011124FF27591B99F052
:104D0000593F50F4503E68F11A16F040A22F232F5D
:104D1000342F4427585FF3CF469537952795A795AD
:104D2000F0405395C9F77EF41F16BA0B620B730B54
:104D3000840BBAF09150A1F0FF0FBB1F661F771FC5
:104D4000881FC2F70EC0BA0F621F731F841F48F47A
:104D5000879577956795B795F7959E3F08F0B0CF03
:104D60009395880F08F09927EE0F979587950895EA
:104D70000E94BE2708F481E008950E942428E3954C
:104D80000C945E280E94D6260C944D280E941B2865
:104D900058F00E94142840F029F45F3F29F00C9449
:104DA000E22751110C94AD280C9411280E9472280E
:104DB00068F39923B1F3552391F3951B550BBB274A
:104DC000AA2762177307840738F09F5F5F4F220F8F
:104DD000331F441FAA1FA9F335D00E2E3AF0E0E886
:104DE00032D091505040E695001CCAF72BD0FE2FD0
:104DF00029D0660F771F881FBB1F26173707480764
:104E0000AB07B0E809F0BB0B802DBF01FF2793581B
:104E10005F4F3AF09E3F510578F00C94E2270C94D6
:104E2000AD285F3FE4F3983ED4F386957795679578
:104E3000B795F7959F5FC9F7880F911D9695879550
:104E400097F90895E1E0660F771F881FBB1F62176F
:104E500073078407BA0720F0621B730B840BBA0B2D
:104E6000EE1F88F7E09508950E943B276894B111E2
:104E70000C94AD2808950E947A2888F09F5798F0E6
:104E8000B92F9927B751B0F0E1F0660F771F881F4F
:104E9000991F1AF0BA95C9F714C0B13091F00E9469
:104EA000AC28B1E008950C94AC28672F782F8827A0
:104EB000B85F39F0B93FCCF3869577956795B39590
:104EC000D9F73EF490958095709561957F4F8F4FFF
:104ED0009F4F0895E89409C097FB3EF49095809504
:104EE000709561957F4F8F4F9F4F9923A9F0F92FB0
:104EF00096E9BB279395F695879577956795B7952E
:104F0000F111F8CFFAF4BB0F11F460FF1BC06F5F13
:104F10007F4F8F4F9F4F16C0882311F096E911C025
:104F2000772321F09EE8872F762F05C0662371F046
:104F300096E8862F70E060E02AF09A95660F771F5A
:104F4000881FDAF7880F9695879597F908950E943C
:104F5000942890F09F3748F4911116F00C94AD28E6
:104F600060E070E080E89FEB089526F41B16611D59
:104F7000711D811D0C94E8270C940328990F0008DB
:104F8000550FAA0BE0E8FEEF16161706E807F9071B
:104F9000C0F012161306E407F50798F0621B730BB6
:104FA000840B950B39F40A2661F0232B242B252B37
:104FB00021F408950A2609F4A140A6958FEF811DDA
:104FC000811D089597F99F6780E870E060E008957B
:104FD000882371F4772321F09850872B762F07C010
:104FE000662311F499270DC09051862B70E060E084
:104FF0002AF09A95660F771F881FDAF7880F969523
:10500000879597F908959F3F31F0915020F4879547
:1050100077956795B795880F911D9695879597F920
:1050200008959FEF80EC089500240A941616170641
:1050300018060906089500240A9412161306140689
:10504000050608950C9411280E947A28D8F3E89454
:10505000E0E0BB279F57F0F02AED3FE049EC06C0A7
:10506000EE0FBB0F661F771F881F28F0B23A62074A
:105070007307840728F0B25A620B730B840BE39515
:105080009A9572F7803830F49A95BB0F661F771F98
:10509000881FD2F790480C940528092E0394000C21
:1050A00011F4882352F0BB0F40F4BF2B11F460FFC2
:1050B00004C06F5F7F4F8F4F9F4F0895EF93E0FFC6
:1050C00007C0A2EA2AED3FE049EC5FEB0E946326AD
:1050D0000E944D280F90039401FC9058ECE8F0E0FA
:1050E0000C949F2957FD9058440F551F59F05F3F6E
:1050F00071F04795880F97FB991F61F09F3F79F0FA
:1051000087950895121613061406551FF2CF46957B
:10511000F1DF08C0161617061806991FF1CF8695FD
:1051200071056105089408950E947A28A0F0BEE7F1
:10513000B91788F4BB279F3860F41616B11D672F86
:10514000782F8827985FF7CF869577956795B11D5B
:1051500093959639C8F30895E894BB276627772777
:10516000CB0197F908950E94BE2708F48FEF0895A8
:105170000E94CB280C944D280E94142838F00E94DD
:105180001B2820F0952311F00C94E2270C94112891
:1051900011240C94AD280E94722870F3959FC1F3DE
:1051A000950F50E0551F629FF001729FBB27F00DD5
:1051B000B11D639FAA27F00DB11DAA1F649F66272A
:1051C000B00DA11D661F829F2227B00DA11D621F79
:1051D000739FB00DA11D621F839FA00D611D221F33
:1051E000749F3327A00D611D231F849F600D211D17
:1051F000822F762F6A2F11249F5750409AF0F1F09A
:1052000088234AF0EE0FFF1FBB1F661F771F881F02
:1052100091505040A9F79E3F510580F00C94E22731
:105220000C94AD285F3FE4F3983ED4F386957795D0
:105230006795B795F795E7959F5FC1F7FE2B880FA8
:10524000911D9695879597F908959F930E9424281C
:105250000F9007FCEE5F0C945E2819F416F40C9482
:1052600011280C9403280E947A28B8F39923C9F3D3
:10527000B6F39F57550B87FF0E9498290024A0E69C
:1052800040EA900180585695979528F4805C660F07
:10529000771F881F20F026173707480730F4621B56
:1052A000730B840B202931294A2BA6951794079458
:1052B000202531254A2758F7660F771F881F20F0D1
:1052C00026173707480730F4620B730B840B200D49
:1052D000311D411DA09581F7B901842F9158880F88
:1052E000969587950895DF93D92F0E942428E695F7
:1052F000D7952AED3FE049E45FE3B33A62077307CD
:1053000084079507D7953AF0A2EA49EC90680E9485
:1053100063260E944D28EAEAF0E00E949F29DD0FF3
:1053200013F00E94B329DD0F0BF49058DF9108951C
:1053300091505040660F771F881FD2F708959F93B2
:105340008F937F936F93FF93EF939B01AC010E9428
:10535000B828EF91FF910E94BB292F913F914F9167
:105360005F910C94B8289B01AC0160E070E080E88C
:105370009FE30C94C226DF93CF931F930F93FF926A
:10538000EF92DF927B018C01689406C0DA2EEF0168
:105390000E94CB28FE01E894A59125913591459175
:1053A0005591A6F3EF010E946326FE019701A80123
:1053B000DA9469F7DF90EF90FF900F911F91CF91F2
:0853C000DF910895F894FFCF7E
:1053C80001000000070000008C01B4016401000026
:1053D8000000DB0F493F6F12833A00401C46CDCCDA
:1053E800CC3D00000040DB0FC93F48656C6C6F2066
:1053F800576F726C64210A00506C6F7474696E6721
:1054080020706978656C20617420783A20002079D2
:105418003A2000496E697469616C697A696E672E11
:045428002E2E0A001A
:00000001FF
