:100000000C9446000C9465000C9465000C946500FB
:100010000C9465000C9465000C9465000C946500CC
:100020000C9465000C9465000C9465000C946500BC
:100030000C9465000C9465000C9465000C946500AC
:100040000C9465000C9465000C9465000C9465009C
:100050000C9465000C9465000C9465000C9465008C
:100060000C9465000C9465000C9465000C9465007C
:100070000C9465000C9465000C9465000C9465006C
:100080000C9465000C9465000C94650011241FBE4F
:10009000CFEFD0E1DEBFCDBF15E0A0E0B1E0E8E7F3
:1000A000F8E100E00BBF02C007900D92AE3BB10734
:1000B000D9F725E0AEEBB5E001C01D92AB3DB2072C
:1000C000E1F70E94AA0A0C943A0C0C9400009FEFEE
:1000D0009ABB94BB91BBBB27A4E690E19C93A1E69D
:1000E0009CEF9C930895A3E6BB27A2E68C939BBB51
:1000F00065BB42BB979A979844274C934BBB42BB36
:1001000045BB0895A2E6BB278C939BBB9927882704
:10011000A3E67C9174FFE9CF42BB65BB979A9798A1
:100120009F3F11F09395F5CF9927803811F0839573
:10013000F0CF44274C934BBB42BB45BB089590E0A6
:1001400097BB86B308959FEF97BB88BB08958093B4
:1001500029009093900088E180932A0086E08093A4
:100160009500089590912B0095FFFCCF80932C0073
:10017000089580912B0085FFFCCF80912C0008957D
:10018000B92FA82F90912B0095FFFCCF80912C00C8
:100190008A3021F08D930E94B200F4CF8AE00E9451
:1001A000B20001C0089580912B0085FF08958CB5A1
:1001B000FACFAEE3BCE91197F1F7000008958FE79D
:1001C000AEE3BCE91197F1F78A95D1F700000895E5
:1001D000E199FECF9FBB8EBBE09A8DB30895E19964
:1001E000FECF9FBB8EBB6DBBE29AE19A089585E47A
:1001F00090E0089597FF089591958195910908954C
:10020000861797070CF4CB010895681779070CF44B
:10021000CB0108950C946700462F682F8FEF9FEF56
:100220000C947300462F682F8FEF9FEF0C94730090
:100230008FEF9FEF0C9482002F923F924F925F922C
:100240006F927F928F929F92AF92BF92CF92DF92E6
:10025000EF92FF920F931F93CF93DF9300D000D0C4
:10026000CDB7DEB79C838B837B015A013A83298308
:100270009A01281B390B690137FD75C089819A8164
:100280008E199F091C0197FD69C037FD5EC044248B
:100290004394512C97FD5EC066246394712C8601B3
:1002A0000219130988249924821893082B813C8110
:1002B0002A153B0571F12F3F310509F080F430E834
:1002C000E316F10460F44E2D6B818FEF9FEF0E94D7
:1002D00073004E2D6B818FEF9FEF0E947300C8015A
:1002E000880F991F8816990644F4021913092B8167
:1002F0003C81240D351D3C832B838C159D05B4F664
:100300000C0D1D1DE60CF71C2B813C812A153B05AD
:1003100091F689819A81E816F90669F60F900F9097
:100320000F900F90DF91CF911F910F91FF90EF9061
:10033000DF90CF90BF90AF909F908F907F906F9005
:100340005F904F903F902F90089544244A94542CEE
:1003500097FFA2CF66246A94762CA1CF222433245F
:10036000281A390A92CFCC24DD24C21AD30A86CFA8
:100370002F923F924F925F926F927F928F929F92B5
:10038000AF92BF92CF92DF92EF92FF920F931F93A3
:10039000CF93DF9300D000D0CDB7DEB77C012B0127
:1003A0005C834B831901CA018E199F094C0197FD8B
:1003B00038C197FD18C166246394712C5401620101
:1003C00087012B813C812017310749F10F3F11052F
:1003D00009F080F430E8C316D10460F44C2D602F8E
:1003E0008FEF9FEF0E9473004C2D602F8FEF9FEFD8
:1003F0000E947300C501880F991F1816190614F47E
:10040000060D171D88159905E4F6A80CB91C8FEF89
:10041000C81AD80A2B813C8120173107B9F64C1431
:100420005D04A1F6C101841995099A83898397FD1A
:10043000F1C097FDE4C066246394712C89809A8092
:10044000919481949108540162018701E016F106AC
:1004500039F10F3F110509F080F430E8C316D104DB
:1004600060F44C2D602F8FEF9FEF0E9473004C2D96
:10047000602F8FEF9FEF0E947300C501880F991FB7
:100480008816990634F429813A81A21AB30A0F5FBB
:100490001F4F97FFDBCFC60CD71CE016F106C9F63D
:1004A0002C143D04B1F6C201821993099A83898301
:1004B00097FDA9C097FD9FC066246394712C898025
:1004C0009A80919481949108540161010B811C815F
:1004D0008B819C818017910749F10F3F110509F02D
:1004E00080F490E8C916D10460F44C2D602F8FEF92
:1004F0009FEF0E9473004C2D602F8FEF9FEF0E94A3
:100500007300C501880F991F8816990634F4298154
:100510003A81A21AB30A0F5F1F4F97FFD9CFC60CBB
:10052000D71C8B819C8180179107B9F64C145D0410
:10053000A1F69C01C701821B930B5C0197FD76C05D
:1005400097FD55C088248394912C650181018B818E
:100550009C81E816F90669F12B813C812F3F31051A
:1005600009F078F40038110560F4402F6B818FEFAB
:100570009FEF0E947300402F6B818FEF9FEF0E94CF
:100580007300C601880F991F1816190634F42B81C1
:100590003C81280D391D3C832B838A159B05BCF6B5
:1005A000CA0CDB1C0F5F1F4F8B819C81E816F9067C
:1005B00099F62016310681F60F900F900F900F904C
:1005C000DF91CF911F910F91FF90EF90DF90CF902F
:1005D000BF90AF909F908F907F906F905F904F9063
:1005E0003F902F90089566246A94762CE7CE882455
:1005F0008A94982CAACF66246A94762C60CF6624BD
:100600006A94762C1BCF22273327281B390B3A8379
:10061000298350CF22273327281B390B3A8329837C
:1006200008CF88249924881A990AC3CEAA24BB2407
:10063000A81AB90A85CF0C949F000C94A300CF93FD
:10064000DF939C01990F440B550B60E472E48FE03B
:1006500090E00E94DE0B8FEF820F0E94A700CCED8E
:10066000D3E089E40E94B20089918111FBCFDF9130
:10067000CF9108950C94B2000C94B900CF93DF93FE
:1006800080E091E00E94AA08EC010E94C000CE0127
:10069000DF91CF9108950C94DF000C94D900CF9393
:1006A000DF93EC018881882331F021960E94B2000B
:1006B00089918111FBCFDF91CF910895CF93DF9383
:1006C000EC018881882331F021960E94B200899143
:1006D0008111FBCF8AE0DF91CF910C94B2000F9390
:1006E0001F93CF93DF9397FD14C0009709F090C03C
:1006F00080E38093BE051092BF05CFEBD5E00E944A
:10070000B20089918111FBCFDF91CF911F910F91A1
:1007100008952DE22093BE059195819591096AE097
:1007200070E00E94CA0B805D8093BF05FB0130978B
:1007300009F47BC0C2E0D0E09E0122543A4F0AE0A7
:1007400010E0CF01B8010E94CA0B805DD9018C93E3
:100750009E012F5F3F4F6115710571F122543A4F91
:10076000CB01B8010E94CA0B805DD9018C93CF01E7
:1007700064E670E00E94CA0BCB019E012E5F3F4FE2
:100780000097D1F022543A4FB8010E94CA0B805D05
:10079000D9018C93CF0168EE73E00E94CA0B9E01D1
:1007A0002D5F3F4F6115710539F0F901E254FA4FA1
:1007B000605D60832F5F3F4FF901E254FA4F108272
:1007C000C901959587954091BE05F901E354FA4F0B
:1007D00050815093BE05408381309105A1F0409136
:1007E000BF05F901E454FA4F50815093BF0540838F
:1007F000029749F08091C005F901E554FA4F9081C4
:100800009093C00580838091BE05811176CF7CCF07
:100810006AE070E00E94CA0B805D8093BE05FB0118
:10082000309751F0C1E0D0E087CF1092C00580939F
:10083000BE052093BF05E7CF1092BF05E6CF0C940D
:10084000F7000F931F93CF93DF9397FD0FC000978F
:1008500009F0D0C080E38093BE051092BF058EEBF7
:1008600095E0DF91CF911F910F9108952DE2209394
:10087000BE059195819591096AE070E00E94CA0BCE
:10088000805D8093BF05FB01309709F4C0C0C2E0D2
:10089000D0E09E0122543A4F0AE010E0CF01B801A7
:1008A0000E94CA0B805DD9018C939E012F5F3F4F40
:1008B0006115710571F122543A4FCB01B8010E94C4
:1008C000CA0B805DD9018C93CF0164E670E00E9471
:1008D000CA0BCB019E012E5F3F4F0097D1F02254EF
:1008E0003A4FB8010E94CA0B805DD9018C93CF01A9
:1008F00068EE73E00E94CA0B9E012D5F3F4F6115A9
:10090000710539F0F901E254FA4F605D60832F5FA1
:100910003F4FF901E254FA4F1082C901959587952E
:100920004091BE05F901E354FA4F50815093BE0542
:1009300040838130910509F492CF4091BF05F901C0
:10094000E454FA4F50815093BF05408382309105A3
:1009500009F485CF4091C005F901E554FA4F508163
:100960005093C00540838330910509F478CF4091BE
:10097000C105F901E654FA4F50815093C1054083F7
:100980008430910509F46BCF4091C205F901E75419
:10099000FA4F50815093C20540838530910509F488
:1009A0005ECF4091C305F901E854FA4F508150934E
:1009B000C30540838630910509F451CF4091C405A9
:1009C000F901E954FA4F50815093C40540830797C9
:1009D00009F445CF8091C505F901EA54FA4F908199
:1009E0009093C50580838EEB95E0DF91CF911F91A9
:1009F0000F9108956AE070E00E94CA0B805D8093B9
:100A0000BE05FB01309751F0C1E0D0E042CF10921B
:100A1000C0058093BE052093BF0521CF1092BF056E
:100A20001ECF0C94E8000C94EF00DC01FB019C91BC
:100A30009923E1F080818823A1F0891310C01196D9
:100A400005C0222371F0FA01921309C0AF014F5F74
:100A50005F4F9D9121819111F4CF81E0921380E04D
:100A6000089520E081E09213FACFFACF2081F5CFEC
:100A70002F923F924F925F926F927F928F929F92AE
:100A8000AF92BF92CF92DF92EF92FF920F931F939C
:100A9000CF93DF93CDB7DEB72F970FB6F894DEBFB5
:100AA0000FBECDBFFC019081992309F4C2C038016B
:100AB000822E9F012F5F3F4F3B832A836983442E01
:100AC000512CF2013196FD83EC8392012E5F3F4F52
:100AD0003F832E833296F987E8872E5F3F4F3B870F
:100AE0002A873296FD87EC871201F6E02F0E311C23
:100AF00025E09202C0011124FC01E45EFE4F6F016B
:100B00001F861E86F981EF2EF12C520127E0A20EDE
:100B1000B11C1DC091FC2DC092FC37C093FC41C09C
:100B200094FC4BC095FC55C096FC5FC0000F012F94
:100B3000001F110B012B09F068C02E853F852F5F28
:100B40003F4F3F872E872530310509F468C0F601F5
:100B500091906F01092D10E090FEDCCF482D93019C
:100B6000B2018E859F858E0D9F1D0E940C0191FE06
:100B7000D3CF482D93016C817D818E859F858E0D0D
:100B80009F1D0E940C0192FEC9CF482D93016E81DA
:100B90007F818E859F858E0D9F1D0E940C0193FE87
:100BA000BFCF482D9301688579858E859F858E0DF1
:100BB0009F1D0E940C0194FEB5CF482D93016A85BC
:100BC0007B858E859F858E0D9F1D0E940C0195FE55
:100BD000ABCF482D93016C857D858E859F858E0DCD
:100BE0009F1D0E940C0196FEA1CF482D9301B101DB
:100BF0008E859F858E0D9F1D0E940C01000F012F79
:100C0000001F110B012B09F498CF482D9301B5015A
:100C10008E859F858E0D9F1D0E940C018ECFEA81CF
:100C2000FB819191FB83EA83F981FA5FF98391114A
:100C30005FCF2F960FB6F894DEBF0FBECDBFDF910A
:100C4000CF911F910F91FF90EF90DF90CF90BF90C9
:100C5000AF909F908F907F906F905F904F903F905C
:100C60002F9008952F923F924F925F926F927F92B2
:100C70008F929F92AF92BF92CF92DF92EF92FF92AC
:100C80000F931F93CF93DF93CDB7DEB72C970FB69B
:100C9000F894DEBF0FBECDBF3801822E25E0820260
:100CA000C0011124FC01E45EFE4F6F011C861B860F
:100CB000A42EB12CE62EF12C2501FFEF4F1A5F0A6E
:100CC000150122E0220E311CC50103969A83898307
:100CD000F5013496FC83EB8395012B5F3F4F3E83F8
:100CE0002D83039698878F833396FA87E9871DC0F3
:100CF00091FC2DC092FC36C093FC3FC094FC49C0CF
:100D000095FC53C096FC5DC0000F012F001F110B16
:100D1000012B09F067C02B853C852F5F3F4F3C8737
:100D20002B872530310509F468C0F60191906F01D9
:100D3000092D10E090FEDCCF482D9301B5018B8585
:100D40009C858E0D9F1D0E940C0191FED3CF482DD6
:100D50009301B2018B859C858E0D9F1D0E940C0115
:100D600092FECACF482D9301B1018B859C858E0DD3
:100D70009F1D0E940C0193FEC1CF482D93016981F4
:100D80007A818B859C858E0D9F1D0E940C0194FE9F
:100D9000B7CF482D93016B817C818B859C858E0D0F
:100DA0009F1D0E940C0195FEADCF482D93016D81D2
:100DB0007E818B859C858E0D9F1D0E940C0196FE69
:100DC000A3CF482D93016F8178858B859C858E0DEF
:100DD0009F1D0E940C01000F012F001F110B012B02
:100DE00009F499CF482D930169857A858B859C8577
:100DF0008E0D9F1D0E940C018ECF2C960FB6F8947D
:100E0000DEBF0FBECDBFDF91CF911F910F91FF903D
:100E1000EF90DF90CF90BF90AF909F908F907F909A
:100E20006F905F904F903F902F900895AF92BF9238
:100E3000CF92DF92EF92FF920F93CF93DF93EC016B
:100E40005B016A0179018CEE93E00E944F03FE0181
:100E5000EE0FFF1FE050FF4F808191810E944F03F2
:100E600088EF93E00E944F03C5010E9421040E9475
:100E70004F0382E094E00E944F03C6010E944F039B
:100E8000E114F10439F08CE094E00E944F03C701B3
:100E90000E944F038AE00E943A030111FFCFDF91C5
:100EA000CF910F91FF90EF90DF90CF90BF90AF90D8
:100EB00008956115710519F483E090E00895FC012F
:100EC00020812223C9F30097B9F3FA01918380832B
:100ED00075836483138212828091CC05882319F074
:100EE00084E090E008955093CE054093CD0581E0D5
:100EF0008093CC0580E090E00895AC019091CC0502
:100F0000292F30E02115310539F06091CD05709120
:100F1000CE054617570719F082E090E0089521307A
:100F2000310541F02091CF053091D0053093CE05A9
:100F30002093CD0591509093CC0580E090E00895EA
:100F4000CF92DF92EF92FF920F931F93CF93DF9395
:100F50008A015091CC05552339F0E091CD05F091EF
:100F6000CE058E179F0759F082E090E0DF91CF9178
:100F70001F910F91FF90EF90DF90CF900895060F93
:100F8000171FFC01448155814017510718F483E075
:100F900090E0ECCF428153814F3FFFEF5F07B9F301
:100FA000EB0160177107A0F46C017901E60EF71EE2
:100FB00003C0F60142815381CE01840F951F0E9428
:100FC0001105F70181937F012196C017D10788F39E
:100FD00080E090E0CBCFCF92DF92EF92FF920F9321
:100FE0001F93CF93DF938A015091CC05552339F09D
:100FF000E091CD05F091CE058E179F0759F082E064
:1010000090E0DF91CF911F910F91FF90EF90DF90D3
:10101000CF900895060F171FFC014481558140179A
:10102000510718F483E090E0ECCF428153814F3FA9
:10103000FFEF5F07B9F3EB0160177107A0F46C01D4
:101040007901E60EF71E03C0F60142815381F701D4
:1010500061917F01CE01840F951F0E941305219697
:10106000C017D10788F380E090E0CBCF0F931F9398
:10107000CF93DF93FB012081211107C083E090E033
:10108000DF91CF911F910F91089561157105B1F313
:101090002091CC05222339F02091CD053091CE0549
:1010A0008217930739F082E090E0DF91CF911F9192
:1010B0000F910895EB018C01FC01808191810E94C8
:1010C00015058823D9F2F801D183C08380E090E030
:1010D000D7CF81E090E008950F9381110AC09B0162
:1010E00001E040E954E06AE770E087E090E00E94A8
:1010F00016070F9108950F93009781F0FC01EE0FF2
:10110000FF1FEE5EFE4F2081318101E040E954E097
:1011100060E870E088E090E00E9416070F91089563
:1011200006960895CF93DF9300D0CDB7DEB78091B8
:10113000D7059091D805009751F09C01CE010196FA
:10114000821B930B0F900F90DF91CF9108952BEDA1
:1011500035E0F4CF0F931F93CF93DF9300D0CDB73B
:10116000DEB7009719F1E091D105F091D2053097E3
:1011700051F46CC0A9014A5F5F4F401B510B4817E7
:101180005907E8F4F90122813381008111810A5F56
:101190001F4F0E0F1F1F2115310561F720E030E1B1
:1011A000201B310B2817390708F0A8C080E090E019
:1011B0000F900F90DF91CF911F910F910895D8015B
:1011C00011969C938E9313963C932E93129715969B
:1011D000FC93EE931497A281B38115961C930E9302
:1011E0001497138302832091D3053091D405A9016C
:1011F000481B590B5093D4054093D3058091D505D6
:101200009091D60501969093D6058093D5058AE1F5
:1012100095E00E944F030A5F1F4FC8010E942104FE
:101220000E945E038CE095E00E944F038091D505FB
:101230009091D6050E9421040E945E03C8010F9080
:101240000F90DF91CF911F910F9108952091D705B5
:101250003091D8052115310509F479C0A9019E0105
:101260002F5F3F4F241B350B2817390708F49ECFFB
:10127000E0E0F0E1E21BF30BF093D205E093D1053F
:10128000918380831382128215821482F093D00599
:10129000E093CF05281B390B3093D4052093D30559
:1012A0008091D5059091D60501969093D6058093AF
:1012B000D50588EE94E00E944F038091D10590916E
:1012C000D20506960E9421040E945E038CE095E000
:1012D0000E944F038091D5059091D6050E9421046C
:1012E0000E945E038091D1059091D20506960F90E1
:1012F0000F90DF91CF911F910F910895D801119612
:101300009C938E9313961C921E9212971596FC93A3
:10131000EE931497138302831093D0050093CF05A7
:101320002091D3053091D405A901481B590B509346
:10133000D4054093D3058091D5059091D6050196AB
:101340009093D6058093D50580E495E062CF4BED70
:1013500055E085CF0F93CF93DF93EC01892B09F4F0
:101360004FC02091D1053091D2052115310589F06A
:10137000C9010696F901C817D90731F40EC0CF018B
:1013800006968C179D0749F00280F381E02D309777
:10139000B1F7DF91CF910F910895A481B581109796
:1013A00031F08281938113969C938E931297C28120
:1013B000D381209711F0BD83AC832E173F07D9F05E
:1013C0008091CF059091D0058E179F0769F080918D
:1013D000D5059091D60501979093D6058093D505B4
:1013E000DF91CF910F910895848195819093D005DD
:1013F0008093CF05ECCFD093D205C093D105E0CF39
:1014000000E028E635E046E855E064E670E084E078
:1014100090E00E941607A5CFCF92DF92EF92FF9245
:101420000F93CF937C01C62F6A01892BB1F0C114B1
:10143000D10461F06C2F70E0A601C701CF910F912C
:10144000FF90EF90DF90CF900C94330CCF910F91E1
:10145000FF90EF90DF90CF90089500E029E935E00C
:1014600046E855E064E770E084E090E00E941607EB
:10147000DECF0F93009789F061157105D1F041150A
:10148000510549F0DB01FC01480F591F8D918193F3
:10149000E417F507D9F70F91089500E025EA35E044
:1014A00046E855E06DE770E084E090E00E941607A2
:1014B000F2CF00E022EB35E046E855E061E870E06D
:1014C00084E090E00E941607E6CFEF92FF920F9320
:1014D0001F93CF93DF938C017B0186E090E00E9405
:1014E000AA08EC0187E993E00E944F03CE010E9415
:1014F0006F038DEB93E00E945E03F982E8821B820A
:101500001A821D821C82D80114968D919C91159788
:101510000097C1F0D8011296ED91FC911397D383F7
:10152000C283FD83EC831396DC93CE9312970196CE
:10153000F80195838483DF91CF911F910F91FF90E4
:10154000EF9008951196DC93CE931396DC93CE938F
:101550001297EDCFCF93DF93CDB7DEB72C970FB6B1
:10156000F894DEBF0FBECDBF0E940A0180E895E26D
:101570000E941F032FE13FE34FE16AE070E08AE041
:1015800090E00E940C016FE17FE38FE10E9418015F
:1015900018861F821C861B868FEF9FEF9A8789878C
:1015A000AE01495F5F4F6CE070E08AEA93E00E9411
:1015B00059078CE090E00E94AA088C019C014CE045
:1015C00050E060E070E0CE0107960E94A007C801DD
:1015D0000E945E038CE090E00E94AA087C014CE02F
:1015E00050E06FEA73E00E94390AC7010E944F037E
:1015F0008BEB93E00E944F038FE090E00E94AA08DB
:101600008C014FE050E06EEB73E00E94390AC80194
:101610000E944F038BEB93E00E944F03C7010E948F
:10162000AA09C8010E94AA098BEB93E00E944F030C
:101630008DEC93E00E944F031A8219821C821B8258
:101640001E821D8261E070E0CE0101960E94650A53
:1016500062E070E0CE0101960E94650A99818A815C
:101660002D813E81121613060CF091C0E92FF82F40
:1016700023E030E0318320832D813E811216130652
:101680000CF082C0E92FF82F808191810E94210403
:101690000E944F03E981FA818D819E8102970CF4AB
:1016A00070C00280F381E02D808191810E9421042D
:1016B0000E944F038CEB93E00E944F038D819E812B
:1016C0000E9421040E944F038CEB93E00E944F0381
:1016D0008D819E810097E9F50E9421040E944F03AD
:1016E0008D819E810097E9F40E9421040E944F039E
:1016F0008CEB93E00E944F038D819E810E94210418
:101700000E944F0303C0C8010E94AA090E943E0321
:101710008C01FC0180818823B1F3C8010E944F0332
:10172000F2CFEB81FC8100811181A481B581BC8362
:10173000AB83109721F013961C921E921297CF0143
:101740000E94AA098D819E8101979E838D83C80185
:10175000CBCFEB81FC8100811181A481B581BC8359
:10176000AB83109721F013961C921E921297CF0113
:101770000E94AA098D819E8101979E838D83C80155
:10178000ABCFE0E0F0E090CFE0E0F0E07DCFE0E054
:10179000F0E06ECF97FB072E16F4009407D077FD8C
:1017A00009D00E94FD0B07FC05D03EF49095819571
:1017B0009F4F0895709561957F4F0895052E97FB73
:1017C0001EF400940E94F50B57FD07D00E94110CE7
:1017D00007FC03D04EF40C94F50B509540953095D2
:1017E00021953F4F4F4F5F4F08959095809570958D
:1017F00061957F4F8F4F9F4F0895AA1BBB1B51E1EF
:1018000007C0AA1FBB1FA617B70710F0A61BB70B70
:10181000881F991F5A95A9F780959095BC01CD0115
:101820000895A1E21A2EAA1BBB1BFD010DC0AA1F21
:10183000BB1FEE1FFF1FA217B307E407F50720F039
:10184000A21BB30BE40BF50B661F771F881F991FB4
:101850001A9469F760957095809590959B01AC01FD
:10186000BD01CF010895DC0101C06D93415050408E
:08187000E0F70895F894FFCFA2
:101878001D042C043B04470460046F0478048104AD
:101888008B04A704B004BE04CD04DA04F00A0A0AE3
:1018980010F00A0A0A10F00A0A0A10F00A0A0A10D6
:1018A800F00A0A0A10F00A0A0A10F00A0A0A10F0E6
:1018B8000A0A0A10F00A0A0A10F00A0A0A10F00ABC
:1018C8000A0A10F00A0A0A10F00A0A0A10F00A0AAC
:1018D8000A10F00A0A0A10F00A0A0A10F00A0A0A9C
:1018E80010F00A0A0A10F00A0A0A10F00A0A0A1086
:1018F800F00A0A0A10F00A0A0A10F00A0A0A10F096
:101908000A0A0A10F00A0A0A10F00A0A0A10F00A6B
:101918000A0A10F00A0A0A10F00A0A0A10F00A0A5B
:101928000A10F00A0A0A10F00A0A0A100000000059
:101938000000F6F6000000C000C00028FE28FE28BF
:101948001C2A2A2A18C6C81026C65CA2A25C120045
:1019580000C000000038448200008244380000A023
:1019680040A00010107C10100E0C00000010101089
:101978001010060600000006081020C07C8A92A2FB
:101988007C0042FE020042868A9262448292926CF5
:10199800305090FE10E2A2A2A29C3C5292920C807F
:1019A800809EA0C06C9292926C6092929478006C27
:1019B8006C0000006E6C000080809EA0C028282863
:1019C80028286C9292926C40808A90607C82BA8AB5
:1019D800787E8888887EFE9292926C7C828282448D
:1019E800FE8282827CFE92929282FE909090807C0F
:1019F8008292925CFE101010FE8282FE82820C029D
:101A08000202FCFE10284482FE02020202FE40206E
:101A180040FEFE402010FE7C8282827CFE909090E8
:101A2800607C828A847AFE90989462649292924C46
:101A38008080FE8080FC020202FCF8040204F8FCAC
:101A4800020C02FCC6281028C6E4121212FC868A70
:101A580092A2C2FE82828200C02010080600828202
:101A680082FE2040804020FE828282FEFE828282A8
:101A7800FE042A2A2A1EFE1422221C1C22222214B8
:101A88001C222214FE1C2A2A2A18207EA08040101C
:101A98002A2A2A3CFE2020201E0022BE0200040220
:101AA80002BC00FE080814220082FE02003E203E0E
:101AB800201E3E1020201E1C2222221C3E242424EC
:101AC80018182424243E3E10202010122A2A2A0402
:101AD800207C2202043C0202043E38040204383C02
:101AE800020C023C221408142220120C1020222678
:101AF8002A322200106C82000000FE000000826C76
:101B080010003040201060616C6C6F636174696E06
:101B180067206D656D6F72790A007465737400488B
:101B2800656C6C6F20576F726C64000A0A0054650C
:101B38007374206465206D616C6C6F630054657309
:101B480074696E67206C6973740A00496E697469F8
:101B5800616C697A696E672E2E2E0A004578636576
:101B68007074696F6E3A2000206174206C696E652C
:101B7800200020696E2066696C65200020776974F2
:101B880068206D6573736167653A200A0044697659
:101B9800696465206279207A65726F00496E7661A2
:101BA8006C6964206F70636F646500537461636B64
:101BB800206661756C740047656E6572616C207093
:101BC800726F74656374696F6E206661756C7400FA
:101BD800417267756D656E74206572726F7200531D
:101BE80065637572697479004F766572666C6F7794
:101BF80000417373657274696F6E0046696C6500A5
:101C0800426173654C69622F46696C6553797374D8
:101C1800656D2E637070004E6F206572726F720072
:101C2800556E6B6E6F776E206572726F72004669C3
:101C38006C65206E6F7420666F756E6400496E76F1
:101C4800616C69642066696C65004F7574206F6605
:101C5800206D656D6F72790020312D2D20416C6CDF
:101C68006F636174696E67206D656D6F727920614D
:101C78007420616464726573733A2000426C6F6308
:101C88006B20636F756E743A20002032202D2D2D45
:101C980020416C6C6F636174696E67206D656D6F50
:101CA800727920617420616464726573733A2000EC
:101CB8002033202D202D2D2D20416C6C6F636174F5
:101CC800696E67206D656D6F72792061742061643B
:101CD80064726573733A2000747279696E67207450
:101CE8006F20667265652061206E756C6C20706F60
:101CF800696E74657200426173654C69622F6D6527
:101D08006D6F72792E637070007074722069732021
:101D18006E756C6C0064657374206973206E756CE5
:0E1D28006C00737263206973206E756C6C0022
:00000001FF
