:100000000C9446000C9450000C9450000C9450003A
:100010000C9450000C9450000C9450000C94500020
:100020000C9450000C9450000C9450000C94500010
:100030000C9450000C9450000C9450000C94500000
:100040000C9450000C9450000C9450000C945000F0
:100050000C9450000C9450000C9450000C945000E0
:100060000C9450000C9450000C9450000C945000D0
:100070000C9450000C9450000C9450000C945000C0
:100080000C9450000C9450000C94500011241FBE8E
:10009000CFEFD0E1DEBFCDBF0E94EE020C94F8029C
:1000A0000C9400009FEF9ABB94BB91BBA1E6BB27C9
:1000B0009C939CEF0895A3E6BB277C9174FFFDCF32
:1000C000A2E68C939BBB65BB416042BB97984427DB
:1000D0004C934BBB42BB45BB0895A2E6BB278C9318
:1000E0009BBB99278827A3E67C9174FFE6CF42BB90
:1000F00065BB979A97989F3F11F09395F5CF9927F5
:10010000803811F08395F0CF44274C934BBB42BB12
:1001100045BB089586B3089597FF089591958195FD
:10012000910908950C945200E42FF0E0FE2FEE2781
:10013000FF0FFF0FFF0F90E2399FD0011124EA2B30
:10014000FB2B462F682FCF01822B0C945B00E42FF2
:10015000F0E0FE2FEE27FF0FFF0FFF0F90E2399F19
:10016000D0011124EA2BFB2B462F682FCF01822BC5
:100170000C945B0090E0982F8827990F990F990FA6
:1001800040E2749F90011124822B932B862B0C94B8
:100190006D002F923F924F925F926F927F928F925B
:1001A0009F92AF92BF92CF92DF92EF92FF920F9306
:1001B0001F93CF93DF9300D000D000D0CDB7DEB730
:1001C0009E838D835B013A013A8329834E2D2F2D27
:1001D000B301681B790B4B0177FD88C089819A8137
:1001E0008A199B097C0197FD7CC077FD71C0222490
:1001F0002394312C97FD71C044244394512C640105
:10020000CE18DF08802F90E0982F8827990F990F3C
:10021000990F50E2259F90011124822B932B9C0172
:10022000242B3C832B83002711270E191F098D8156
:100230009E818615970571F18F3F910509F080F435
:1002400090E8A916B10460F44A2D6D818B819C81E0
:100250000E945B004A2D6D818B819C810E945B0016
:10026000C601880F991F0817190744F4CE18DF0834
:100270002D813E81220D331D3E832D8388159905E6
:10028000B4F6C80CD91CA40CB51C8D819E818615B2
:10029000970591F629813A81A216B30669F626964A
:1002A0000FB6F894DEBF0FBECDBFDF91CF911F9187
:1002B0000F91FF90EF90DF90CF90BF90AF909F9005
:1002C0008F907F906F905F904F903F902F90089508
:1002D00022242A94322C97FF8FCF44244A94542C02
:1002E0008ECFEE24FF24E81AF90A7FCF88249924C0
:1002F000861A970A73CF2F923F924F925F926F9216
:100300007F928F929F92AF92BF92CF92DF92EF92A5
:10031000FF920F931F93CF93DF9300D000D000D0B4
:10032000CDB7DEB76C011B015E834D833C832B830D
:10033000CA018C199D094C0197FD46C197FD26C144
:1003400044244394512C602E712C762C6624770C17
:10035000770C770C20E2F29EC0011124682A792ADA
:100360006E285401710186018D819E81801791074D
:1003700039F10F3F110509F070F490E8E916F10426
:1003800050F44E2D602FC3010E945B004E2D602F54
:10039000C3010E945B00C501880F991F181619063A
:1003A00014F4040D151D88159905F4F6A80CB91C54
:1003B0002FEFE21AF20A8D819E8180179107C9F60C
:1003C0002E143F04B1F68B819C81821993099A8384
:1003D000898397FDF2C097FDE5C044244394512CD6
:1003E00089809A80919481949108540171018601C9
:1003F000C016D10629F10F3F110509F070F490E8FD
:10040000E916F10450F44E2D602FC3010E945B00E9
:100410004E2D602FC3010E945B00C501880F991FFC
:100420008816990634F429813A81A21AB30A0F5F1B
:100430001F4F97FFDDCFE40CF51CC016D106D9F68F
:100440008B819C818E159F05B1F69C01C101821B99
:10045000930B9A83898397FDA9C097FD9FC044247D
:100460004394512C89809A809194819491085401ED
:10047000EB80FC800D811E818D819E81801791070C
:1004800039F10F3F110509F070F490E8E916F10415
:1004900050F44E2D602FC3010E945B004E2D602F43
:1004A000C3010E945B00C501880F991F8816990639
:1004B00034F429813A81A21AB30A0F5F1F4F97FFC4
:1004C000DBCFE40CF51C8D819E8180179107C9F666
:1004D0002E143F04B1F69C01C601821B930B5C01F4
:1004E00097FD77C097FD56C088248394912C7501A1
:1004F0000B811C818D819E81C816D90649F18F3FE1
:10050000910509F068F40038110550F4402F6D8111
:10051000C3010E945B00402F6D81C3010E945B00FC
:10052000C701880F991F1816190634F42D813E81D2
:10053000280D391D3E832D838A159B05DCF6EA0CB8
:10054000FB1C0F5F1F4F8D819E81C816D906B9F61F
:100550002B813C812017310791F626960FB6F8942F
:10056000DEBF0FBECDBFDF91CF911F910F91FF90E6
:10057000EF90DF90CF90BF90AF909F908F907F9043
:100580006F905F904F903F902F90089544244A942D
:10059000542CD9CE88248A94982CA9CF44244A94E8
:1005A000542C60CF44244A94542C1ACF222733274A
:1005B000281B390B3A83298350CF22273327281B46
:1005C000390B3A83298307CF88249924881A990AFA
:1005D000B5CEAA24BB24A81AB90A84CF0E949200DF
:1005E00060E07FE180E00E94BA0080E090E0089542
:0405F000F894FFCFAD
:00000001FF
