:100000000C9448000C9472000C9472000C947200D2
:100010000C9472000C9472000C9472000C94720098
:100020000C947B010C9472000C9472000C9472007E
:100030000C9472000C9472000C9472000C94720078
:100040000C9472000C9472000C9472000C94720068
:100050000C9472000C9472000C9472000C94720058
:100060000C9472000C9472000C9472000C94720048
:100070000C9472000C9472000C9472000C94720038
:100080000C9472000C9472000C947200260E2F0EC9
:1000900011241FBECFEFD0E1DEBFCDBF15E0A0E041
:1000A000B1E0E2E9FDE100E00BBF02C007900D9274
:1000B000A033B107D9F725E0A0E3B5E001C01D9258
:1000C000AB34B207E1F710E0C7E4D0E004C02197F9
:1000D000FE010E94AC0EC634D107C9F70E94F80C8D
:1000E0000C94BC0E0C9400009FEF9ABB94BB91BB88
:1000F000BB27A4E690E09C93A1E69FEF9C93089514
:10010000A3E6BB277C9174FF16C07FEFA1E67C932A
:10011000A2E68C937ABB9BBB65BB42BB979A00005F
:10012000979844274C934BBB4ABBA1E64C9342BBE8
:1001300045BB80E0089581E00895A3E6BB277C914C
:1001400074FFFDCF7FEFA1E67C93A2E68C937ABB90
:100150009BBB65BB42BB979A0000979844274C9382
:100160004BBB4ABBA1E64C9342BB45BB0895A2E6FC
:10017000BB278C939BBB99278827A3E67C9174FFB0
:10018000DECF42BB65BB979A97989F3F11F093953E
:10019000F5CF9927803811F08395F0CF44274C9301
:1001A0004BBB42BB45BB4ABBA1E64C93089590E0D4
:1001B00097BB86B308959FEF97BB88BB0895809344
:1001C00029009093900088E180932A0086E0809334
:1001D0009500089590912B0095FFFCCF80932C0003
:1001E000089580912B0085FFFCCF80912C0008950D
:1001F000B92FA82F90912B0095FFFCCF80912C0058
:100200008A3021F08D930E94EA00F4CF8AE00E94A8
:10021000EA0001C0089580912B0085FF08958CB5F8
:10022000FACFAEE3BCE91197F1F7000008958FE72C
:10023000AEE3BCE91197F1F78A95D1F70000089574
:10024000E199FECF9FBB8EBBE09A8DB30895E199F3
:10025000FECF9FBB8EBB6DBBE29AE19A08959FEFE4
:1002600092B983B9BB27A4E69FE09C93A5E69FEFD4
:100270009C930895CF93DF93C6EED3E089E40E9468
:10028000EA0089918111FBCF809134059091350569
:10029000892B69F1E0913005F09131054181608150
:1002A000828193810E948000882319F0DF91CF9191
:1002B00008958091300590913105DC011496ED91FF
:1002C000FC911597F0933105E0933005309711F0CC
:1002D000178216820E94B10B8091340590913505EA
:1002E00001979093350580933405892B99F6F894FE
:1002F000DF91CF9108951F920F920FB60F921124A4
:100300000BB60F922F933F934F935F936F937F930F
:100310008F939F93AF93BF93EF93FF930E943A0104
:10032000FF91EF91BF91AF919F918F917F916F91CD
:100330005F914F913F912F910F900BBE0F900FBE89
:100340000F901F90189597FF0895919581959109A9
:100350000895861797070CF4CB010895681779075D
:100360000CF4CB0108950E94740017981F9A89B766
:10037000806889BF8AB7806C8ABF789408950F938C
:100380001F93CF93DF93082F162FC42FD0E0DC2FBD
:10039000CC27DD0FDD0FDD0F40E2349FC0011124BB
:1003A000C82BD92BC22B88E090E00E940C0BFC01DB
:1003B00000831183D383C28315821482178216822D
:1003C00080913405909135050097C9F0A0913205D0
:1003D000B09133051596FC93EE931497B783A683DB
:1003E000F0933305E09332050196909335058093A1
:1003F00034057894DF91CF911F910F910895F09378
:100400003105E0933005F0933305E0933205ECCFEE
:100410000F931F93CF93DF93082F162FC42FD0E095
:10042000DC2FCC27DD0FDD0FDD0F40E2349FC00154
:100430001124C82BD92BC22B88E090E00E940C0B12
:10044000FC0100831183D383C28315821482178237
:10045000168280913405909135050097C9F0A091DE
:100460003205B09133051596FC93EE931497B7833C
:10047000A683F0933305E0933205019690933505FA
:10048000809334057894DF91CF911F910F91089557
:10049000F0933105E0933005F0933305E093320596
:1004A000ECCF0F931F93CF93DF93062F182F110FCD
:1004B000C42FD0E0DC2FCC27DD0FDD0FDD0F40E2B5
:1004C000349FC0011124C82BD92BC22B462F612F7A
:1004D000CE010E949D00402F612FCE010E949D0001
:1004E0001F5F402F612FCE010E949D00402F612F82
:1004F000CE01DF91CF911F910F910C949D0090E060
:10050000982F8827990F990F990F40E2749F9001B7
:100510001124822B932B862B0C94B7002F923F92A1
:100520004F925F926F927F928F929F92AF92BF9203
:10053000CF92DF92EF92FF920F931F93CF93DF93AF
:1005400000D000D000D0CDB7DEB79E838D835B0195
:100550003A013A8329834E2D2F2DB301681B790B65
:100560004B0177FD88C089819A818A199B097C019A
:1005700097FD7CC077FD71C022242394312C97FD18
:1005800071C044244394512C6401CE18DF08802F9D
:1005900090E0982F8827990F990F990F50E2259F87
:1005A00090011124822B932B9C01242B3C832B83C1
:1005B000002711270E191F098D819E818615970529
:1005C00071F18F3F910509F080F490E8A916B1040C
:1005D00060F44A2D6D818B819C810E949D004A2D83
:1005E0006D818B819C810E949D00C601880F991F9F
:1005F0000817190744F4CE18DF082D813E81220D1B
:10060000331D3E832D8388159905B4F6C80CD91C7B
:10061000A40CB51C8D819E818615970591F62981C4
:100620003A81A216B30669F626960FB6F894DEBF95
:100630000FBECDBFDF91CF911F910F91FF90EF9033
:10064000DF90CF90BF90AF909F908F907F906F90F2
:100650005F904F903F902F90089522242A94322C3F
:1006600097FF8FCF44244A94542C8ECFEE24FF243E
:10067000E81AF90A7FCF88249924861A970A73CF3B
:100680002F923F924F925F926F927F928F929F92A2
:10069000AF92BF92CF92DF92EF92FF920F931F9390
:1006A000CF93DF9300D000D000D0CDB7DEB76C0180
:1006B0001B015E834D833C832B83CA018C199D09EA
:1006C0004C0197FD46C197FD26C144244394512C0B
:1006D000602E712C762C6624770C770C770C20E238
:1006E000F29EC0011124682A792A6E2854017101F2
:1006F00086018D819E818017910739F10F3F110589
:1007000009F070F490E8E916F10450F44E2D602FD2
:10071000C3010E949D004E2D602FC3010E949D00C9
:10072000C501880F991F1816190614F4040D151D1C
:1007300088159905F4F6A80CB91C2FEFE21AF20AF5
:100740008D819E8180179107C9F62E143F04B1F662
:100750008B819C81821993099A83898397FDF2C0CA
:1007600097FDE5C044244394512C89809A8091944C
:1007700081949108540171018601C016D10629F1B6
:100780000F3F110509F070F490E8E916F10450F4F8
:100790004E2D602FC3010E949D004E2D602FC3017E
:1007A0000E949D00C501880F991F8816990634F490
:1007B00029813A81A21AB30A0F5F1F4F97FFDDCF3D
:1007C000E40CF51CC016D106D9F68B819C818E15E0
:1007D0009F05B1F69C01C101821B930B9A8389830B
:1007E00097FDA9C097FD9FC044244394512C898054
:1007F0009A809194819491085401EB80FC800D8142
:100800001E818D819E818017910739F10F3F11055F
:1008100009F070F490E8E916F10450F44E2D602FC1
:10082000C3010E949D004E2D602FC3010E949D00B8
:10083000C501880F991F8816990634F429813A81D9
:10084000A21AB30A0F5F1F4F97FFDBCFE40CF51C12
:100850008D819E8180179107C9F62E143F04B1F651
:100860009C01C601821B930B5C0197FD77C097FD2D
:1008700056C088248394912C75010B811C818D8135
:100880009E81C816D90649F18F3F910509F068F499
:100890000038110550F4402F6D81C3010E949D0066
:1008A000402F6D81C3010E949D00C701880F991FD1
:1008B0001816190634F42D813E81280D391D3E830A
:1008C0002D838A159B05DCF6EA0CFB1C0F5F1F4F7E
:1008D0008D819E81C816D906B9F62B813C812017DF
:1008E000310791F626960FB6F894DEBF0FBECDBF46
:1008F000DF91CF911F910F91FF90EF90DF90CF90FC
:10090000BF90AF909F908F907F906F905F904F902F
:100910003F902F90089544244A94542CD9CE882493
:100920008A94982CA9CF44244A94542C60CF442410
:100930004A94542C1ACF22273327281B390B3A8389
:10094000298350CF22273327281B390B3A83298349
:1009500007CF88249924881A990AB5CEAA24BB24E3
:10096000A81AB90A84CF0C94D7000C94DB00CF935B
:10097000DF939C01990F440B550B60E472E48FE008
:1009800090E00E94570E8FEF820F0E94DF00CCEEA6
:10099000D3E089E40E94EA0089918111FBCFDF91C5
:1009A000CF9108950C94EA000C94F100CF93DF935B
:1009B00080E091E00E940C0BEC010E94F800CE0157
:1009C000DF91CF9108950C9417010C941101CF93EE
:1009D000DF93EC018881882331F021960E94EA00A0
:1009E00089918111FBCFDF91CF910895CF93DF9350
:1009F000EC018881882331F021960E94EA008991D8
:100A00008111FBCF8AE0DF91CF910C94EA000F9324
:100A10001F93CF93DF9397FD14C0009709F090C008
:100A200080E38093360510923705C7E3D5E00E9436
:100A3000EA0089918111FBCFDF91CF911F910F9136
:100A400008952DE2209336059195819591096AE0EC
:100A500070E00E94430E805D80933705FB01309764
:100A600009F47BC0C2E0D0E09E012A5C3A4F0AE064
:100A700010E0CF01B8010E94430E805DD9018C9334
:100A80009E012F5F3F4F6115710571F12A5C3A4F4E
:100A9000CB01B8010E94430E805DD9018C93CF0138
:100AA00064E670E00E94430ECB019E012E5F3F4F33
:100AB0000097D1F02A5C3A4FB8010E94430E805D46
:100AC000D9018C93CF0168EE73E00E94430E9E0122
:100AD0002D5F3F4F6115710539F0F901EA5CFA4F5E
:100AE000605D60832F5F3F4FF901EA5CFA4F10822F
:100AF000C9019595879540913605F901EB5CFA4F50
:100B0000508150933605408381309105A1F040918A
:100B10003705F901EC5CFA4F50815093370540835B
:100B2000029749F080913805F901ED5CFA4F908108
:100B300090933805808380913605811176CF7CCFE4
:100B40006AE070E00E94430E805D80933605FB01F1
:100B5000309751F0C1E0D0E087CF109238058093F4
:100B6000360520933705E7CF10923705E6CF0C9472
:100B70002F010F931F93CF93DF9397FD0FC0009723
:100B800009F0D0C080E3809336051092370586E3E4
:100B900095E0DF91CF911F910F9108952DE2209361
:100BA00036059195819591096AE070E00E94430EA7
:100BB000805D80933705FB01309709F4C0C0C2E027
:100BC000D0E09E012A5C3A4F0AE010E0CF01B80164
:100BD0000E94430E805DD9018C939E012F5F3F4F91
:100BE0006115710571F12A5C3A4FCB01B8010E9481
:100BF000430E805DD9018C93CF0164E670E00E94C2
:100C0000430ECB019E012E5F3F4F0097D1F02A5C2F
:100C10003A4FB8010E94430E805DD9018C93CF01F9
:100C200068EE73E00E94430E9E012D5F3F4F6115F9
:100C3000710539F0F901EA5CFA4F605D60832F5F5E
:100C40003F4FF901EA5CFA4F1082C90195958795EB
:100C500040913605F901EB5CFA4F5081509336050F
:100C600040838130910509F492CF40913705F90115
:100C7000EC5CFA4F508150933705408382309105E8
:100C800009F485CF40913805F901ED5CFA4F5081A8
:100C90005093380540838330910509F478CF409113
:100CA0003905F901EE5CFA4F5081509339054083C4
:100CB0008430910509F46BCF40913A05F901EF5C5E
:100CC000FA4F508150933A0540838530910509F4DD
:100CD0005ECF40913B05F901E05DFA4F50815093A2
:100CE0003B0540838630910509F451CF40913C0586
:100CF000F901E15DFA4F508150933C05408307971D
:100D000009F445CF80913D05F901E25DFA4F9081EC
:100D100090933D05808386E395E0DF91CF911F910D
:100D20000F9108956AE070E00E94430E805D809309
:100D30003605FB01309751F0C1E0D0E042CF109270
:100D40003805809336052093370521CF109237055B
:100D50001ECF0C9420010C942701DC01FB019C9117
:100D60009923E1F080818823A1F0891310C01196A6
:100D700005C0222371F0FA01921309C0AF014F5F41
:100D80005F4F9D9121819111F4CF81E0921380E01A
:100D9000089520E081E09213FACFFACF2081F5CFB9
:100DA0002F923F924F925F926F927F928F929F927B
:100DB000AF92BF92CF92DF92EF92FF920F931F9369
:100DC000CF93DF93CDB7DEB72F970FB6F894DEBF82
:100DD0000FBECDBFFC019081992309F4C2C0380138
:100DE000822E9F012F5F3F4F3B832A836983442ECE
:100DF000512CF2013796FD83EC8392012A5F3F4F1D
:100E00003F832E833297F987E887225031093B8749
:100E10002A873297FD87EC871201F2E02F0E311CF2
:100E200025E09202C0011124FC01EE5DFE4F6F012E
:100E30001F861E86F981EF2EF12C52012FEFA21A88
:100E4000B20A1DC091FC2EC092FC38C093FC42C077
:100E500094FC4CC095FC56C096FC5FC0000F012F5F
:100E6000001F110B012B09F068C02E853F852F5FF5
:100E70003F4F3F872E872530310509F468C0F601C2
:100E800091906F01092D10E090FEDCCF482D930169
:100E90006E857F856E0D7F1D8C819D810E9408026D
:100EA00091FED2CF482D93016E857F856E0D7F1DFB
:100EB0008E819F810E94080292FEC8CF482D930127
:100EC0006E857F856E0D7F1D888599850E9408023D
:100ED00093FEBECF482D93016E857F856E0D7F1DDD
:100EE0008A859B850E94080294FEB4CF482D930109
:100EF0006E857F856E0D7F1D8C859D850E94080205
:100F000095FEAACF482D93016E857F856E0D7F1DBE
:100F1000C1010E94080296FEA1CF482D93016E8563
:100F20007F856E0D7F1DC5010E940802000F012FF5
:100F3000001F110B012B09F498CF482D93016E85EA
:100F40007F856E0D7F1DC2010E9408028ECFEA814F
:100F5000FB819191FB83EA83F981FA5FF983911117
:100F60005FCF2F960FB6F894DEBF0FBECDBFDF91D7
:100F7000CF911F910F91FF90EF90DF90CF90BF9096
:100F8000AF909F908F907F906F905F904F903F9029
:100F90002F9008952F923F924F925F926F927F927F
:100FA0008F929F92AF92BF92CF92DF92EF92FF9279
:100FB0000F931F93CF93DF93CDB7DEB72C970FB668
:100FC000F894DEBF0FBECDBF3801822E25E082022D
:100FD000C0011124FC01EE5DFE4F6F011C861B86D3
:100FE000A42EB12CE62EF12C2501FFEF4F1A5F0A3B
:100FF000150122E0220E311CC50103969A838983D4
:10100000F5013496FC83EB8395012B5F3F4F3E83C4
:101010002D83039698878F833396FA87E9871DC0BF
:1010200091FC2DC092FC36C093FC3FC094FC49C09B
:1010300095FC53C096FC5DC0000F012F001F110BE3
:10104000012B09F067C02B853C852F5F3F4F3C8704
:101050002B872530310509F468C0F60191906F01A6
:10106000092D10E090FEDCCF482D9301B5018B8552
:101070009C858E0D9F1D0E94080291FED3CF482DA6
:101080009301B2018B859C858E0D9F1D0E940802E5
:1010900092FECACF482D9301B1018B859C858E0DA0
:1010A0009F1D0E94080293FEC1CF482D93016981C4
:1010B0007A818B859C858E0D9F1D0E94080294FE6F
:1010C000B7CF482D93016B817C818B859C858E0DDC
:1010D0009F1D0E94080295FEADCF482D93016D81A2
:1010E0007E818B859C858E0D9F1D0E94080296FE39
:1010F000A3CF482D93016F8178858B859C858E0DBC
:101100009F1D0E940802000F012F001F110B012BD1
:1011100009F499CF482D930169857A858B859C8543
:101120008E0D9F1D0E9408028ECF2C960FB6F8944C
:10113000DEBF0FBECDBFDF91CF911F910F91FF900A
:10114000EF90DF90CF90BF90AF909F908F907F9067
:101150006F905F904F903F902F9008952F923F9205
:101160004F925F926F927F928F929F92AF92BF92B7
:10117000CF92DF92EF92FF920F931F93CF93DF9363
:10118000CDB7DEB72C970FB6F894DEBF0FBECDBF3C
:101190003801822E25E08202C0011124FC01EE5D9F
:1011A000FE4F6F011C861B86E62EF12CA42EB12C5F
:1011B0002501F7E04F0E511C150126E0220E311CCF
:1011C000C50105969A838983F5013496FC83EB83E8
:1011D00095012D5F3F4F3E832D83039798878F8323
:1011E0003397FA87E9871DC091FC2DC092FC36C069
:1011F00093FC40C094FC4AC095FC54C096FC5EC071
:10120000000F012F001F110B012B09F068C02B8567
:101210003C852F5F3F4F3C872B872530310509F4F4
:1012200068C0F60191906F01092D10E090FEDCCFAF
:10123000482D93016B857C856E0D7F1DC2010E9438
:10124000080291FED3CF482D93016B857C856E0DEE
:101250007F1DC1010E94080292FECACF482D930152
:101260006B857C856E0D7F1D89819A810E940802A5
:1012700093FEC0CF482D93016B857C856E0D7F1D3D
:101280008B819C810E94080294FEB6CF482D930169
:101290006B857C856E0D7F1D8D819E810E9408026D
:1012A00095FEACCF482D93016B857C856E0D7F1D1F
:1012B0008F8198850E94080296FEA2CF482D930147
:1012C0006B857C856E0D7F1D89859A850E9408023D
:1012D000000F012F001F110B012B09F498CF482D8F
:1012E00093016B857C856E0D7F1DC5010E940802F0
:1012F0008ECF2C960FB6F894DEBF0FBECDBFDF9118
:10130000CF911F910F91FF90EF90DF90CF90BF9002
:10131000AF909F908F907F906F905F904F903F9095
:101320002F900895AF92BF92CF92DF92EF92FF92EB
:101330000F93CF93DF93EC015B016A0179018CEF8E
:1013400093E00E94E704FE01EE0FFF1FE050FF4F05
:10135000808191810E94E70488E094E00E94E70484
:10136000C5010E94B9050E94E70482E194E00E9451
:10137000E704C6010E94E704E114F10439F08CE1AE
:1013800094E00E94E704C7010E94E7048AE00E94FB
:10139000D2040111FFCFDF91CF910F91FF90EF9019
:1013A000DF90CF90BF90AF9008956115710519F44B
:1013B00083E090E00895FC0120812223C9F3009787
:1013C000B9F3FA0191838083758364831382128257
:1013D00080914405882319F084E090E008955093AB
:1013E00046054093450581E08093440580E090E008
:1013F0000895AC0190914405292F30E02115310565
:1014000039F060914505709146054617570719F068
:1014100082E090E008952130310541F020914705A8
:10142000309148053093460520934505915090939F
:10143000440580E090E00895CF92DF92EF92FF9212
:101440000F931F93CF93DF938A0150914405552347
:1014500039F0E0914505F09146058E179F0759F048
:1014600082E090E0DF91CF911F910F91FF90EF907C
:10147000DF90CF900895060F171FFC01448155811E
:101480004017510718F483E090E0ECCF428153817C
:101490004F3FFFEF5F07B9F3EB0160177107A0F44F
:1014A0006C017901E60EF71E03C0F60142815381FB
:1014B000CE01840F951F0E94A906F70181937F0139
:1014C0002196C017D10788F380E090E0CBCFCF9270
:1014D000DF92EF92FF920F931F93CF93DF938A01D6
:1014E00050914405552339F0E0914505F0914605AA
:1014F0008E179F0759F082E090E0DF91CF911F9106
:101500000F91FF90EF90DF90CF900895060F171F77
:10151000FC01448155814017510718F483E090E0A5
:10152000ECCF428153814F3FFFEF5F07B9F3EB01EF
:1015300060177107A0F46C017901E60EF71E03C075
:10154000F60142815381F70161917F01CE01840F41
:10155000951F0E94AB062196C017D10788F380E043
:1015600090E0CBCF0F931F93CF93DF93FB012081AC
:10157000211107C083E090E0DF91CF911F910F917F
:10158000089561157105B1F320914405222339F0C6
:1015900020914505309146058217930739F082E086
:1015A00090E0DF91CF911F910F910895EB018C0195
:1015B000FC01808191810E94AD068823D9F2F80157
:1015C000D183C08380E090E0D7CF81E090E00895A0
:1015D0000F9381110AC09B0101E040EA54E06AE7E1
:1015E00070E087E090E00E9492090F9108950F93B8
:1015F000009781F0FC01EE0FFF1FEE5EFE4F208191
:10160000318101E040EA54E060E870E088E090E079
:101610000E9492090F910895CF93DF938230910534
:1016200008F46EC0E0914705F09148053097B1F19C
:1016300040E050E0A0E0B0E001C0F901208131813C
:101640002817390768F08217930709F44FC041152E
:10165000510519F02417350718F4A901BD01EF0150
:1016600022813381DF012115310539F741155105FB
:10167000A9F0481B590B4430510508F044C08A8139
:101680009B816115710509F460C0FB01938382831E
:10169000FE013296CF01DF91CF910895E091490587
:1016A000F0914A05309709F447C020911C01309110
:1016B0001D0121153105B9F1E217F30788F52E1B3D
:1016C0003F0B2817390760F1AC014E5F5F4F2417BD
:1016D000350730F14E0F5F1F50934A05409349057F
:1016E00081939193CF01DF91CF910895828193816E
:1016F000109789F113969C938E9312973296CACFC6
:1017000082E090E08FCFFE01E40FF51F819391936B
:101710004250510959834883CF01DF91CF910895F9
:10172000E0E0F0E0DFCF2DB73EB7409120015091CF
:101730002101241B350BC0CFE0911E01F0911F0148
:10174000F0934A05E0934905B0CF90934805809304
:101750004705FE019ECF909348058093470532963A
:1017600099CF0F931F93CF93DF93009709F44AC04B
:101770008C0102501109E8011B821A82A0914705D1
:10178000B0914805109709F467C0A017B10708F099
:1017900081C01296ED91FC911397309709F495C092
:1017A000AD0101C0F901E017F10788F5228133810D
:1017B000AF0121153105B1F713830283EF012991A0
:1017C0003991CE01820F931F0817190709F454C0ED
:1017D000E0E0F0E002C0FD01DC0112968D919C91E9
:1017E00013970097C1F78D919C9111979D012E5FE2
:1017F0003F4F820F931F2091490530914A052817CA
:101800003907E1F0DF91CF911F910F910895E80121
:10181000FB83EA8328813981820F931FE817F90738
:1018200009F443C0FA01452B39F61093480500939B
:101830004705DF91CF911F910F910895309709F4DB
:1018400046C013821282B0934A05A0934905DF91E6
:10185000CF911F910F91089528813981820F931F95
:101860002091490530914A0528173907F1F6109360
:101870004A0500934905C6CFE80188819981280F60
:10188000391F2E5F3F4F318320838A819B81938351
:1018900082839ECFBB83AA8328813981820F931FC5
:1018A000A817B90711F640E050E0FC016081718192
:1018B0006E5F7F4F260F371FE801398328838281AF
:1018C00093819B838A83FA01AECFFD0175CF10927D
:1018D000480510924705B7CFCF92DF92EF92FF9263
:1018E0000F93CF937C01C62F6A01892BB1F0C114ED
:1018F000D10461F06C2F70E0A601C701CF910F9168
:10190000FF90EF90DF90CF900C94B50ECF910F9198
:10191000FF90EF90DF90CF90089500E028EF34E043
:1019200044E055E068E970E084E090E00E949209AC
:10193000DECF0F93009789F061157105D1F0411545
:10194000510549F0DB01FC01480F591F8D9181932E
:10195000E417F507D9F70F91089500E027E135E086
:1019600044E055E061EA70E084E090E00E94920972
:10197000F2CF00E024E235E044E055E065EA70E0B3
:1019800084E090E00E949209E6CF0F931F93CF93DB
:10199000DF93EC018B0186E090E00E940C0BFC01D0
:1019A0001183008313821282158214828C819D819F
:1019B000009791F0AA81BB811396FC93EE93129746
:1019C000B583A483FB83EA8301969D838C83DF9197
:1019D000CF911F910F910895F983E883FB83EA83E8
:1019E00001969D838C83DF91CF911F910F91089574
:1019F000CF93DF93CDB7DEB72C970FB6F894DEBF49
:101A00000FBECDBF0E94B30180E895E20E94B704EB
:101A100018861F821C861B868FEF9FEF9A87898707
:101A2000AE01495F5F4F6CE070E08DE993E00E948A
:101A3000D5098CE090E00E940C0B8C019C014CE0DD
:101A400050E060E070E0CE0107960E941C0AC801D9
:101A50000E94F6048CE090E00E940C0B7C014CE0AC
:101A600050E062EA73E00E94990CC7010E94E7040B
:101A70008EEA93E00E94E7048FE090E00E940C0B56
:101A80008C014FE050E061EB73E00E94990CC801BB
:101A90000E94E7048EEA93E00E94E704C7010E94D7
:101AA000B10BC8010E94B10B8EEA93E00E94E704DB
:101AB00080EC93E00E94E7041A8219821C821B8248
:101AC0001E821D8261E070E0CE0101960E94C50C6D
:101AD00062E070E0CE0101960E94C50C99818A8176
:101AE0002D813E81121613060CF0ADC0E92FF82FA0
:101AF00023E030E0318320832D813E8112161306CE
:101B00000CF09EC0E92FF82F808191810E94B905C9
:101B10000E94E704E981FA818D819E8102970CF48D
:101B20008CC00280F381E02D808191810E94B905F3
:101B30000E94E7048FEA93E00E94E7048D819E8172
:101B40000E94B9050E94E7048FEA93E00E94E7042F
:101B50008D819E81009709F058C00E94B9050E94AE
:101B6000E7048D819E810097C1F50E94B9050E940E
:101B7000E7048FEA93E00E94E7048D819E810E9432
:101B80000705E12CF12C00E010E020E030E04FE10F
:101B9000B801C7010E9408020F5F1F4F00381105EE
:101BA000A1F78FEFE81AF80AE11481E0F80659F777
:101BB0000FE11FE32FE14AE06AE08EEC93E00E9420
:101BC000D0062FE144E16AE084ED93E00E94D00664
:101BD00089ED93E00E94E704FFCFEB81FC81008157
:101BE0001181A481B581BC83AB83109721F013963A
:101BF0001C921E921297CF010E94B10B8D819E8183
:101C000001979E838D83C801B0CFEB81FC81008159
:101C10001181A481B581BC83AB83109721F0139609
:101C20001C921E921297CF010E94B10B8D819E8152
:101C300001979E838D83C80190CFE0E0F0E074CFE0
:101C4000E0E0F0E061CFE0E0F0E052CFE0E3F5E08B
:101C50001182108213821282158214820895CF930A
:101C6000DF938091300590913105009749F0FC0198
:101C7000D481C5810E94B10B8D2F9C2F0097B9F79D
:101C8000DF91CF91089597FB072E16F4009407D0AB
:101C900077FD09D00E94760E07FC05D03EF49095A2
:101CA00081959F4F0895709561957F4F0895052EFA
:101CB00097FB1EF400940E946E0E57FD07D00E9401
:101CC0008A0E07FC03D04EF40C946E0E509540958E
:101CD000309521953F4F4F4F5F4F089590958095D8
:101CE000709561957F4F8F4F9F4F0895AA1BBB1B27
:101CF00051E107C0AA1FBB1FA617B70710F0A61B0C
:101D0000B70B881F991F5A95A9F780959095BC012C
:101D1000CD010895A1E21A2EAA1BBB1BFD010DC027
:101D2000AA1FBB1FEE1FFF1FA217B307E407F5078B
:101D300020F0A21BB30BE40BF50B661F771F881F67
:101D4000991F1A9469F760957095809590959B01FD
:101D5000AC01BD01CF010895EE0FFF1F0024001C50
:101D60000BBE0790F691E02D0994DC0101C06D9344
:101D700041505040E0F7089510E0C7E4D0E004C0BF
:101D8000FE010E94AC0E2196C834D107C9F7F89421
:021D9000FFCF83
:101D92002D043C044B04570470047F04880491040E
:101DA2009B04B704C004CE04DD04EA0400004B0522
:101DB2002000F00A0A0A10F00A0A0A10F00A0A0AB7
:101DC20010F00A0A0A10F00A0A0A10F00A0A0A10A7
:101DD200F00A0A0A10F00A0A0A10F00A0A0A10F0B7
:101DE2000A0A0A10F00A0A0A10F00A0A0A10F00A8D
:101DF2000A0A10F00A0A0A10F00A0A0A10F00A0A7D
:101E02000A10F00A0A0A10F00A0A0A10F00A0A0A6C
:101E120010F00A0A0A10F00A0A0A10F00A0A0A1056
:101E2200F00A0A0A10F00A0A0A10F00A0A0A10F066
:101E32000A0A0A10F00A0A0A10F00A0A0A10F00A3C
:101E42000A0A10F00A0A0A10F00A0A0A10F00A0A2C
:101E52000A10000000000000F6F6000000C000C0FA
:101E62000028FE28FE281C2A2A2A18C6C81026C6C0
:101E72005CA2A25C120000C0000000384482000094
:101E82008244380000A040A00010107C10100E0CFC
:101E920000000010101010100606000000060810C6
:101EA20020C07C8A92A27C0042FE020042868A9274
:101EB20062448292926C305090FE10E2A2A2A29CE6
:101EC2003C5292920C80809EA0C06C9292926C6066
:101ED20092929478006C6C0000006E6C000080801E
:101EE2009EA0C028282828286C9292926C40808A52
:101EF20090607C82BA8A787E8888887EFE929292EE
:101F02006C7C82828244FE8282827CFE92929282E7
:101F1200FE909090807C8292925CFE101010FE8265
:101F220082FE82820C020202FCFE10284482FE0221
:101F3200020202FE402040FEFE402010FE7C828211
:101F4200827CFE909090607C828A847AFE90989443
:101F520062649292924C8080FE8080FC020202FCBB
:101F6200F8040204F8FC020C02FCC6281028C6E49D
:101F7200121212FC868A92A2C2FE82828200C020C3
:101F820010080600828282FE2040804020FE82826B
:101F920082FEFE828282FE042A2A2A1EFE14222247
:101FA2001C1C222222141C222214FE1C2A2A2A1859
:101FB200207EA08040102A2A2A3CFE2020201E00DB
:101FC20022BE0200040202BC00FE080814220082A3
:101FD200FE02003E203E201E3E1020201E1C222219
:101FE200221C3E24242418182424243E3E1020209F
:101FF20010122A2A2A04207C2202043C0202023CF9
:1020020038040204383C020C023C22140814222038
:10201200120C102022262A322200106C82000000AC
:10202200FE000000826C1000304020106074657366
:1020320074006C6F6C6F6C6F6C6F6C6F6C000A0A63
:102042000054657374206465206D616C6C6F63006D
:1020520054657374696E67206C6973740A005175F4
:102062006F693F00466575720054657374696E67E7
:10207200204F530A00494E54370A00496E69746969
:10208200616C697A696E672E2E2E0A004578636547
:102092007074696F6E3A2000206174206C696E65FD
:1020A200200020696E2066696C65200020776974C3
:1020B20068206D6573736167653A200A004469762A
:1020C200696465206279207A65726F00496E766173
:1020D2006C6964206F70636F646500537461636B35
:1020E200206661756C740047656E6572616C207064
:1020F200726F74656374696F6E206661756C7400CB
:10210200417267756D656E74206572726F720053ED
:1021120065637572697479004F766572666C6F7764
:1021220000417373657274696F6E0046696C650075
:10213200426173654C69622F46696C6553797374A9
:10214200656D2E637070004E6F206572726F720043
:10215200556E6B6E6F776E206572726F7200466994
:102162006C65206E6F7420666F756E6400496E76C2
:10217200616C69642066696C65004F7574206F66D6
:10218200206D656D6F727900707472206973206EB4
:10219200756C6C00426173654C69622F6D656D6F81
:1021A20072792E6370700064657374206973206E97
:1021B200756C6C00737263206973206E756C6C00B1
:00000001FF
