:100000000C9448000C9472000C9472000C947200D2
:100010000C9472000C9472000C9472000C94720098
:100020000C9471010C9472000C9472000C94720088
:100030000C9472000C9472000C9472000C94720078
:100040000C9472000C9472000C9472000C94720068
:100050000C9472000C9472000C9472000C94720058
:100060000C9472000C9472000C9472000C94720048
:100070000C9472000C9472000C9472000C94720038
:100080000C9472000C9472000C9472002F0F380FB5
:1000900011241FBECFEFD0E1DEBFCDBF15E0A0E041
:1000A000B1E0E4EAFFE100E00BBF02C007900D926F
:1000B000A435B107D9F725E0A4E5B5E001C01D924C
:1000C000AF36B207E1F710E0C7E4D0E004C02197F3
:1000D000FE010E94B50FC634D107C9F70E94140E65
:1000E0000C94C50F0C9400009FEF9ABB94BB91BB7E
:1000F000BB27A4E690E09C93A1E69FEF9C93089514
:10010000A3E6BB277C9174FF19C07FEFA1E67C9327
:10011000A2E68C937ABB9BBB65BB42BB979A979830
:1001200044274C934BBB4ABBA1E64C9342BB45BB17
:1001300080E0A3E67C9174FF81E0089581E008955A
:10014000A3E6BB277C9174FFFDCF7FEFA1E67C93F4
:10015000A2E68C937ABB9BBB65BB42BB979A9798F0
:1001600044274C934BBB4ABBA1E64C9342BB45BBD7
:100170000895A2E6BB278C939BBB99278827A3E60B
:100180007C9174FFDFCF42BB65BB979A97989F3FE6
:1001900011F09395F5CF9927803811F08395F0CF22
:1001A00044274C934BBB42BB45BB4ABBA1E64C9397
:1001B000089590E097BB86B308959FEF97BB88BBE7
:1001C0000895809329009093900088E180932A00FD
:1001D00086E080939500089590912B0095FFFCCFC9
:1001E00080932C00089580912B0085FFFCCF809197
:1001F0002C000895B92FA82F90912B0095FFFCCFCC
:1002000080912C008A3021F08D930E94EC00F4CF75
:100210008AE00E94EC0001C0089580912B0085FFC8
:1002200008958CB5FACFAEE3BCE91197F1F7000061
:1002300008958FE7AEE3BCE91197F1F78A95D1F7FE
:1002400000000895F894E199FDCF9FBB8EBBE09A22
:100250008DB378940895F894E199FDCF9FBB8EBB40
:100260006DBBE29AE19A789408959FEF92B983B9B1
:10027000BB27A4E69FE09C93A5E69FEF9C9308957F
:100280008091580590915905892B61F0E0915405B2
:10029000F091550541816081828193810E948000A7
:1002A000882311F0F8940895809154059091550594
:1002B000DC011496ED91FC911597F0935505E093B0
:1002C0005405309711F0178216820E94CD0C809150
:1002D00058059091590501979093590580935805B9
:1002E000D3CF1F920F920FB60F9211240BB60F921D
:1002F0002F933F934F935F936F937F938F939F932E
:10030000AF93BF93EF93FF93809158059091590558
:10031000892B61F0E0915405F09155054181608190
:10032000828193810E9480008823A1F0F894FF913C
:10033000EF91BF91AF919F918F917F916F915F915D
:100340004F913F912F910F900BBE0F900FBE0F90CA
:100350001F9018958091540590915505DC011496D5
:10036000ED91FC911597F0935505E0935405309766
:1003700011F0178216820E94CD0C80915805909141
:10038000590501979093590580935805C1CF97FF60
:1003900008959195819591090895861797070CF412
:1003A000CB010895681779070CF4CB0108950E94DA
:1003B000740017981F9A89B7806889BF8AB78068C8
:1003C0008ABF08958F929F92BF92CF92DF92EF9251
:1003D000FF920F931F93CF93DF938C017B01B22E7B
:1003E000C32FD42FB4EFCB2EB3E0DB2E80E50E94D9
:1003F000EC00D6018D916D018111F9CF17FD56C02A
:100400000115110509F063C180E380935A0510922C
:100410005B055BE5C52E55E0D52E0E94EC00F6018C
:1004200081916F018111F9CF6AE0C62E64E0D62E6A
:1004300080E20E94EC00D6018D916D018111F9CF0F
:10044000F7FCC0C0E114F10409F03DC180E38093E2
:100450005A0510925B059BE5C92E95E0D92E0E94A6
:10046000EC00F60181916F018111F9CF8AE00E94C1
:10047000EC008D2F90E0982F8827990F990F990FF6
:10048000B0E2CB9F90011124822B932B4E2D602F35
:100490008B29DF91CF911F910F91FF90EF90DF900B
:1004A000CF90BF909F908F900C94A0008DE280938E
:1004B0005A05CC24DD24C01AD10AE1E0F0E09F0106
:1004C000265A3A4FAAE08A2E912CC601B4010E9406
:1004D0004C0F805DD9018C939F012F5F3F4F6115B9
:1004E000710509F441C0265A3A4FCB01B4010E946C
:1004F0004C0F805DD9018C93C60164E670E00E94C8
:100500004C0FCB019F012E5F3F4F009769F1265A98
:100510003A4FB4010E944C0F805DD9018C93C60103
:1005200068EE73E00E944C0FCB019F012D5F3F4F9F
:100530000097D1F0265A3A4FB4010E944C0F805DCB
:10054000D9018C93C60160E177E20E944C0F9F01B4
:100550002C5F3F4F6115710539F0D901A65ABA4F8A
:10056000605D6C932F5F3F4FC90195958795F901A9
:10057000E65AFA4F1082009701F140915A05F901AD
:10058000E75AFA4F508150935A05408381309105C4
:10059000A1F040915B05F901E85AFA4F5081509360
:1005A0005B054083029749F080915C05F901E95AA7
:1005B000FA4F908190935C05808380915A05811158
:1005C00028CF32CF8DE280935A05CC24DD24CE187B
:1005D000DF0821E030E0F901E65AFA4F4AE0842EC4
:1005E000912CC601B4010E944C0F805D8083F901FB
:1005F000319661157105D1F1E65AFA4FCB01B4017C
:100600000E944C0F805D8083C60164E670E00E940A
:100610004C0FCB01F9013296009741F1E65AFA4F9F
:10062000B4010E944C0F805D8083C60168EE73E0C8
:100630000E944C0FCB01F90133960097B9F0E65AAE
:10064000FA4FB4010E944C0F805D8083C60160E1C7
:1006500077E20E944C0FF90134966115710531F073
:10066000E65AFA4F605D6083F9013596CF019595A2
:100670008795DF01A65ABA4F1C920097F9F0209196
:100680005A05DF01A75ABA4F3C9130935A052C9373
:100690008130910599F020915B05DF01A85ABA4F8E
:1006A0003C9130935B052C93029741F080915C055F
:1006B000E95AFA4F908190935C05808380915A05A6
:1006C0008111C9CED3CE670120E030E084CF68012C
:1006D000E0E0F0E0F4CE0C94E2010F931F93CF938F
:1006E000DF93062F182F110FC42FD0E0DC2FCC275B
:1006F000DD0FDD0FDD0F40E2349FC0011124C82B58
:10070000D92BC22B462F612FCE010E94A000402F73
:10071000612FCE010E94A0001F5F402F612FCE01EC
:100720000E94A000402F612FCE01DF91CF911F9139
:100730000F910C94A00090E0982F8827990F990FA3
:10074000990F40E2749F90011124822B932B862BEA
:100750000C94B9002F923F924F925F926F927F92CA
:100760008F929F92AF92BF92CF92DF92EF92FF92C1
:100770000F931F93CF93DF9300D000D000D0CDB75D
:10078000DEB79E838D835B013A013A8329834E2D28
:100790002F2DB301681B790B4B0177FD88C0898130
:1007A0009A818A199B097C0197FD7CC077FD71C0F5
:1007B00022242394312C97FD71C044244394512C5E
:1007C0006401CE18DF08802F90E0982F8827990FBA
:1007D000990F990F50E2259F90011124822B932BA2
:1007E0009C01242B3C832B83002711270E191F0902
:1007F0008D819E818615970571F18F3F910509F0D6
:1008000080F490E8A916B10460F44A2D6D818B81C3
:100810009C810E94A0004A2D6D818B819C810E9449
:10082000A000C601880F991F0817190744F4CE18B5
:10083000DF082D813E81220D331D3E832D838815D7
:100840009905B4F6C80CD91CA40CB51C8D819E81E9
:100850008615970591F629813A81A216B30669F6A5
:1008600026960FB6F894DEBF0FBECDBFDF91CF91B5
:100870001F910F91FF90EF90DF90CF90BF90AF90BE
:100880009F908F907F906F905F904F903F902F90B0
:10089000089522242A94322C97FF8FCF44244A941F
:1008A000542C8ECFEE24FF24E81AF90A7FCF882437
:1008B0009924861A970A73CF2F923F924F925F9294
:1008C0006F927F928F929F92AF92BF92CF92DF9260
:1008D000EF92FF920F931F93CF93DF9300D000D03E
:1008E00000D0CDB7DEB76C011B015E834D833C8326
:1008F0002B83CA018C199D094C0197FD46C197FDB8
:1009000026C144244394512C602E712C762C6624ED
:10091000770C770C770C20E2F29EC0011124682A34
:10092000792A6E285401710186018D819E8180177C
:10093000910739F10F3F110509F070F490E8E916BD
:10094000F10450F44E2D602FC3010E94A0004E2DE3
:10095000602FC3010E94A000C501880F991F1816BF
:10096000190614F4040D151D88159905F4F6A80C44
:10097000B91C2FEFE21AF20A8D819E818017910730
:10098000C9F62E143F04B1F68B819C81821993091C
:100990009A83898397FDF2C097FDE5C04424439470
:1009A000512C89809A80919481949108540171010D
:1009B0008601C016D10629F10F3F110509F070F428
:1009C00090E8E916F10450F44E2D602FC3010E9407
:1009D000A0004E2D602FC3010E94A000C501880F0A
:1009E000991F8816990634F429813A81A21AB30A0C
:1009F0000F5F1F4F97FFDDCFE40CF51CC016D1062B
:100A0000D9F68B819C818E159F05B1F69C01C101A1
:100A1000821B930B9A83898397FDA9C097FD9FC082
:100A200044244394512C89809A8091948194910814
:100A30005401EB80FC800D811E818D819E81801789
:100A4000910739F10F3F110509F070F490E8E916AC
:100A5000F10450F44E2D602FC3010E94A0004E2DD2
:100A6000602FC3010E94A000C501880F991F88163E
:100A7000990634F429813A81A21AB30A0F5F1F4FF5
:100A800097FFDBCFE40CF51C8D819E8180179107C9
:100A9000C9F62E143F04B1F69C01C601821B930BCC
:100AA0005C0197FD77C097FD56C088248394912CF4
:100AB00075010B811C818D819E81C816D90649F173
:100AC0008F3F910509F068F40038110550F4402F6C
:100AD0006D81C3010E94A000402F6D81C3010E945F
:100AE000A000C701880F991F1816190634F42D812C
:100AF0003E81280D391D3E832D838A159B05DCF62A
:100B0000EA0CFB1C0F5F1F4F8D819E81C816D90612
:100B1000B9F62B813C812017310791F626960FB646
:100B2000F894DEBF0FBECDBFDF91CF911F910F9123
:100B3000FF90EF90DF90CF90BF90AF909F908F90FD
:100B40007F906F905F904F903F902F900895442436
:100B50004A94542CD9CE88248A94982CA9CF442422
:100B60004A94542C60CF44244A94542C1ACF222700
:100B70003327281B390B3A83298350CF2227332769
:100B8000281B390B3A83298307CF88249924881A94
:100B9000990AB5CEAA24BB24A81AB90A84CF0C940A
:100BA000D9000C94DD00CF93DF939C01990F440B87
:100BB000550B60ED72E183E190E00E94600F8FEFD2
:100BC000820F0E94E100CFE0D4E089E40E94EC00B3
:100BD00089918111FBCFDF91CF9108950C94EC00A6
:100BE0000C94F300CF93DF9380E091E00E94280CF7
:100BF000EC010E94FA00CE01DF91CF9108950C9490
:100C000019010C941301CF93DF93EC0188818823A1
:100C100031F021960E94EC0089918111FBCFDF9188
:100C2000CF910895CF93DF93EC018881882331F031
:100C300021960E94EC0089918111FBCF8AE0DF911F
:100C4000CF910C94EC000F931F93CF93DF9397FDFC
:100C500014C0009709F090C080E380935A05109269
:100C60005B05CBE5D5E00E94EC0089918111FBCFBB
:100C7000DF91CF911F910F9108952DE220935A0596
:100C80009195819591096AE070E00E944C0F805D1A
:100C900080935B05FB01309709F47BC0C2E0D0E094
:100CA0009E01265A3A4F0AE010E0CF01B8010E9497
:100CB0004C0F805DD9018C939E012F5F3F4F6115D2
:100CC000710571F1265A3A4FCB01B8010E944C0FC1
:100CD000805DD9018C93CF0164E670E00E944C0FD7
:100CE000CB019E012E5F3F4F0097D1F0265A3A4F1D
:100CF000B8010E944C0F805DD9018C93CF0168EE42
:100D000073E00E944C0F9E012D5F3F4F61157105EE
:100D100039F0F901E65AFA4F605D60832F5F3F4F6B
:100D2000F901E65AFA4F1082C901959587954091CD
:100D30005A05F901E75AFA4F508150935A054083FA
:100D400081309105A1F040915B05F901E85AFA4F15
:100D5000508150935B054083029749F080915C0578
:100D6000F901E95AFA4F908190935C058083809154
:100D70005A05811176CF7CCF6AE070E00E944C0F5B
:100D8000805D80935A05FB01309751F0C1E0D0E0BF
:100D900087CF10925C0580935A0520935B05E7CFBF
:100DA00010925B05E6CF0C9435010F931F93CF9300
:100DB000DF9397FD0FC0009709F0D0C080E38093C8
:100DC0005A0510925B058AE595E0DF91CF911F915E
:100DD0000F9108952DE220935A05919581959109DF
:100DE0006AE070E00E944C0F805D80935B05FB0120
:100DF000309709F4C0C0C2E0D0E09E01265A3A4FB5
:100E00000AE010E0CF01B8010E944C0F805DD901CB
:100E10008C939E012F5F3F4F6115710571F1265A2A
:100E20003A4FCB01B8010E944C0F805DD9018C93E1
:100E3000CF0164E670E00E944C0FCB019E012E5F53
:100E40003F4F0097D1F0265A3A4FB8010E944C0FFD
:100E5000805DD9018C93CF0168EE73E00E944C0F46
:100E60009E012D5F3F4F6115710539F0F901E65A7A
:100E7000FA4F605D60832F5F3F4FF901E65AFA4FEA
:100E80001082C9019595879540915A05F901E75A55
:100E9000FA4F508150935A0540838130910509F4EF
:100EA00092CF40915B05F901E85AFA4F5081509377
:100EB0005B0540838230910509F485CF40915C0544
:100EC000F901E95AFA4F508150935C054083833011
:100ED000910509F478CF40915D05F901EA5AFA4F7E
:100EE000508150935D0540838430910509F46BCFA8
:100EF00040915E05F901EB5AFA4F508150935E051F
:100F000040838530910509F45ECF40915F05F9017A
:100F1000EC5AFA4F508150935F054083863091051B
:100F200009F451CF40916005F901ED5AFA4F508113
:100F3000509360054083079709F445CF8091610580
:100F4000F901EE5AFA4F90819093610580838AE50A
:100F500095E0DF91CF911F910F9108956AE070E0C5
:100F60000E944C0F805D80935A05FB01309751F031
:100F7000C1E0D0E042CF10925C0580935A052093E7
:100F80005B0521CF10925B051ECF0C9422010C94BF
:100F90002B01DC01FB019C919923E1F080818823E6
:100FA000A1F0891310C0119605C0222371F0FA0137
:100FB000921309C0AF014F5F5F4F9D912181911145
:100FC000F4CF81E0921380E0089520E081E0921355
:100FD000FACFFACF2081F5CF2F923F924F925F92B6
:100FE0006F927F928F929F92AF92BF92CF92DF9239
:100FF000EF92FF920F931F93CF93DF93CDB7DEB79E
:101000002F970FB6F894DEBF0FBECDBFFC019081C5
:10101000992309F4C2C03801822E9F012F5F3F4FF0
:101020003B832A836983442E512CF2013796FD833A
:10103000EC8392012A5F3F4F3F832E833297F987DB
:10104000E887225031093B872A873297FD87EC8752
:101050001201F2E02F0E311C25E09202C001112492
:10106000FC01EE5DFE4F6F011F861E86F981EF2E9B
:10107000F12C52012FEFA21AB20A1DC091FC2EC012
:1010800092FC38C093FC42C094FC4CC095FC56C006
:1010900096FC5FC0000F012F001F110B012B09F000
:1010A00068C02E853F852F5F3F4F3F872E872530B5
:1010B000310509F468C0F60191906F01092D10E027
:1010C00090FEDCCF482D93016E857F856E0D7F1DD0
:1010D0008C819D810E946B0391FED2CF482D93019C
:1010E0006E857F856E0D7F1D8E819F810E946B03B3
:1010F00092FEC8CF482D93016E857F856E0D7F1DB2
:10110000888599850E946B0393FEBECF482D93017D
:101110006E857F856E0D7F1D8A859B850E946B0382
:1011200094FEB4CF482D93016E857F856E0D7F1D93
:101130008C859D850E946B0395FEAACF482D930157
:101140006E857F856E0D7F1DC1010E946B0396FE2B
:10115000A1CF482D93016E857F856E0D7F1DC50142
:101160000E946B03000F012F001F110B012B09F4CC
:1011700098CF482D93016E857F856E0D7F1DC2012E
:101180000E946B038ECFEA81FB819191FB83EA83FE
:10119000F981FA5FF98391115FCF2F960FB6F8941A
:1011A000DEBF0FBECDBFDF91CF911F910F91FF909A
:1011B000EF90DF90CF90BF90AF909F908F907F90F7
:1011C0006F905F904F903F902F9008952F923F9295
:1011D0004F925F926F927F928F929F92AF92BF9247
:1011E000CF92DF92EF92FF920F931F93CF93DF93F3
:1011F000CDB7DEB72C970FB6F894DEBF0FBECDBFCC
:101200003801822E25E08202C0011124FC01EE5D2E
:10121000FE4F6F011C861B86A42EB12CE62EF12CEE
:101220002501FFEF4F1A5F0A150122E0220E311C43
:10123000C50103969A838983F5013496FC83EB8379
:1012400095012B5F3F4F3E832D83039698878F83B5
:101250003396FA87E9871DC091FC2DC092FC36C0F9
:1012600093FC3FC094FC49C095FC53C096FC5DC004
:10127000000F012F001F110B012B09F067C02B85F8
:101280003C852F5F3F4F3C872B872530310509F484
:1012900068C0F60191906F01092D10E090FEDCCF3F
:1012A000482D9301B5018B859C858E0D9F1D0E9455
:1012B0006B0391FED3CF482D9301B2018B859C85A2
:1012C0008E0D9F1D0E946B0392FECACF482D930185
:1012D000B1018B859C858E0D9F1D0E946B0393FE33
:1012E000C1CF482D930169817A818B859C858E0DB4
:1012F0009F1D0E946B0394FEB7CF482D93016B8115
:101300007C818B859C858E0D9F1D0E946B0395FEB5
:10131000ADCF482D93016D817E818B859C858E0D8F
:101320009F1D0E946B0396FEA3CF482D93016F81F2
:1013300078858B859C858E0D9F1D0E946B03000F09
:10134000012F001F110B012B09F499CF482D930198
:1013500069857A858B859C858E0D9F1D0E946B0308
:101360008ECF2C960FB6F894DEBF0FBECDBFDF91A7
:10137000CF911F910F91FF90EF90DF90CF90BF9092
:10138000AF909F908F907F906F905F904F903F9025
:101390002F9008952F923F924F925F926F927F927B
:1013A0008F929F92AF92BF92CF92DF92EF92FF9275
:1013B0000F931F93CF93DF93CDB7DEB72C970FB664
:1013C000F894DEBF0FBECDBF3801822E25E0820229
:1013D000C0011124FC01EE5DFE4F6F011C861B86CF
:1013E000E62EF12CA42EB12C2501F7E04F0E511C56
:1013F000150126E0220E311CC50105969A838983CA
:10140000F5013496FC83EB8395012D5F3F4F3E83BE
:101410002D83039798878F833397FA87E9871DC0B9
:1014200091FC2DC092FC36C093FC40C094FC4AC095
:1014300095FC54C096FC5EC0000F012F001F110BDD
:10144000012B09F068C02B853C852F5F3F4F3C87FF
:101450002B872530310509F468C0F60191906F01A2
:10146000092D10E090FEDCCF482D93016B857C8523
:101470006E0D7F1DC2010E946B0391FED3CF482DDC
:1014800093016B857C856E0D7F1DC1010E946B03EE
:1014900092FECACF482D93016B857C856E0D7F1D12
:1014A00089819A810E946B0393FEC0CF482D9301DE
:1014B0006B857C856E0D7F1D8B819C810E946B03EB
:1014C00094FEB6CF482D93016B857C856E0D7F1DF4
:1014D0008D819E810E946B0395FEACCF482D9301B8
:1014E0006B857C856E0D7F1D8F8198850E946B03B7
:1014F00096FEA2CF482D93016B857C856E0D7F1DD6
:1015000089859A850E946B03000F012F001F110B24
:10151000012B09F498CF482D93016B857C856E0DC6
:101520007F1DC5010E946B038ECF2C960FB6F894D9
:10153000DEBF0FBECDBFDF91CF911F910F91FF9006
:10154000EF90DF90CF90BF90AF909F908F907F9063
:101550006F905F904F903F902F900895AF92BF9201
:10156000CF92DF92EF92FF920F93CF93DF93EC0134
:101570005B016A0179018FE194E00E940306FE019C
:10158000EE0FFF1FE050FF4F808191810E94030604
:101590008BE294E00E940306C5010E94D5060E94DA
:1015A000030685E394E00E940306C6010E94030639
:1015B000E114F10439F08FE394E00E940306C701BF
:1015C0000E9403068AE00E94EE050111FFCFDF9121
:1015D000CF910F91FF90EF90DF90CF90BF90AF90A1
:1015E00008956115710519F483E090E00895FC01F8
:1015F00020812223C9F30097B9F3FA0191838083F4
:10160000758364831382128280916805882319F0A0
:1016100084E090E0089550936A054093690581E065
:101620008093680580E090E00895AC019091680592
:10163000292F30E02115310539F06091690570914D
:101640006A054617570719F082E090E008952130A7
:10165000310541F020916B0530916C0530936A059E
:101660002093690591509093680580E090E008957B
:10167000CF92DF92EF92FF920F931F93CF93DF935E
:101680008A0150916805552339F0E0916905F09180
:101690006A058E179F0759F082E090E0DF91CF91A5
:1016A0001F910F91FF90EF90DF90CF900895060F5C
:1016B000171FFC01448155814017510718F483E03E
:1016C00090E0ECCF428153814F3FFFEF5F07B9F3CA
:1016D000EB0160177107A0F46C017901E60EF71EAB
:1016E00003C0F60142815381CE01840F951F0E94F1
:1016F000C507F70181937F012196C017D10788F3B1
:1017000080E090E0CBCFCF92DF92EF92FF920F93E9
:101710001F93CF93DF938A0150916805552339F0C9
:10172000E0916905F0916A058E179F0759F082E0F4
:1017300090E0DF91CF911F910F91FF90EF90DF909C
:10174000CF900895060F171FFC0144815581401763
:10175000510718F483E090E0ECCF428153814F3F72
:10176000FFEF5F07B9F3EB0160177107A0F46C019D
:101770007901E60EF71E03C0F60142815381F7019D
:1017800061917F01CE01840F951F0E94C7072196AA
:10179000C017D10788F380E090E0CBCF0F931F9361
:1017A000CF93DF93FB012081211107C083E090E0FC
:1017B000DF91CF911F910F91089561157105B1F3DC
:1017C00020916805222339F02091690530916A053E
:1017D0008217930739F082E090E0DF91CF911F915B
:1017E0000F910895EB018C01FC01808191810E9491
:1017F000C9078823D9F2F801D183C08380E090E043
:10180000D7CF81E090E008950F9381110AC09B012A
:1018100001E043EC54E06AE770E087E090E00E946A
:10182000AE0A0F9108950F93009781F0FC01EE0F1F
:10183000FF1FEE5EFE4F2081318101E043EC54E05A
:1018400060E870E088E090E00E94AE0A0F91089591
:10185000CF93DF938230910508F46EC0E0916B0561
:10186000F0916C053097B1F140E050E0A0E0B0E0BD
:1018700001C0F901208131812817390768F08217EA
:10188000930709F44FC04115510519F02417350786
:1018900018F4A901BD01EF0122813381DF01211577
:1018A000310539F741155105A9F0481B590B443052
:1018B000510508F044C08A819B816115710509F4C6
:1018C00060C0FB0193838283FE013296CF01DF91DA
:1018D000CF910895E0916D05F0916E05309709F470
:1018E00047C020911C0130911D0121153105B9F12E
:1018F000E217F30788F52E1B3F0B2817390760F115
:10190000AC014E5F5F4F2417350730F14E0F5F1F5C
:1019100050936E0540936D0581939193CF01DF91B4
:10192000CF91089582819381109789F113969C93AA
:101930008E9312973296CACF82E090E08FCFFE014D
:10194000E40FF51F819391934250510959834883C5
:10195000CF01DF91CF910895E0E0F0E0DFCF2DB728
:101960003EB74091200150912101241B350BC0CF7F
:10197000E0911E01F0911F01F0936E05E0936D055B
:10198000B0CF90936C0580936B05FE019ECF909332
:101990006C0580936B05329699CF0F931F93CF936D
:1019A000DF93009709F44AC08C0102501109E80145
:1019B0001B821A82A0916B05B0916C05109709F4F7
:1019C00067C0A017B10708F081C01296ED91FC9195
:1019D0001397309709F495C0AD0101C0F901E017E4
:1019E000F10788F522813381AF0121153105B1F767
:1019F00013830283EF0129913991CE01820F931F46
:101A00000817190709F454C0E0E0F0E002C0FD0136
:101A1000DC0112968D919C9113970097C1F78D91DF
:101A20009C9111979D012E5F3F4F820F931F209134
:101A30006D0530916E0528173907E1F0DF91CF91E0
:101A40001F910F910895E801FB83EA832881398172
:101A5000820F931FE817F90709F443C0FA01452BD9
:101A600039F610936C0500936B05DF91CF911F91B0
:101A70000F910895309709F446C013821282B093F3
:101A80006E05A0936D05DF91CF911F910F91089581
:101A900028813981820F931F20916D0530916E0549
:101AA00028173907F1F610936E0500936D05C6CF20
:101AB000E80188819981280F391F2E5F3F4F3183BC
:101AC00020838A819B81938382839ECFBB83AA8359
:101AD00028813981820F931FA817B90711F640E0BA
:101AE00050E0FC01608171816E5F7F4F260F371FD0
:101AF000E80139832883828193819B838A83FA0159
:101B0000AECFFD0175CF10926C0510926B05B7CF6B
:101B1000CF92DF92EF92FF920F93CF937C01C62F6B
:101B20006A01892BB1F0C114D10461F06C2F70E00F
:101B3000A601C701CF910F91FF90EF90DF90CF905A
:101B40000C94BE0FCF910F91FF90EF90DF90CF904C
:101B5000089500E02BE135E047E255E068E970E0E8
:101B600084E090E00E94AE0ADECF0F93009789F0E8
:101B700061157105D1F04115510549F0DB01FC01FA
:101B8000480F591F8D918193E417F507D9F70F91ED
:101B9000089500E02AE335E047E255E061EA70E0AD
:101BA00084E090E00E94AE0AF2CF00E027E435E046
:101BB00047E255E065EA70E084E090E00E94AE0AFA
:101BC000E6CF0F931F93CF93DF93EC018B0186E059
:101BD00090E00E94280CFC01118300831382128282
:101BE000158214828C819D81009791F0AA81BB811E
:101BF0001396FC93EE931297B583A483FB83EA8339
:101C000001969D838C83DF91CF911F910F91089551
:101C1000F983E883FB83EA8301969D838C83DF91BC
:101C2000CF911F910F910895CF93DF93CDB7DEB77A
:101C30002C970FB6F894DEBF0FBECDBF0E94D70120
:101C400080E895E20E94D3058DE993E00E940306A7
:101C500018861F821C861B868FEF9FEF9A878987C5
:101C6000AE01495F5F4F6CE070E08BEA93E00E9449
:101C7000F10A8CE090E00E94280C8C019C014CE061
:101C800050E060E070E0CE0107960E94380BC8017A
:101C90000E9412068CE090E00E94280C7C014CE02F
:101CA00050E060EB73E00E94B50DC7010E9403068F
:101CB0008CEB93E00E9403068FE090E00E94280CDA
:101CC0008C014FE050E06FEB73E00E94B50DC8014E
:101CD0000E9403068CEB93E00E940306C7010E945A
:101CE000CD0CC8010E94CD0C8CEB93E00E94030642
:101CF0008EEC93E00E9403061A8219821C821B82DA
:101D00001E821D8261E070E0CE0101960E94E10D0D
:101D100062E070E0CE0101960E94E10D99818A8116
:101D20002D813E81121613060CF096C0E92FF82F74
:101D300023E030E0318320832D813E81121613068B
:101D40000CF087C0E92FF82F808191810E94D50681
:101D50000E940306E981FA818D819E8102970CF42D
:101D600075C00280F381E02D808191810E94D506AB
:101D70000E9403068DEB93E00E9403068D819E81F5
:101D80000E94D5060E9403068DEB93E00E94030695
:101D90008D819E81009709F041C00E94D5060E9466
:101DA00003068D819E81009709F50E94D5060E9449
:101DB00003068DEB93E00E9403068D819E810E94B5
:101DC00023060FE11FE32FE14AE06AE08CED93E088
:101DD0000E94EC072FE144E16AE082EE93E00E946A
:101DE000EC0787EE93E00E940306FFCFEB81FC81B6
:101DF00000811181A481B581BC83AB83109721F050
:101E000013961C921E921297CF010E94CD0C8D81C9
:101E10009E8101979E838D83C801C7CFEB81FC8192
:101E200000811181A481B581BC83AB83109721F01F
:101E300013961C921E921297CF010E94CD0C8D8199
:101E40009E8101979E838D83C801A7CFE0E0F0E0DB
:101E50008BCFE0E0F0E078CFE0E0F0E069CFE4E5C0
:101E6000F5E0118210821382128215821482089585
:101E7000CF93DF938091540590915505009749F0D9
:101E8000FC01D481C5810E94CD0C8D2F9C2F009721
:101E9000B9F7DF91CF91089597FB072E16F40094C0
:101EA00007D077FD09D00E947F0F07FC05D03EF4D4
:101EB000909581959F4F0895709561957F4F0895F6
:101EC000052E97FB1EF400940E94770F57FD07D054
:101ED0000E94930F07FC03D04EF40C94770F50959B
:101EE0004095309521953F4F4F4F5F4F0895909506
:101EF0008095709561957F4F8F4F9F4F0895AA1BD6
:101F0000BB1B51E107C0AA1FBB1FA617B70710F0E4
:101F1000A61BB70B881F991F5A95A9F78095909516
:101F2000BC01CD010895A1E21A2EAA1BBB1BFD0125
:101F30000DC0AA1FBB1FEE1FFF1FA217B307E407A8
:101F4000F50720F0A21BB30BE40BF50B661F771F00
:101F5000881F991F1A9469F76095709580959095E0
:101F60009B01AC01BD01CF010895EE0FFF1F0024BE
:101F7000001C0BBE0790F691E02D0994DC0101C016
:101F80006D9341505040E0F7089510E0C7E4D0E071
:101F900004C0FE010E94B50F2196C834D107C9F7CD
:041FA000F894FFCFE3
:101FA40050045F046E047A049304A204AB04B404E2
:101FB400BE04DA04E304F10400050D0500006F0516
:101FC4002000F00A0A0A10F00A0A0A10F00A0A0AA3
:101FD40010F00A0A0A10F00A0A0A10F00A0A0A1093
:101FE400F00A0A0A10F00A0A0A10F00A0A0A10F0A3
:101FF4000A0A0A10F00A0A0A10F00A0A0A10F00A79
:102004000A0A10F00A0A0A10F00A0A0A10F00A0A68
:102014000A10F00A0A0A10F00A0A0A10F00A0A0A58
:1020240010F00A0A0A10F00A0A0A10F00A0A0A1042
:10203400F00A0A0A10F00A0A0A10F00A0A0A10F052
:102044000A0A0A10F00A0A0A10F00A0A0A10F00A28
:102054000A0A10F00A0A0A10F00A0A0A10F00A0A18
:102064000A10000000000000F6F6000000C000C0E6
:102074000028FE28FE281C2A2A2A18C6C81026C6AC
:102084005CA2A25C120000C0000000384482000080
:102094008244380000A040A00010107C10100E0CE8
:1020A40000000010101010100606000000060810B2
:1020B40020C07C8A92A27C0042FE020042868A9260
:1020C40062448292926C305090FE10E2A2A2A29CD2
:1020D4003C5292920C80809EA0C06C9292926C6052
:1020E40092929478006C6C0000006E6C000080800A
:1020F4009EA0C028282828286C9292926C40808A3E
:1021040090607C82BA8A787E8888887EFE929292D9
:102114006C7C82828244FE8282827CFE92929282D3
:10212400FE909090807C8292925CFE101010FE8251
:1021340082FE82820C020202FCFE10284482FE020D
:10214400020202FE402040FEFE402010FE7C8282FD
:10215400827CFE909090607C828A847AFE9098942F
:1021640062649292924C8080FE8080FC020202FCA7
:10217400F8040204F8FC020C02FCC6281028C6E489
:10218400121212FC868A92A2C2FE82828200C020AF
:1021940010080600828282FE2040804020FE828257
:1021A40082FEFE828282FE042A2A2A1EFE14222233
:1021B4001C1C222222141C222214FE1C2A2A2A1845
:1021C400207EA08040102A2A2A3CFE2020201E00C7
:1021D40022BE0200040202BC00FE0808142200828F
:1021E400FE02003E203E201E3E1020201E1C222205
:1021F400221C3E24242418182424243E3E1020208B
:1022040010122A2A2A04207C2202043C0202023CE4
:1022140038040204383C020C023C22140814222024
:10222400120C102022262A322200106C8200000098
:10223400FE000000826C1000304020106048656C85
:102244006C6F20576F726C64210A0074657374009C
:102254006C6F6C6F6C6F6C6F6C6F6C000A0A00545F
:10226400657374206465206D616C6C6F63005465E4
:102274007374696E67206C6973740A0051756F69B1
:102284003F00466575720054657374696E67204F2C
:10229400530A00506C6F7474696E672070697865B6
:1022A4006C20617420783A200020793A2000496E2D
:1022B400697469616C697A696E672E2E2E0A00450D
:1022C4007863657074696F6E3A2000206174206CC5
:1022D400696E65200020696E2066696C65200020A7
:1022E40077697468206D6573736167653A200A00C5
:1022F400446976696465206279207A65726F004961
:102304006E76616C6964206F70636F6465005374EA
:1023140061636B206661756C740047656E657261FC
:102324006C2070726F74656374696F6E206661757A
:102334006C7400417267756D656E74206572726F9E
:1023440072005365637572697479004F76657266BD
:102354006C6F7700417373657274696F6E004669C0
:102364006C6500426173654C69622F46696C655304
:10237400797374656D2E637070004E6F2065727290
:102384006F7200556E6B6E6F776E206572726F722E
:102394000046696C65206E6F7420666F756E64000C
:1023A400496E76616C69642066696C65004F75746A
:1023B400206F66206D656D6F72790070747220698C
:1023C40073206E756C6C00426173654C69622F6D8D
:1023D400656D6F72792E6370700064657374206923
:1023E40073206E756C6C00737263206973206E7554
:0423F4006C6C00000D
:00000001FF
