:100000000C9446000C945D000C945D000C945D0013
:100010000C945D000C945D000C945D000C945D00EC
:100020000C945D000C945D000C945D000C945D00DC
:100030000C945D000C945D000C945D000C945D00CC
:100040000C945D000C945D000C945D000C945D00BC
:100050000C945D000C945D000C945D000C945D00AC
:100060000C945D000C945D000C945D000C945D009C
:100070000C945D000C945D000C945D000C945D008C
:100080000C945D000C945D000C945D0011241FBE67
:10009000CFEFD0E1DEBFCDBF11E0A0E0B1E0EAE2FA
:1000A000F7E000E00BBF02C007900D92AE30B10741
:1000B000D9F70E9411030C9493030C9400009FEF56
:1000C0009ABB94BB91BBBB27A4E690E19C93A1E6AD
:1000D0009CEF9C930895A3E6BB27A2E68C939BBB61
:1000E00065BB42BB979A979844274C934BBB42BB46
:1000F00045BB0895A2E6BB278C939BBB9927882715
:10010000A3E67C9174FFE9CF42BB65BB979A9798B1
:100110009F3F11F09395F5CF9927803811F0839583
:10012000F0CF44274C934BBB42BB45BB089590E0B6
:1001300097BB86B308959FEF97BB88BB08958093C4
:1001400029009093900088E180932A0086E08093B4
:100150009500089590912B0095FFFCCF80932C0083
:10016000089580912B0085FFFCCF80912C0008958D
:10017000AEE3BCE91197F1F7000008958FE7AEE315
:10018000BCE91197F1F78A95D1F70000089597FF20
:1001900008959195819591090895861797070CF414
:1001A000CB010895681779070CF4CB0108950C94DE
:1001B0005F00462F682F8FEF90E00C946B00462F66
:1001C000682F8FEF90E00C946B008FEF90E00C9411
:1001D0007A002F923F924F925F926F927F928F920E
:1001E0009F92AF92BF92CF92DF92EF92FF920F93C6
:1001F0001F93CF93DF9300D000D0CDB7DEB79C83A1
:100200008B837B015A013A8329839A01281B390B7E
:10021000690137FD75C089819A818E199F091C017A
:1002200097FD69C037FD5EC044244394512C97FD6F
:100230005EC066246394712C860102191309882418
:100240009924821893082B813C812A153B0571F172
:100250002F3F310509F080F430E8E316F10460F433
:100260004E2D6B818FEF90E00E946B004E2D6B81C5
:100270008FEF90E00E946B00C801880F991F8816CD
:10028000990644F4021913092B813C81240D351D74
:100290003C832B838C159D05B4F60C0D1D1DE60CBF
:1002A000F71C2B813C812A153B0591F689819A81A7
:1002B000E816F90669F60F900F900F900F90DF91F6
:1002C000CF911F910F91FF90EF90DF90CF90BF9053
:1002D000AF909F908F907F906F905F904F903F90E6
:1002E0002F90089544244A94542C97FFA2CF66245B
:1002F0006A94762CA1CF22243324281A390A92CF6B
:10030000CC24DD24C21AD30A86CF2F923F924F927B
:100310005F926F927F928F929F92AF92BF92CF9295
:10032000DF92EF92FF920F931F93CF93DF9300D052
:1003300000D0CDB7DEB77C012B015C834B83190164
:10034000CA018E199F094C0197FD38C197FD18C14C
:1003500066246394712C5401620187012B813C81D6
:100360002017310749F10F3F110509F080F430E8FB
:10037000C316D10460F44C2D602F8FEF90E00E94E3
:100380006B004C2D602F8FEF90E00E946B00C50139
:10039000880F991F1816190614F4060D171D8815D5
:1003A0009905E4F6A80CB91C8FEFC81AD80A2B815E
:1003B0003C8120173107B9F64C145D04A1F6C10148
:1003C000841995099A83898397FDF1C097FDE4C04C
:1003D00066246394712C89809A8091948194910809
:1003E000540162018701E016F10639F10F3F110552
:1003F00009F080F430E8C316D10460F44C2D602F6E
:100400008FEF90E00E946B004C2D602F8FEF90E0FB
:100410000E946B00C501880F991F8816990634F455
:1004200029813A81A21AB30A0F5F1F4F97FFDBCFD2
:10043000C60CD71CE016F106C9F62C143D04B1F623
:10044000C201821993099A83898397FDA9C097FDF8
:100450009FC066246394712C89809A8091948194C2
:100460009108540161010B811C818B819C81801753
:10047000910749F10F3F110509F080F490E8C91682
:10048000D10460F44C2D602F8FEF90E00E946B0040
:100490004C2D602F8FEF90E00E946B00C501880FFC
:1004A000991F8816990634F429813A81A21AB30A51
:1004B0000F5F1F4F97FFD9CFC60CD71C8B819C8134
:1004C00080179107B9F64C145D04A1F69C01C70191
:1004D000821B930B5C0197FD76C097FD55C0882465
:1004E0008394912C650181018B819C81E816F9062A
:1004F00069F12B813C812F3F310509F078F40038F8
:10050000110560F4402F6B818FEF90E00E946B002B
:10051000402F6B818FEF90E00E946B00C601880F27
:10052000991F1816190634F42B813C81280D391DAA
:100530003C832B838A159B05BCF6CA0CDB1C0F5F22
:100540001F4F8B819C81E816F90699F6201631061B
:1005500081F60F900F900F900F90DF91CF911F9128
:100560000F91FF90EF90DF90CF90BF90AF909F9052
:100570008F907F906F905F904F903F902F90089555
:1005800066246A94762CE7CE88248A94982CAACF85
:1005900066246A94762C60CF66246A94762C1BCFEE
:1005A00022273327281B390B3A83298350CF222750
:1005B0003327281B390B3A83298308CF88249924B1
:1005C000881A990AC3CEAA24BB24A81AB90A85CFCF
:1005D0000C9497000C949B009C01990F440B550BB5
:1005E00060E472E48FE090E00E9452038FEF820F8C
:1005F0000C949F000C94AA000C94B1000C94BE00C3
:100600000C94B800CF93DF93EC018881882331F0FC
:1006100021960E94AA0089918111FBCFDF91CF9191
:1006200008950E94D70080E895E20E94EC0280E0E5
:1006300091E00E9402032FE13FE34FE16AE070E0A6
:100640008AE090E00E94D90088EEE82E83E0F82E40
:1006500000E010E0C0E0D0E02FE13FE34FE1BE0159
:10066000C8010E94D9002196C038D105A9F70F5FB3
:100670001F4F011581E0180769F781E0E81AF108BA
:1006800039F70E94FC02C82F0E9400038C2F0E94A1
:10069000FA020E94FC02C82F0E9400038C2F0E94C5
:1006A000FA02EFCF052E97FB1EF400940E94690317
:1006B00057FD07D00E94710307FC03D04EF40C9441
:1006C000690350954095309521953F4F4F4F5F4FAF
:1006D000089590958095709561957F4F8F4F9F4FAE
:1006E0000895A1E21A2EAA1BBB1BFD010DC0AA1F73
:1006F000BB1FEE1FFF1FA217B307E407F50720F08B
:10070000A21BB30BE40BF50B661F771F881F991F05
:100710001A9469F760957095809590959B01AC014E
:0A072000BD01CF010895F894FFCF4A
:0E072A0048656C6C6F20576F726C64210A007A
:00000001FF
