:100000000C9446000C9465000C9465000C946500FB
:100010000C9465000C9465000C9465000C946500CC
:100020000C9465000C9465000C9465000C946500BC
:100030000C9465000C9465000C9465000C946500AC
:100040000C9465000C9465000C9465000C9465009C
:100050000C9465000C9465000C9465000C9465008C
:100060000C9465000C9465000C9465000C9465007C
:100070000C9465000C9465000C9465000C9465006C
:100080000C9465000C9465000C94650011241FBE4F
:10009000CFEFD0E1DEBFCDBF15E0A0E0B1E0EEEAEA
:1000A000FBE100E00BBF02C007900D92A63DB10737
:1000B000D9F725E0A6EDB5E001C01D92A33FB20738
:1000C000E1F70E94250C0C94D50D0C9400009FEFD5
:1000D0009ABB94BB91BBBB27A4E690E09C93A1E69E
:1000E0009FEF9C930895A3E6BB277C9174FFFDCFFF
:1000F0007FEFA1E67C93A2E68C937ABB9BBB65BBAA
:1001000042BB979A0000979844274C934BBB4ABB3D
:10011000A1E64C9342BB45BB0895A2E6BB278C9356
:100120009BBB99278827A3E67C9174FFDECF42BB57
:1001300065BB979A97989F3F11F09395F5CF9927B4
:10014000803811F08395F0CF44274C934BBB42BBD2
:1001500045BB4ABBA1E64C93089590E097BB86B39C
:1001600008959FEF97BB88BB0895809329009093D3
:10017000900088E180932A0086E08093950008959E
:1001800090912B0095FFFCCF80932C0008958091D7
:100190002B0085FFFCCF80912C000895B92FA82F4C
:1001A00090912B0095FFFCCF80912C008A3021F09C
:1001B0008D930E94C000F4CF8AE00E94C00001C06D
:1001C000089580912B0085FF08958CB5FACFAEE39A
:1001D000BCE91197F1F7000008958FE7AEE3BCE9A1
:1001E0001197F1F78A95D1F700000895E199FECFB4
:1001F0009FBB8EBBE09A8DB30895E199FECF9FBB64
:100200008EBB6DBBE29AE19A08959FEF92B983B9D4
:10021000BB27A4E69FE09C93A5E69FEF9C930895DF
:1002200097FF0895919581959109089586179707ED
:100230000CF4CB010895681779070CF4CB010895ED
:100240000C9467000F931F93CF93DF93062F182F03
:10025000110FC42FD0E0DC2FCC27DD0FDD0FDD0F19
:1002600040E2349FC0011124C82BD92BC22B462F4A
:10027000612FCE010E947300402F612FCE010E949A
:1002800073001F5F402F612FCE010E947300402F2B
:10029000612FCE01DF91CF911F910F910C947300CC
:1002A0000F931F93CF93DF93062F182F110FC42F97
:1002B000D0E0DC2FCC27DD0FDD0FDD0F40E2349FD7
:1002C000C0011124C82BD92BC22B462F612FCE0180
:1002D0000E947300402F612FCE010E9473001F5FA8
:1002E000402F612FCE010E947300402F612FCE015D
:1002F000DF91CF911F910F910C94730090E0982F94
:100300008827990F990F990F40E2749F900111244B
:10031000822B932B862B0C948D002F923F924F9221
:100320005F926F927F928F929F92AF92BF92CF9285
:10033000DF92EF92FF920F931F93CF93DF9300D042
:1003400000D000D0CDB7DEB79E838D835B013A012C
:100350003A8329834E2D2F2DB301681B790B4B0156
:1003600077FD88C089819A818A199B097C0197FD54
:100370007CC077FD71C022242394312C97FD71C07D
:1003800044244394512C6401CE18DF08802F90E060
:10039000982F8827990F990F990F50E2259F900168
:1003A0001124822B932B9C01242B3C832B8300272D
:1003B00011270E191F098D819E818615970571F1F0
:1003C0008F3F910509F080F490E8A916B10460F41C
:1003D0004A2D6D818B819C810E9473004A2D6D8115
:1003E0008B819C810E947300C601880F991F08179A
:1003F000190744F4CE18DF082D813E81220D331DEC
:100400003E832D8388159905B4F6C80CD91CA40C1D
:10041000B51C8D819E818615970591F629813A81BB
:10042000A216B30669F626960FB6F894DEBF0FBE85
:10043000CDBFDF91CF911F910F91FF90EF90DF9093
:10044000CF90BF90AF909F908F907F906F905F9074
:100450004F903F902F90089522242A94322C97FF9A
:100460008FCF44244A94542C8ECFEE24FF24E81AD4
:10047000F90A7FCF88249924861A970A73CF2F927E
:100480003F924F925F926F927F928F929F92AF9224
:10049000BF92CF92DF92EF92FF920F931F93CF9371
:1004A000DF9300D000D000D0CDB7DEB76C011B01C8
:1004B0005E834D833C832B83CA018C199D094C01BB
:1004C00097FD46C197FD26C144244394512C602ECC
:1004D000712C762C6624770C770C770C20E2F29E38
:1004E000C0011124682A792A6E28540171018601FD
:1004F0008D819E818017910739F10F3F110509F019
:1005000070F490E8E916F10450F44E2D602FC30109
:100510000E9473004E2D602FC3010E947300C5011D
:10052000880F991F1816190614F4040D151D881547
:100530009905F4F6A80CB91C2FEFE21AF20A8D8186
:100540009E8180179107C9F62E143F04B1F68B8166
:100550009C81821993099A83898397FDF2C097FD44
:10056000E5C044244394512C89809A8091948194CD
:100570009108540171018601C016D10629F10F3F7F
:10058000110509F070F490E8E916F10450F44E2DCD
:10059000602FC3010E9473004E2D602FC3010E9483
:1005A0007300C501880F991F8816990634F42981B4
:1005B0003A81A21AB30A0F5F1F4F97FFDDCFE40CF9
:1005C000F51CC016D106D9F68B819C818E159F052E
:1005D000B1F69C01C101821B930B9A83898397FD1D
:1005E000A9C097FD9FC044244394512C89809A80D0
:1005F0009194819491085401EB80FC800D811E81BF
:100600008D819E818017910739F10F3F110509F007
:1006100070F490E8E916F10450F44E2D602FC301F8
:100620000E9473004E2D602FC3010E947300C5010C
:10063000880F991F8816990634F429813A81A21AE5
:10064000B30A0F5F1F4F97FFDBCFE40CF51C8D81C2
:100650009E8180179107C9F62E143F04B1F69C01C4
:10066000C601821B930B5C0197FD77C097FD56C0B6
:1006700088248394912C75010B811C818D819E812E
:10068000C816D90649F18F3F910509F068F4003882
:10069000110550F4402F6D81C3010E947300402F5B
:1006A0006D81C3010E947300C701880F991F18163E
:1006B000190634F42D813E81280D391D3E832D838A
:1006C0008A159B05DCF6EA0CFB1C0F5F1F4F8D8122
:1006D0009E81C816D906B9F62B813C8120173107B7
:1006E00091F626960FB6F894DEBF0FBECDBFDF9110
:1006F000CF911F910F91FF90EF90DF90CF90BF901F
:10070000AF909F908F907F906F905F904F903F90B1
:100710002F90089544244A94542CD9CE88248A9446
:10072000982CA9CF44244A94542C60CF44244A9452
:10073000542C1ACF22273327281B390B3A832983BD
:1007400050CF22273327281B390B3A83298307CF21
:1007500088249924881A990AB5CEAA24BB24A81AF9
:10076000B90A84CF0C94AD000C94B100CF93DF9301
:100770009C01990F440B550B60E472E48FE090E00C
:100780000E94790D8FEF820F0E94B500C3EFD3E076
:1007900089E40E94C00089918111FBCFDF91CF9144
:1007A00008950C94C0000C94C700CF93DF9380E0B1
:1007B00091E00E94250AEC010E94CE00CE01DF915B
:1007C000CF9108950C94ED000C94E700CF93DF9344
:1007D000EC018881882331F021960E94C000899124
:1007E0008111FBCFDF91CF910895CF93DF93EC017F
:1007F0008881882331F021960E94C000899181115F
:10080000FBCF8AE0DF91CF910C94C0000F931F9330
:10081000CF93DF9397FD14C0009709F090C080E359
:100820008093D6051092D705C7EDD5E00E94C00091
:1008300089918111FBCFDF91CF911F910F91089585
:100840002DE22093D6059195819591096AE070E09B
:100850000E94650D805D8093D705FB01309709F4F8
:100860007BC0C2E0D0E09E012A523A4F0AE010E07D
:10087000CF01B8010E94650D805DD9018C939E0166
:100880002F5F3F4F6115710571F12A523A4FCB012D
:10089000B8010E94650D805DD9018C93CF0164E69B
:1008A00070E00E94650DCB019E012E5F3F4F0097C7
:1008B000D1F02A523A4FB8010E94650D805DD901EE
:1008C0008C93CF0168EE73E00E94650D9E012D5F51
:1008D0003F4F6115710539F0F901EA52FA4F605D39
:1008E00060832F5F3F4FF901EA52FA4F1082C9012E
:1008F000959587954091D605F901EB52FA4F5081B5
:100900005093D605408381309105A1F04091D705E1
:10091000F901EC52FA4F50815093D705408302976A
:1009200049F08091D805F901ED52FA4F90819093EA
:10093000D80580838091D605811176CF7CCF6AE07F
:1009400070E00E94650D805D8093D605FB013097B5
:1009500051F0C1E0D0E087CF1092D8058093D60542
:100960002093D705E7CF1092D705E6CF0C94050169
:100970000F931F93CF93DF9397FD0FC0009709F05C
:10098000D0C080E38093D6051092D70586ED95E020
:10099000DF91CF911F910F9108952DE22093D605FD
:1009A0009195819591096AE070E00E94650D805DE6
:1009B0008093D705FB01309709F4C0C0C2E0D0E0B6
:1009C0009E012A523A4F0AE010E0CF01B8010E947E
:1009D000650D805DD9018C939E012F5F3F4F61159E
:1009E000710571F12A523A4FCB01B8010E94650D91
:1009F000805DD9018C93CF0164E670E00E94650DA3
:100A0000CB019E012E5F3F4F0097D1F02A523A4F03
:100A1000B8010E94650D805DD9018C93CF0168EE0D
:100A200073E00E94650D9E012D5F3F4F61157105BA
:100A300039F0F901EA52FA4F605D60832F5F3F4F52
:100A4000F901EA52FA4F1082C901959587954091B4
:100A5000D605F901EB52FA4F50815093D6054083E9
:100A60008130910509F492CF4091D705F901EC52FC
:100A7000FA4F50815093D70540838230910509F495
:100A800085CF4091D805F901ED52FA4F508150932E
:100A9000D80540838330910509F478CF4091D9057A
:100AA000F901EE52FA4F50815093D90540838430BA
:100AB000910509F46BCF4091DA05F901EF52FA4F35
:100AC00050815093DA0540838530910509F45ECF5B
:100AD0004091DB05F901E053FA4F50815093DB055B
:100AE00040838630910509F451CF4091DC05F9012E
:100AF000E153FA4F50815093DC054083079709F486
:100B000045CF8091DD05F901E253FA4F9081909332
:100B1000DD05808386ED95E0DF91CF911F910F91E8
:100B200008956AE070E00E94650D805D8093D605AF
:100B3000FB01309751F0C1E0D0E042CF1092D805D0
:100B40008093D6052093D70521CF1092D7051ECFCD
:100B50000C94F6000C94FD00DC01FB019C919923A0
:100B6000E1F080818823A1F0891310C0119605C09F
:100B7000222371F0FA01921309C0AF014F5F5F4F5A
:100B80009D9121819111F4CF81E0921380E008952D
:100B900020E081E09213FACFFACF2081F5CF2F9297
:100BA0003F924F925F926F927F928F929F92AF92FD
:100BB000BF92CF92DF92EF92FF920F931F93CF934A
:100BC000DF93CDB7DEB72F970FB6F894DEBF0FBE19
:100BD000CDBFFC019081992309F4C2C03801822E57
:100BE0009F012F5F3F4F3B832A836983442E512C03
:100BF000F2013796FD83EC8392012A5F3F4F3F83DA
:100C00002E833297F987E887225031093B872A875C
:100C10003297FD87EC871201F2E02F0E311C25E0A0
:100C20009202C0011124FC01E45EFE4F6F011F8699
:100C30001E86F981EF2EF12C52012FEFA21AB20A73
:100C40001DC091FC2EC092FC38C093FC42C094FCA5
:100C50004CC095FC56C096FC5FC0000F012F001FD2
:100C6000110B012B09F068C02E853F852F5F3F4F88
:100C70003F872E872530310509F468C0F601919031
:100C80006F01092D10E090FEDCCF482D93016E8599
:100C90007F856E0D7F1D8C819D810E94220191FEBA
:100CA000D2CF482D93016E857F856E0D7F1D8E817D
:100CB0009F810E94220192FEC8CF482D93016E852C
:100CC0007F856E0D7F1D888599850E94220193FE88
:100CD000BECF482D93016E857F856E0D7F1D8A8561
:100CE0009B850E94220194FEB4CF482D93016E850E
:100CF0007F856E0D7F1D8C859D850E94220195FE4E
:100D0000AACF482D93016E857F856E0D7F1DC10191
:100D10000E94220196FEA1CF482D93016E857F850A
:100D20006E0D7F1DC5010E942201000F012F001FC3
:100D3000110B012B09F498CF482D93016E857F8507
:100D40006E0D7F1DC2010E9422018ECFEA81FB81C0
:100D50009191FB83EA83F981FA5FF98391115FCF67
:100D60002F960FB6F894DEBF0FBECDBFDF91CF91A7
:100D70001F910F91FF90EF90DF90CF90BF90AF90B9
:100D80009F908F907F906F905F904F903F902F90AB
:100D900008952F923F924F925F926F927F928F921F
:100DA0009F92AF92BF92CF92DF92EF92FF920F93FA
:100DB0001F93CF93DF93CDB7DEB72C970FB6F89480
:100DC000DEBF0FBECDBF3801822E25E08202C001FA
:100DD0001124FC01E45EFE4F6F011C861B86A42ECD
:100DE000B12CE62EF12C2501FFEF4F1A5F0A1501F9
:100DF00022E0220E311CC50103969A838983F501F6
:100E00003496FC83EB8395012B5F3F4F3E832D830C
:100E1000039698878F833396FA87E9871DC091FCE4
:100E20002DC092FC36C093FC3FC094FC49C095FC99
:100E300053C096FC5DC0000F012F001F110B012B4A
:100E400009F067C02B853C852F5F3F4F3C872B8780
:100E50002530310509F468C0F60191906F01092D24
:100E600010E090FEDCCF482D9301B5018B859C8569
:100E70008E0D9F1D0E94220191FED3CF482D93011C
:100E8000B2018B859C858E0D9F1D0E94220192FED2
:100E9000CACF482D9301B1018B859C858E0D9F1D76
:100EA0000E94220193FEC1CF482D930169817A816E
:100EB0008B859C858E0D9F1D0E94220194FEB7CFCD
:100EC000482D93016B817C818B859C858E0D9F1DA8
:100ED0000E94220195FEADCF482D93016D817E8148
:100EE0008B859C858E0D9F1D0E94220196FEA3CFAF
:100EF000482D93016F8178858B859C858E0D9F1D74
:100F00000E942201000F012F001F110B012B09F479
:100F100099CF482D930169857A858B859C858E0DA7
:100F20009F1D0E9422018ECF2C960FB6F894DEBF33
:100F30000FBECDBFDF91CF911F910F91FF90EF902A
:100F4000DF90CF90BF90AF909F908F907F906F90E9
:100F50005F904F903F902F9008952F923F924F9225
:100F60005F926F927F928F929F92AF92BF92CF9239
:100F7000DF92EF92FF920F931F93CF93DF93CDB742
:100F8000DEB72C970FB6F894DEBF0FBECDBF380189
:100F9000822E25E08202C0011124FC01E45EFE4F96
:100FA0006F011C861B86E62EF12CA42EB12C250188
:100FB000F7E04F0E511C150126E0220E311CC50131
:100FC00005969A838983F5013496FC83EB8395011A
:100FD0002D5F3F4F3E832D83039798878F833397F1
:100FE000FA87E9871DC091FC2DC092FC36C093FCA6
:100FF00040C094FC4AC095FC54C096FC5EC0000FF3
:10100000012F001F110B012B09F068C02B853C85B7
:101010002F5F3F4F3C872B872530310509F468C08F
:10102000F60191906F01092D10E090FEDCCF482D64
:1010300093016B857C856E0D7F1DC2010E9422018C
:1010400091FED3CF482D93016B857C856E0D7F1D5E
:10105000C1010E94220192FECACF482D93016B85E7
:101060007C856E0D7F1D89819A810E94220193FEED
:10107000C0CF482D93016B857C856E0D7F1D8B81C4
:101080009C810E94220194FEB6CF482D93016B856E
:101090007C856E0D7F1D8D819E810E94220195FEB3
:1010A000ACCF482D93016B857C856E0D7F1D8F81A4
:1010B00098850E94220196FEA2CF482D93016B8550
:1010C0007C856E0D7F1D89859A850E942201000F07
:1010D000012F001F110B012B09F498CF482D93010C
:1010E0006B857C856E0D7F1DC5010E9422018ECF10
:1010F0002C960FB6F894DEBF0FBECDBFDF91CF9117
:101100001F910F91FF90EF90DF90CF90BF90AF9025
:101110009F908F907F906F905F904F903F902F9017
:101120000895AF92BF92CF92DF92EF92FF920F930A
:10113000CF93DF93EC015B016A01790183E094E0D6
:101140000E94E603FE01EE0FFF1FE050FF4F80817B
:1011500091810E94E6038FE094E00E94E603C501BE
:101160000E94B8040E94E60389E194E00E94E6032D
:10117000C6010E94E603E114F10439F083E294E031
:101180000E94E603C7010E94E6038AE00E94D103A1
:101190000111FFCFDF91CF910F91FF90EF90DF9082
:1011A000CF90BF90AF9008956115710519F483E059
:1011B00090E00895FC0120812223C9F30097B9F340
:1011C000FA019183808375836483138212828091F4
:1011D000E405882319F084E090E008955093E60533
:1011E0004093E50581E08093E40580E090E0089578
:1011F000AC019091E405292F30E02115310539F03B
:101200006091E5057091E6054617570719F082E0F1
:1012100090E008952130310541F02091E7053091AB
:10122000E8053093E6052093E50591509093E40599
:1012300080E090E00895CF92DF92EF92FF920F93BB
:101240001F93CF93DF938A015091E405552339F022
:10125000E091E505F091E6058E179F0759F082E0D1
:1012600090E0DF91CF911F910F91FF90EF90DF9071
:10127000CF900895060F171FFC0144815581401738
:10128000510718F483E090E0ECCF428153814F3F47
:10129000FFEF5F07B9F3EB0160177107A0F46C0172
:1012A0007901E60EF71E03C0F60142815381CE019B
:1012B000840F951F0E94A805F70181937F01219655
:1012C000C017D10788F380E090E0CBCFCF92DF92B8
:1012D000EF92FF920F931F93CF93DF938A01509168
:1012E000E405552339F0E091E505F091E6058E1708
:1012F0009F0759F082E090E0DF91CF911F910F910D
:10130000FF90EF90DF90CF900895060F171FFC011C
:10131000448155814017510718F483E090E0ECCFE9
:10132000428153814F3FFFEF5F07B9F3EB01601735
:101330007107A0F46C017901E60EF71E03C0F601F7
:1013400042815381F70161917F01CE01840F951F86
:101350000E94AA052196C017D10788F380E090E08B
:10136000CBCF0F931F93CF93DF93FB0120812111EC
:1013700007C083E090E0DF91CF911F910F91089516
:1013800061157105B1F32091E405222339F0209114
:10139000E5053091E6058217930739F082E090E089
:1013A000DF91CF911F910F910895EB018C01FC010A
:1013B000808191810E94AC058823D9F2F801D18304
:1013C000C08380E090E0D7CF81E090E008950F9354
:1013D00081110AC09B0101E047EA54E06AE770E02E
:1013E00087E090E00E9491080F9108950F93009775
:1013F00081F0FC01EE0FFF1FEE5EFE4F2081318178
:1014000001E047EA54E060E870E088E090E00E9484
:1014100091080F91089506960895CF93DF9300D019
:10142000CDB7DEB78091EF059091F005009751F0B0
:101430009C01CE010196821B930B0F900F90DF91C0
:10144000CF91089523EF35E0F4CF0F931F93CF93FF
:10145000DF9300D0CDB7DEB7009719F1E091E90531
:10146000F091EA05309751F46CC0A9014A5F5F4FD3
:10147000401B510B48175907E8F4F90122813381C9
:10148000008111810A5F1F4F0E0F1F1F21153105AB
:1014900061F720E030E1201B310B2817390708F0F5
:1014A000A8C080E090E00F900F90DF91CF911F9146
:1014B0000F910895D80111969C938E9313963C93A7
:1014C0002E9312971596FC93EE931497A281B381F5
:1014D00015961C930E931497138302832091EB05AA
:1014E0003091EC05A901481B590B5093EC05409332
:1014F000EB058091ED059091EE0501969093EE0538
:101500008093ED0581E395E00E94E6030A5F1F4F9B
:10151000C8010E94B8040E94F50383E295E00E948E
:10152000E6038091ED059091EE050E94B8040E94BB
:10153000F503C8010F900F90DF91CF911F910F918C
:1015400008952091EF053091F0052115310509F43A
:1015500079C0A9019E012F5F3F4F241B350B28172F
:10156000390708F49ECFE0E0F0E1E21BF30BF093C3
:10157000EA05E093E9059183808313821282158244
:101580001482F093E805E093E705281B390B3093AC
:10159000EC052093EB058091ED059091EE05019609
:1015A0009093EE058093ED058FEF94E00E94E603A3
:1015B0008091E9059091EA0506960E94B8040E9480
:1015C000F50383E295E00E94E6038091ED0590919A
:1015D000EE050E94B8040E94F5038091E905909100
:1015E000EA0506960F900F90DF91CF911F910F9112
:1015F0000895D80111969C938E9313961C921E9277
:1016000012971596FC93EE9314971383028310930D
:10161000E8050093E7052091EB053091EC05A90161
:10162000481B590B5093EC054093EB058091ED0559
:101630009091EE0501969093EE058093ED0587E578
:1016400095E062CF43EF55E085CF0F93CF93DF93C3
:10165000EC01892B09F44FC02091E9053091EA058E
:101660002115310589F0C9010696F901C817D90776
:1016700031F40EC0CF0106968C179D0749F0028009
:10168000F381E02D3097B1F7DF91CF910F9108955D
:10169000A481B581109731F08281938113969C9338
:1016A0008E931297C281D381209711F0BD83AC83B2
:1016B0002E173F07D9F08091E7059091E8058E1726
:1016C0009F0769F08091ED059091EE050197909349
:1016D000EE058093ED05DF91CF910F910895848100
:1016E00095819093E8058093E705ECCFD093EA05C8
:1016F000C093E905E0CF00E02FE735E04DE955E084
:1017000064E670E084E090E00E949108A5CFCF925B
:10171000DF92EF92FF920F93CF937C01C62F6A0165
:10172000892BB1F0C114D10461F06C2F70E0A601D7
:10173000C701CF910F91FF90EF90DF90CF900C9465
:10174000CE0DCF910F91FF90EF90DF90CF90089545
:1017500000E020EB35E04DE955E064E770E084E01F
:1017600090E00E949108DECF0F93009789F06115F9
:101770007105D1F04115510549F0DB01FC01480F1D
:10178000591F8D918193E417F507D9F70F910895AB
:1017900000E02CEB35E04DE955E06DE770E084E0CA
:1017A00090E00E949108F2CF00E029EC35E04DE98D
:1017B00055E061E870E084E090E00E949108E6CF97
:1017C000EF92FF920F931F93CF93DF938C017B01D6
:1017D00086E090E00E94250AEC0187E993E00E94F0
:1017E000E603CE010E9406048DEB93E00E94F50310
:1017F000F982E8821B821A821D821C82D80114960B
:101800008D919C9115970097C1F0D8011296ED919A
:10181000FC911397D383C283FD83EC831396DC93EF
:10182000CE9312970196F80195838483DF91CF912F
:101830001F910F91FF90EF9008951196DC93CE9336
:101840001396DC93CE931297EDCFCF93DF93CDB762
:10185000DEB72C970FB6F894DEBF0FBECDBF0E9447
:10186000200180E895E20E94B6032FE13FE34FE1BB
:101870006AE070E08AE090E00E9422012FE130E00F
:1018800040E06EE170E08AE090E00E94220118865C
:101890001F821C861B868FEF9FEF9A878987AE0178
:1018A000495F5F4F6CE070E08AEA93E00E94D408E1
:1018B0008CE090E00E94250A8C019C014CE050E0F5
:1018C00060E070E0CE0107960E941B09C8010E94EB
:1018D000F5038CE090E00E94250A7C014CE050E08A
:1018E0006FEA73E00E94B40BC7010E94E6038BEB22
:1018F00093E00E94E6038FE090E00E94250A8C01AD
:101900004FE050E06EEB73E00E94B40BC8010E9400
:10191000E6038BEB93E00E94E603C7010E94250BD0
:10192000C8010E94250B8BEB93E00E94E6038DEC2F
:1019300093E00E94E6031A8219821C821B821E8297
:101940001D8261E070E0CE0101960E94E00B62E032
:1019500070E0CE0101960E94E00B99818A812D8171
:101960003E81121613060CF0ADC0E92FF82F23E0CC
:1019700030E0318320832D813E81121613060CF056
:101980009EC0E92FF82F808191810E94B8040E94A7
:10199000E603E981FA818D819E8102970CF48CC067
:1019A0000280F381E02D808191810E94B8040E9421
:1019B000E6038CEB93E00E94E6038D819E810E94FA
:1019C000B8040E94E6038CEB93E00E94E6038D814D
:1019D0009E81009709F058C00E94B8040E94E60357
:1019E0008D819E810097C1F50E94B8040E94E60394
:1019F0008CEB93E00E94E6038D819E810E94060499
:101A0000E12CF12C00E010E020E030E04FE1B801E3
:101A1000C7010E9422010F5F1F4F00381105A1F777
:101A20008FEFE81AF80AE11481E0F80659F70FE1A0
:101A30001FE32FE14AE06AE08BED93E00E94CF05BF
:101A40002FE144E16AE081EE93E00E94CF0586EE4B
:101A500093E00E94E603FFCFEB81FC8100811181BE
:101A6000A481B581BC83AB83109721F013961C929F
:101A70001E921297CF010E94250B8D819E810197A6
:101A80009E838D83C801B0CFEB81FC8100811181E1
:101A9000A481B581BC83AB83109721F013961C926F
:101AA0001E921297CF010E94250B8D819E81019776
:101AB0009E838D83C80190CFE0E0F0E074CFE0E03A
:101AC000F0E061CFE0E0F0E052CF97FB072E16F494
:101AD000009407D077FD09D00E94980D07FC05D02F
:101AE0003EF4909581959F4F0895709561957F4F35
:101AF0000895052E97FB1EF400940E94900D57FD4B
:101B000007D00E94AC0D07FC03D04EF40C94900D4E
:101B100050954095309521953F4F4F4F5F4F089519
:101B200090958095709561957F4F8F4F9F4F089549
:101B3000AA1BBB1B51E107C0AA1FBB1FA617B707F3
:101B400010F0A61BB70B881F991F5A95A9F780950F
:101B50009095BC01CD010895A1E21A2EAA1BBB1BD2
:101B6000FD010DC0AA1FBB1FEE1FFF1FA217B30769
:101B7000E407F50720F0A21BB30BE40BF50B661F7F
:101B8000771F881F991F1A9469F760957095809543
:101B900090959B01AC01BD01CF010895DC0101C00E
:0E1BA0006D9341505040E0F70895F894FFCF48
:101BAE003404430452045E04770486048F049804BC
:101BBE00A204BE04C704D504E404F104F00A0A0A20
:101BCE0010F00A0A0A10F00A0A0A10F00A0A0A109D
:101BDE00F00A0A0A10F00A0A0A10F00A0A0A10F0AD
:101BEE000A0A0A10F00A0A0A10F00A0A0A10F00A83
:101BFE000A0A10F00A0A0A10F00A0A0A10F00A0A73
:101C0E000A10F00A0A0A10F00A0A0A10F00A0A0A62
:101C1E0010F00A0A0A10F00A0A0A10F00A0A0A104C
:101C2E00F00A0A0A10F00A0A0A10F00A0A0A10F05C
:101C3E000A0A0A10F00A0A0A10F00A0A0A10F00A32
:101C4E000A0A10F00A0A0A10F00A0A0A10F00A0A22
:101C5E000A10F00A0A0A10F00A0A0A100000000020
:101C6E000000F6F6000000C000C00028FE28FE2886
:101C7E001C2A2A2A18C6C81026C65CA2A25C12000C
:101C8E0000C000000038448200008244380000A0EA
:101C9E0040A00010107C10100E0C00000010101050
:101CAE001010060600000006081020C07C8A92A2C2
:101CBE007C0042FE020042868A9262448292926CBC
:101CCE00305090FE10E2A2A2A29C3C5292920C8046
:101CDE00809EA0C06C9292926C6092929478006CEE
:101CEE006C0000006E6C000080809EA0C02828282A
:101CFE0028286C9292926C40808A90607C82BA8A7C
:101D0E00787E8888887EFE9292926C7C8282824453
:101D1E00FE8282827CFE92929282FE909090807CD5
:101D2E008292925CFE101010FE8282FE82820C0263
:101D3E000202FCFE10284482FE02020202FE402035
:101D4E0040FEFE402010FE7C8282827CFE909090AF
:101D5E00607C828A847AFE90989462649292924C0D
:101D6E008080FE8080FC020202FCF8040204F8FC73
:101D7E00020C02FCC6281028C6E4121212FC868A37
:101D8E0092A2C2FE82828200C020100806008282C9
:101D9E0082FE2040804020FE828282FEFE8282826F
:101DAE00FE042A2A2A1EFE1422221C1C222222147F
:101DBE001C222214FE1C2A2A2A18207EA0804010E3
:101DCE002A2A2A3CFE2020201E0022BE02000402E7
:101DDE0002BC00FE080814220082FE02003E203ED5
:101DEE00201E3E1020201E1C2222221C3E242424B3
:101DFE0018182424243E3E10202010122A2A2A04C9
:101E0E00207C2202043C0202023C38040204383CCC
:101E1E00020C023C221408142220120C102022263E
:101E2E002A322200106C82000000FE000000826C3C
:101E3E0010003040201060616C6C6F636174696ECD
:101E4E0067206D656D6F72790A0074657374006C2E
:101E5E006F6C6F6C6F6C6F6C6F6C000A0A00546560
:101E6E007374206465206D616C6C6F6300546573D0
:101E7E0074696E67206C6973740A0051756F693FDF
:101E8E0000466575720054657374696E67204F5312
:101E9E000A00496E697469616C697A696E672E2EE3
:101EAE002E0A00457863657074696F6E3A200020C3
:101EBE006174206C696E65200020696E2066696C05
:101ECE006520002077697468206D6573736167659E
:101EDE003A200A00446976696465206279207A6541
:101EEE00726F00496E76616C6964206F70636F6407
:101EFE006500537461636B206661756C7400476591
:101F0E006E6572616C2070726F74656374696F6E4A
:101F1E00206661756C7400417267756D656E742014
:101F2E006572726F72005365637572697479004FD2
:101F3E00766572666C6F7700417373657274696F44
:101F4E006E0046696C6500426173654C69622F468E
:101F5E00696C6553797374656D2E637070004E6F86
:101F6E00206572726F7200556E6B6E6F776E2065A4
:101F7E0072726F720046696C65206E6F7420666FA8
:101F8E00756E6400496E76616C69642066696C6575
:101F9E00004F7574206F66206D656D6F727900202D
:101FAE00312D2D20416C6C6F636174696E67206DED
:101FBE00656D6F72792061742061646472657373EC
:101FCE003A2000426C6F636B20636F756E743A201B
:101FDE00002032202D2D2D20416C6C6F63617469B1
:101FEE006E67206D656D6F72792061742061646417
:101FFE00726573733A20002033202D202D2D2D2055
:10200E00416C6C6F636174696E67206D656D6F7284
:10201E007920617420616464726573733A20007470
:10202E007279696E6720746F206672656520612013
:10203E006E756C6C20706F696E74657200426173A0
:10204E00654C69622F6D656D6F72792E63707000CD
:10205E00707472206973206E756C6C006465737495
:10206E00206973206E756C6C007372632069732027
:06207E006E756C6C0000A1
:00000001FF
